{"contracts/GreenDAO.sol":{"GreenDAO":{"abi":[{"inputs":[],"name":"_dao_ids","outputs":[{"internalType":"uint256","name":"","type":"uint256"}],"stateMutability":"view","type":"function"},{"inputs":[{"internalType":"uint256","name":"","type":"uint256"}],"name":"_dao_uris","outputs":[{"internalType":"string","name":"dao_wallet","type":"string"},{"internalType":"string","name":"dao_uri","type":"string"},{"internalType":"string","name":"finished","type":"string"}],"stateMutability":"view","type":"function"},{"inputs":[{"internalType":"string","name":"","type":"string"}],"name":"_donated","outputs":[{"internalType":"uint256","name":"","type":"uint256"}],"stateMutability":"view","type":"function"},{"inputs":[{"internalType":"uint256","name":"","type":"uint256"}],"name":"_donations","outputs":[{"internalType":"uint256","name":"ideas_id","type":"uint256"},{"internalType":"string","name":"wallet","type":"string"},{"internalType":"uint256","name":"donation","type":"uint256"}],"stateMutability":"view","type":"function"},{"inputs":[],"name":"_donations_ids","outputs":[{"internalType":"uint256","name":"","type":"uint256"}],"stateMutability":"view","type":"function"},{"inputs":[],"name":"_goal_ids","outputs":[{"internalType":"uint256","name":"","type":"uint256"}],"stateMutability":"view","type":"function"},{"inputs":[{"internalType":"uint256","name":"","type":"uint256"}],"name":"_goal_uris","outputs":[{"internalType":"uint256","name":"dao_id","type":"uint256"},{"internalType":"string","name":"goal_uri","type":"string"}],"stateMutability":"view","type":"function"},{"inputs":[],"name":"_ideas_ids","outputs":[{"internalType":"uint256","name":"","type":"uint256"}],"stateMutability":"view","type":"function"},{"inputs":[{"internalType":"uint256","name":"","type":"uint256"}],"name":"_ideas_uris","outputs":[{"internalType":"uint256","name":"goal_id","type":"uint256"},{"internalType":"string","name":"ideas_uri","type":"string"},{"internalType":"uint256","name":"donation","type":"uint256"}],"stateMutability":"view","type":"function"},{"inputs":[],"name":"_ideas_vote_ids","outputs":[{"internalType":"uint256","name":"","type":"uint256"}],"stateMutability":"view","type":"function"},{"inputs":[],"name":"_join_ids","outputs":[{"internalType":"uint256","name":"","type":"uint256"}],"stateMutability":"view","type":"function"},{"inputs":[{"internalType":"uint256","name":"","type":"uint256"}],"name":"_joined_person","outputs":[{"internalType":"uint256","name":"daoid","type":"uint256"},{"internalType":"string","name":"wallet","type":"string"}],"stateMutability":"view","type":"function"},{"inputs":[],"name":"_message_ids","outputs":[{"internalType":"uint256","name":"","type":"uint256"}],"stateMutability":"view","type":"function"},{"inputs":[],"name":"_message_read_ids","outputs":[{"internalType":"uint256","name":"","type":"uint256"}],"stateMutability":"view","type":"function"},{"inputs":[],"name":"_reply_ids","outputs":[{"internalType":"uint256","name":"","type":"uint256"}],"stateMutability":"view","type":"function"},{"inputs":[],"name":"_smart_contract_ids","outputs":[{"internalType":"uint256","name":"","type":"uint256"}],"stateMutability":"view","type":"function"},{"inputs":[{"internalType":"uint256","name":"","type":"uint256"}],"name":"_smart_contracts_uris","outputs":[{"internalType":"uint256","name":"smart_contract_id","type":"uint256"},{"internalType":"uint256","name":"ideas_id","type":"uint256"},{"internalType":"string","name":"smart_contract_uri","type":"string"}],"stateMutability":"view","type":"function"},{"inputs":[{"internalType":"uint256","name":"","type":"uint256"}],"name":"_template_uris","outputs":[{"internalType":"string","name":"","type":"string"}],"stateMutability":"view","type":"function"},{"inputs":[{"internalType":"string","name":"","type":"string"}],"name":"_user_badges","outputs":[{"internalType":"string","name":"wallet","type":"string"},{"internalType":"bool","name":"dao","type":"bool"},{"internalType":"bool","name":"joined","type":"bool"},{"internalType":"bool","name":"goal","type":"bool"},{"internalType":"bool","name":"ideas","type":"bool"},{"internalType":"bool","name":"vote","type":"bool"},{"internalType":"bool","name":"donation","type":"bool"},{"internalType":"bool","name":"comment","type":"bool"},{"internalType":"bool","name":"reply","type":"bool"}],"stateMutability":"view","type":"function"},{"inputs":[],"name":"addTempData","outputs":[],"stateMutability":"nonpayable","type":"function"},{"inputs":[{"internalType":"uint256","name":"_ideas_id","type":"uint256"},{"internalType":"uint256","name":"_doantion","type":"uint256"},{"internalType":"string","name":"_donator","type":"string"}],"name":"add_donation","outputs":[],"stateMutability":"nonpayable","type":"function"},{"inputs":[{"internalType":"uint256","name":"","type":"uint256"}],"name":"all_goal_ideas_votes","outputs":[{"internalType":"uint256","name":"goal_id","type":"uint256"},{"internalType":"uint256","name":"ideas_id","type":"uint256"},{"internalType":"string","name":"wallet","type":"string"}],"stateMutability":"view","type":"function"},{"inputs":[{"internalType":"uint256","name":"","type":"uint256"}],"name":"all_messages","outputs":[{"internalType":"uint256","name":"message_id","type":"uint256"},{"internalType":"uint256","name":"ideas_id","type":"uint256"},{"internalType":"string","name":"message","type":"string"},{"internalType":"string","name":"sender","type":"string"}],"stateMutability":"view","type":"function"},{"inputs":[{"internalType":"uint256","name":"","type":"uint256"}],"name":"all_read_messages","outputs":[{"internalType":"uint256","name":"message_id","type":"uint256"},{"internalType":"uint256","name":"ideas_id","type":"uint256"},{"internalType":"string","name":"wallet","type":"string"},{"internalType":"string","name":"msg_type","type":"string"}],"stateMutability":"view","type":"function"},{"inputs":[{"internalType":"uint256","name":"","type":"uint256"}],"name":"all_replies","outputs":[{"internalType":"uint256","name":"reply_id","type":"uint256"},{"internalType":"uint256","name":"message_id","type":"uint256"},{"internalType":"uint256","name":"ideas_id","type":"uint256"},{"internalType":"string","name":"message","type":"string"}],"stateMutability":"view","type":"function"},{"inputs":[{"internalType":"string","name":"_dao_wallet","type":"string"},{"internalType":"string","name":"_dao_uri","type":"string"},{"internalType":"string","name":"_template","type":"string"}],"name":"create_dao","outputs":[{"internalType":"uint256","name":"","type":"uint256"}],"stateMutability":"nonpayable","type":"function"},{"inputs":[{"internalType":"string","name":"_goal_uri","type":"string"},{"internalType":"uint256","name":"_dao_id","type":"uint256"},{"internalType":"string","name":"_wallet","type":"string"}],"name":"create_goal","outputs":[{"internalType":"uint256","name":"","type":"uint256"}],"stateMutability":"nonpayable","type":"function"},{"inputs":[{"internalType":"uint256","name":"_goal_id","type":"uint256"},{"internalType":"uint256","name":"_ideas_id","type":"uint256"},{"internalType":"string","name":"_wallet","type":"string"}],"name":"create_goal_ideas_vote","outputs":[{"internalType":"uint256","name":"","type":"uint256"}],"stateMutability":"nonpayable","type":"function"},{"inputs":[{"internalType":"string","name":"_ideas_uri","type":"string"},{"internalType":"uint256","name":"_goal_id","type":"uint256"},{"internalType":"string[]","name":"_smart_contracts","type":"string[]"},{"internalType":"string","name":"_wallet","type":"string"}],"name":"create_ideas","outputs":[{"internalType":"uint256","name":"","type":"uint256"}],"stateMutability":"nonpayable","type":"function"},{"inputs":[{"internalType":"uint256","name":"_dao_id","type":"uint256"}],"name":"dao_uri","outputs":[{"internalType":"string","name":"","type":"string"}],"stateMutability":"view","type":"function"},{"inputs":[{"internalType":"uint256","name":"ideas_id","type":"uint256"}],"name":"getMsgIDs","outputs":[{"internalType":"uint256[]","name":"","type":"uint256[]"}],"stateMutability":"view","type":"function"},{"inputs":[{"internalType":"uint256","name":"_message_id","type":"uint256"},{"internalType":"string","name":"msg_type","type":"string"}],"name":"getReadMsg","outputs":[{"internalType":"bool","name":"","type":"bool"}],"stateMutability":"view","type":"function"},{"inputs":[{"internalType":"uint256","name":"message_id","type":"uint256"}],"name":"getReplyIDs","outputs":[{"internalType":"uint256[]","name":"","type":"uint256[]"}],"stateMutability":"view","type":"function"},{"inputs":[],"name":"get_all_daos","outputs":[{"internalType":"string[]","name":"","type":"string[]"}],"stateMutability":"view","type":"function"},{"inputs":[],"name":"get_all_goals","outputs":[{"internalType":"string[]","name":"","type":"string[]"}],"stateMutability":"view","type":"function"},{"inputs":[{"internalType":"uint256","name":"_dao_id","type":"uint256"}],"name":"get_all_goals_by_dao_id","outputs":[{"internalType":"string[]","name":"","type":"string[]"}],"stateMutability":"view","type":"function"},{"inputs":[],"name":"get_all_ideas","outputs":[{"internalType":"string[]","name":"","type":"string[]"}],"stateMutability":"view","type":"function"},{"inputs":[{"internalType":"uint256","name":"_goal_id","type":"uint256"}],"name":"get_all_ideas_by_goal_id","outputs":[{"internalType":"string[]","name":"","type":"string[]"}],"stateMutability":"view","type":"function"},{"inputs":[{"internalType":"string","name":"_goal_uri","type":"string"}],"name":"get_goal_id_by_goal_uri","outputs":[{"internalType":"uint256","name":"","type":"uint256"}],"stateMutability":"view","type":"function"},{"inputs":[{"internalType":"string","name":"_ideas_uri","type":"string"}],"name":"get_goal_id_from_ideas_uri","outputs":[{"internalType":"uint256","name":"","type":"uint256"}],"stateMutability":"view","type":"function"},{"inputs":[{"internalType":"string","name":"_ideas_uri","type":"string"}],"name":"get_ideas_id_by_ideas_uri","outputs":[{"internalType":"uint256","name":"","type":"uint256"}],"stateMutability":"view","type":"function"},{"inputs":[{"internalType":"uint256","name":"_goal_id","type":"uint256"},{"internalType":"uint256","name":"_ideas_id","type":"uint256"}],"name":"get_ideas_votes_from_goal","outputs":[{"internalType":"string[]","name":"","type":"string[]"}],"stateMutability":"view","type":"function"},{"inputs":[{"internalType":"uint256","name":"_goal_id","type":"uint256"}],"name":"goal_uri","outputs":[{"internalType":"string","name":"","type":"string"}],"stateMutability":"view","type":"function"},{"inputs":[{"internalType":"uint256","name":"_ideas_id","type":"uint256"}],"name":"ideas_uri","outputs":[{"internalType":"string","name":"","type":"string"}],"stateMutability":"view","type":"function"},{"inputs":[{"internalType":"string","name":"wallet","type":"string"}],"name":"is_person_joined","outputs":[{"internalType":"bool","name":"","type":"bool"}],"stateMutability":"view","type":"function"},{"inputs":[{"internalType":"uint256","name":"dao_id","type":"uint256"},{"internalType":"string","name":"person","type":"string"}],"name":"join_community","outputs":[],"stateMutability":"nonpayable","type":"function"},{"inputs":[],"name":"reset_all","outputs":[],"stateMutability":"nonpayable","type":"function"},{"inputs":[{"internalType":"uint256","name":"_ideas_id","type":"uint256"},{"internalType":"string","name":"_message","type":"string"},{"internalType":"string","name":"_sender","type":"string"}],"name":"sendMsg","outputs":[{"internalType":"uint256","name":"","type":"uint256"}],"stateMutability":"nonpayable","type":"function"},{"inputs":[{"internalType":"uint256","name":"_message_id","type":"uint256"},{"internalType":"uint256","name":"_ideas_id","type":"uint256"},{"internalType":"string","name":"_wallet","type":"string"},{"internalType":"string","name":"msg_type","type":"string"}],"name":"sendReadMsg","outputs":[{"internalType":"uint256","name":"","type":"uint256"}],"stateMutability":"nonpayable","type":"function"},{"inputs":[{"internalType":"uint256","name":"_message_id","type":"uint256"},{"internalType":"string","name":"_reply","type":"string"},{"internalType":"uint256","name":"ideas_id","type":"uint256"},{"internalType":"string","name":"_wallet","type":"string"}],"name":"sendReply","outputs":[{"internalType":"uint256","name":"","type":"uint256"}],"stateMutability":"nonpayable","type":"function"},{"inputs":[{"internalType":"uint256","name":"_dao_id","type":"uint256"},{"internalType":"string","name":"_dao_wallet","type":"string"},{"internalType":"string","name":"_dao_uri","type":"string"}],"name":"set_dao","outputs":[],"stateMutability":"nonpayable","type":"function"},{"inputs":[{"internalType":"uint256","name":"_goal_id","type":"uint256"},{"internalType":"string","name":"_goal_uri","type":"string"}],"name":"set_goal","outputs":[],"stateMutability":"nonpayable","type":"function"},{"inputs":[{"internalType":"uint256","name":"_ideas_id","type":"uint256"},{"internalType":"string","name":"_ideas_uri","type":"string"}],"name":"set_ideas","outputs":[],"stateMutability":"nonpayable","type":"function"},{"inputs":[{"internalType":"uint256","name":"_dao_id","type":"uint256"},{"internalType":"string","name":"_template","type":"string"}],"name":"update_template","outputs":[],"stateMutability":"nonpayable","type":"function"}],"devdoc":{"kind":"dev","methods":{},"version":1},"evm":{"bytecode":{"linkReferences":{},"object":"608060405234801561001057600080fd5b506153bc806100206000396000f3fe608060405234801561001057600080fd5b50600436106103425760003560e01c8063812fae1f116101b8578063b527d45e11610104578063d3791b20116100a2578063ec2458021161007c578063ec24580214610b26578063ec39925514610b44578063eca7f5fe14610b74578063ff4a37ef14610ba457610342565b8063d3791b2014610abc578063e32acc1a14610ada578063e3863cef14610b0a57610342565b8063c29595c5116100de578063c29595c514610a1f578063ca013f1714610a3b578063cace8d4614610a59578063cd23080914610a8c57610342565b8063b527d45e146109b2578063c04e7430146109e5578063c04fe97814610a0157610342565b80639077007d11610171578063a1ca91781161014b578063a1ca91781461092a578063aa2bf5d31461095a578063aa4cdf2a14610978578063b16060a6146109a857610342565b80639077007d146108b657806397ee7606146108d45780639f9ff54b146108f257610342565b8063812fae1f146107be57806382fcc732146107ee57806387633eb21461081e578063881de8581461083a5780638c59143d146108565780638d3d25951461088657610342565b80633f87a2f4116102925780636ecda4ee116102305780637bbd582d1161020a5780637bbd582d1461070d5780637f2035d41461072b5780637fc543ec1461075c578063803f5b9f1461078e57610342565b80636ecda4ee1461067d57806377935be7146106ad57806377b2ec23146106dd57610342565b80634a797bd71161026c5780634a797bd7146105e35780634be7adb5146106015780635132f0c7146106315780635d907da11461064d57610342565b80633f87a2f41461054e578063468d0c8014610581578063494ce295146105b357610342565b80631b592aeb116102ff57806327a568b9116102d957806327a568b91461049d57806329b56f60146104cf578063330b8f26146104ed5780633f50602f1461051e57610342565b80631b592aeb1461041d5780631ba44c4c1461043b5780631e9ac9f51461046d57610342565b80630c90f09d14610347578063109ac970146103515780631171b62114610381578063131d44f21461039f57806313bf4cea146103cf57806318426b46146103ed575b600080fd5b61034f610bd6565b005b61036b600480360381019061036691906133c5565b610cb6565b604051610378919061354d565b60405180910390f35b610389610e26565b604051610396919061357e565b60405180910390f35b6103b960048036038101906103b491906133c5565b610e2c565b6040516103c6919061354d565b60405180910390f35b6103d7610f9c565b6040516103e4919061357e565b60405180910390f35b610407600480360381019061040291906137b4565b610fa2565b604051610414919061357e565b60405180910390f35b6104256110c9565b604051610432919061357e565b60405180910390f35b610455600480360381019061045091906133c5565b6110cf565b604051610464939291906138b9565b60405180910390f35b610487600480360381019061048291906138f7565b611181565b604051610494919061357e565b60405180910390f35b6104b760048036038101906104b291906133c5565b6111f3565b6040516104c693929190613940565b60405180910390f35b6104d76113b5565b6040516104e4919061354d565b60405180910390f35b610507600480360381019061050291906133c5565b6114f0565b60405161051592919061398c565b60405180910390f35b610538600480360381019061053391906139bc565b61159c565b604051610545919061357e565b60405180910390f35b610568600480360381019061056391906133c5565b611685565b6040516105789493929190613a47565b60405180910390f35b61059b600480360381019061059691906133c5565b61173d565b6040516105aa93929190613a93565b60405180910390f35b6105cd60048036038101906105c89190613ad1565b6117ef565b6040516105da919061357e565b60405180910390f35b6105eb6118c6565b6040516105f8919061357e565b60405180910390f35b61061b60048036038101906106169190613b70565b6118cc565b604051610628919061354d565b60405180910390f35b61064b60048036038101906106469190613bb0565b611a5e565b005b610667600480360381019061066291906133c5565b611b08565b6040516106749190613c0c565b60405180910390f35b610697600480360381019061069291906133c5565b611bb0565b6040516106a49190613c0c565b60405180910390f35b6106c760048036038101906106c291906138f7565b611c50565b6040516106d4919061357e565b60405180910390f35b6106f760048036038101906106f29190613c2e565b611c7e565b604051610704919061357e565b60405180910390f35b610715611d32565b604051610722919061357e565b60405180910390f35b610745600480360381019061074091906133c5565b611d38565b60405161075392919061398c565b60405180910390f35b610776600480360381019061077191906133c5565b611de4565b60405161078593929190613a93565b60405180910390f35b6107a860048036038101906107a391906133c5565b611e96565b6040516107b59190613d77565b60405180910390f35b6107d860048036038101906107d391906133c5565b611f7a565b6040516107e59190613d77565b60405180910390f35b61080860048036038101906108039190613d99565b61205e565b604051610815919061357e565b60405180910390f35b61083860048036038101906108339190613bb0565b612122565b005b610854600480360381019061084f91906139bc565b61214e565b005b610870600480360381019061086b9190613e08565b6121a9565b60405161087d919061357e565b60405180910390f35b6108a0600480360381019061089b91906133c5565b612257565b6040516108ad9190613c0c565b60405180910390f35b6108be6122ff565b6040516108cb919061357e565b60405180910390f35b6108dc612305565b6040516108e9919061354d565b60405180910390f35b61090c600480360381019061090791906138f7565b612440565b60405161092199989796959493929190613ec2565b60405180910390f35b610944600480360381019061093f91906138f7565b612594565b604051610951919061357e565b60405180910390f35b610962612606565b60405161096f919061357e565b60405180910390f35b610992600480360381019061098d91906138f7565b61260c565b60405161099f919061357e565b60405180910390f35b6109b0612694565b005b6109cc60048036038101906109c791906133c5565b612946565b6040516109dc9493929190613f56565b60405180910390f35b6109ff60048036038101906109fa9190613bb0565b612a86565b005b610a09612ab5565b604051610a16919061354d565b60405180910390f35b610a396004803603810190610a349190613bb0565b612bef565b005b610a43612c1e565b604051610a50919061357e565b60405180910390f35b610a736004803603810190610a6e91906133c5565b612c24565b604051610a839493929190613f56565b60405180910390f35b610aa66004803603810190610aa19190613bb0565b612d64565b604051610ab39190613fa9565b60405180910390f35b610ac4612df5565b604051610ad1919061357e565b60405180910390f35b610af46004803603810190610aef91906133c5565b612dfb565b604051610b019190613c0c565b60405180910390f35b610b246004803603810190610b1f9190613d99565b612ea3565b005b610b2e612fc0565b604051610b3b919061357e565b60405180910390f35b610b5e6004803603810190610b599190613fc4565b612fc6565b604051610b6b919061357e565b60405180910390f35b610b8e6004803603810190610b8991906138f7565b61310c565b604051610b9b9190613fa9565b60405180910390f35b610bbe6004803603810190610bb991906133c5565b61317f565b604051610bcd939291906138b9565b60405180910390f35b610c2f6040518060600160405280602a81526020016142d3602a91396040518061030001604052806102c381526020016146766102c3913960405180610780016040528061075b815260200161493961075b9139612fc6565b50610c6f6040518061032001604052806102f381526020016150946102f3913960006040518060600160405280602a81526020016142d3602a9139611c7e565b506060610cb2604051806103a0016040528061037981526020016142fd61037991396000836040518060600160405280602a81526020016142d3602a9139610fa2565b5050565b6060600060025467ffffffffffffffff811115610cd657610cd56135a3565b5b604051908082528060200260200182016040528015610d0957816020015b6060815260200190600190039081610cf45790505b509050600080600090505b600254811015610e1b5784600d6000838152602001908152602001600020600001541415610e0857600d60008281526020019081526020016000206001018054610d5d9061409a565b80601f0160208091040260200160405190810160405280929190818152602001828054610d899061409a565b8015610dd65780601f10610dab57610100808354040283529160200191610dd6565b820191906000526020600020905b815481529060010190602001808311610db957829003601f168201915b5050505050838381518110610dee57610ded6140cc565b5b60200260200101819052508180610e049061412a565b9250505b8080610e139061412a565b915050610d14565b508192505050919050565b60045481565b6060600060035467ffffffffffffffff811115610e4c57610e4b6135a3565b5b604051908082528060200260200182016040528015610e7f57816020015b6060815260200190600190039081610e6a5790505b509050600080600090505b600354811015610f915784600e6000838152602001908152602001600020600001541415610f7057600e60008281526020019081526020016000206001018054610ed39061409a565b80601f0160208091040260200160405190810160405280929190818152602001828054610eff9061409a565b8015610f4c5780601f10610f2157610100808354040283529160200191610f4c565b820191906000526020600020905b815481529060010190602001808311610f2f57829003601f168201915b5050505050838381518110610f6457610f636140cc565b5b60200260200101819052505b8180610f7b9061412a565b9250508080610f899061412a565b915050610e8a565b508192505050919050565b60025481565b600060405180606001604052808581526020018681526020016000815250600e60006003548152602001908152602001600020600082015181600001556020820151816001019080519060200190610ffb929190613298565b5060408201518160020155905050600160168360405161101b91906141af565b908152602001604051809103902060010160036101000a81548160ff021916908315150217905550600360008154809291906110569061412a565b919050555060005b83518110156110bb57611090600354600554868481518110611083576110826140cc565b5b6020026020010151613231565b600560008154809291906110a39061412a565b919050555080806110b39061412a565b91505061105e565b506003549050949350505050565b60055481565b60126020528060005260406000206000915090508060000154908060010154908060020180546110fe9061409a565b80601f016020809104026020016040519081016040528092919081815260200182805461112a9061409a565b80156111775780601f1061114c57610100808354040283529160200191611177565b820191906000526020600020905b81548152906001019060200180831161115a57829003601f168201915b5050505050905083565b600080600090505b6002548110156111e8578280519060200120600d60008381526020019081526020016000206001016040516111be9190614265565b604051809103902014156111d557809150506111ee565b80806111e09061412a565b915050611189565b50600090505b919050565b600a6020528060005260406000206000915090508060000180546112169061409a565b80601f01602080910402602001604051908101604052809291908181526020018280546112429061409a565b801561128f5780601f106112645761010080835404028352916020019161128f565b820191906000526020600020905b81548152906001019060200180831161127257829003601f168201915b5050505050908060010180546112a49061409a565b80601f01602080910402602001604051908101604052809291908181526020018280546112d09061409a565b801561131d5780601f106112f25761010080835404028352916020019161131d565b820191906000526020600020905b81548152906001019060200180831161130057829003601f168201915b5050505050908060020180546113329061409a565b80601f016020809104026020016040519081016040528092919081815260200182805461135e9061409a565b80156113ab5780601f10611380576101008083540402835291602001916113ab565b820191906000526020600020905b81548152906001019060200180831161138e57829003601f168201915b5050505050905083565b6060600060025467ffffffffffffffff8111156113d5576113d46135a3565b5b60405190808252806020026020018201604052801561140857816020015b60608152602001906001900390816113f35790505b50905060005b6002548110156114e857600d600082815260200190815260200160002060010180546114399061409a565b80601f01602080910402602001604051908101604052809291908181526020018280546114659061409a565b80156114b25780601f10611487576101008083540402835291602001916114b2565b820191906000526020600020905b81548152906001019060200180831161149557829003601f168201915b50505050508282815181106114ca576114c96140cc565b5b602002602001018190525080806114e09061412a565b91505061140e565b508091505090565b600c6020528060005260406000206000915090508060000154908060010180546115199061409a565b80601f01602080910402602001604051908101604052809291908181526020018280546115459061409a565b80156115925780601f1061156757610100808354040283529160200191611592565b820191906000526020600020905b81548152906001019060200180831161157557829003601f168201915b5050505050905082565b600060016016836040516115b091906141af565b908152602001604051809103902060010160066101000a81548160ff021916908315150217905550604051806080016040528060075481526020018581526020018481526020018381525060136000600754815260200190815260200160002060008201518160000155602082015181600101556040820151816002019080519060200190611640929190613298565b50606082015181600301908051906020019061165d929190613298565b50905050600760008154809291906116749061412a565b919050555060075490509392505050565b60156020528060005260406000206000915090508060000154908060010154908060020154908060030180546116ba9061409a565b80601f01602080910402602001604051908101604052809291908181526020018280546116e69061409a565b80156117335780601f1061170857610100808354040283529160200191611733565b820191906000526020600020905b81548152906001019060200180831161171657829003601f168201915b5050505050905084565b600e6020528060005260406000206000915090508060000154908060010180546117669061409a565b80601f01602080910402602001604051908101604052809291908181526020018280546117929061409a565b80156117df5780601f106117b4576101008083540402835291602001916117df565b820191906000526020600020905b8154815290600101906020018083116117c257829003601f168201915b5050505050908060020154905083565b6000600160168360405161180391906141af565b908152602001604051809103902060010160076101000a81548160ff0219169083151502179055506040518060800160405280600954815260200186815260200184815260200185815250601560006009548152602001908152602001600020600082015181600001556020820151816001015560408201518160020155606082015181600301908051906020019061189d929190613298565b50905050600960008154809291906118b49061412a565b91905055506009549050949350505050565b60065481565b6060600060065467ffffffffffffffff8111156118ec576118eb6135a3565b5b60405190808252806020026020018201604052801561191f57816020015b606081526020019060019003908161190a5790505b509050600080600090505b600654811015611a525785601260008381526020019081526020016000206000015414801561196e5750846012600083815260200190815260200160002060010154145b15611a31576012600082815260200190815260200160002060020180546119949061409a565b80601f01602080910402602001604051908101604052809291908181526020018280546119c09061409a565b8015611a0d5780601f106119e257610100808354040283529160200191611a0d565b820191906000526020600020905b8154815290600101906020018083116119f057829003601f168201915b5050505050838381518110611a2557611a246140cc565b5b60200260200101819052505b8180611a3c9061412a565b9250508080611a4a9061412a565b91505061192a565b50819250505092915050565b6001601682604051611a7091906141af565b908152602001604051809103902060010160016101000a81548160ff021916908315150217905550604051806040016040528083815260200182815250600c60006004548152602001908152602001600020600082015181600001556020820151816001019080519060200190611ae8929190613298565b5090505060046000815480929190611aff9061412a565b91905055505050565b6060600a60008381526020019081526020016000206001018054611b2b9061409a565b80601f0160208091040260200160405190810160405280929190818152602001828054611b579061409a565b8015611ba45780601f10611b7957610100808354040283529160200191611ba4565b820191906000526020600020905b815481529060010190602001808311611b8757829003601f168201915b50505050509050919050565b600b6020528060005260406000206000915090508054611bcf9061409a565b80601f0160208091040260200160405190810160405280929190818152602001828054611bfb9061409a565b8015611c485780601f10611c1d57610100808354040283529160200191611c48565b820191906000526020600020905b815481529060010190602001808311611c2b57829003601f168201915b505050505081565b600f818051602081018201805184825260208301602085012081835280955050505050506000915090505481565b6000604051806040016040528084815260200185815250600d60006002548152602001908152602001600020600082015181600001556020820151816001019080519060200190611cd0929190613298565b509050506001601683604051611ce691906141af565b908152602001604051809103902060010160026101000a81548160ff02191690831515021790555060026000815480929190611d219061412a565b919050555060025490509392505050565b60005481565b600d602052806000526040600020600091509050806000015490806001018054611d619061409a565b80601f0160208091040260200160405190810160405280929190818152602001828054611d8d9061409a565b8015611dda5780601f10611daf57610100808354040283529160200191611dda565b820191906000526020600020905b815481529060010190602001808311611dbd57829003601f168201915b5050505050905082565b6010602052806000526040600020600091509050806000015490806001018054611e0d9061409a565b80601f0160208091040260200160405190810160405280929190818152602001828054611e399061409a565b8015611e865780601f10611e5b57610100808354040283529160200191611e86565b820191906000526020600020905b815481529060010190602001808311611e6957829003601f168201915b5050505050908060020154905083565b6060600060075467ffffffffffffffff811115611eb657611eb56135a3565b5b604051908082528060200260200182016040528015611ee45781602001602082028036833780820191505090505b509050600080600090505b600754811015611f6f578460136000838152602001908152602001600020600101541415611f5c576013600082815260200190815260200160002060000154838381518110611f4157611f406140cc565b5b6020026020010181815250508180611f589061412a565b9250505b8080611f679061412a565b915050611eef565b508192505050919050565b6060600060095467ffffffffffffffff811115611f9a57611f996135a3565b5b604051908082528060200260200182016040528015611fc85781602001602082028036833780820191505090505b509050600080600090505b600954811015612053578460156000838152602001908152602001600020600101541415612040576015600082815260200190815260200160002060000154838381518110612025576120246140cc565b5b602002602001018181525050818061203c9061412a565b9250505b808061204b9061412a565b915050611fd3565b508192505050919050565b6000600160168360405161207291906141af565b908152602001604051809103902060010160046101000a81548160ff021916908315150217905550604051806060016040528085815260200184815260200183815250601260006006548152602001908152602001600020600082015181600001556020820151816001015560408201518160020190805190602001906120fa929190613298565b50905050600660008154809291906121119061412a565b919050555060065490509392505050565b80600b60008481526020019081526020016000209080519060200190612149929190613298565b505050565b81600a60008581526020019081526020016000206000019080519060200190612178929190613298565b5080600a600085815260200190815260200160002060010190805190602001906121a3929190613298565b50505050565b600060405180608001604052808681526020018581526020018481526020018381525060146000600854815260200190815260200160002060008201518160000155602082015181600101556040820151816002019080519060200190612211929190613298565b50606082015181600301908051906020019061222e929190613298565b50905050600860008154809291906122459061412a565b91905055506008549050949350505050565b6060600e6000838152602001908152602001600020600101805461227a9061409a565b80601f01602080910402602001604051908101604052809291908181526020018280546122a69061409a565b80156122f35780601f106122c8576101008083540402835291602001916122f3565b820191906000526020600020905b8154815290600101906020018083116122d657829003601f168201915b50505050509050919050565b60075481565b6060600060035467ffffffffffffffff811115612325576123246135a3565b5b60405190808252806020026020018201604052801561235857816020015b60608152602001906001900390816123435790505b50905060005b60035481101561243857600e600082815260200190815260200160002060010180546123899061409a565b80601f01602080910402602001604051908101604052809291908181526020018280546123b59061409a565b80156124025780601f106123d757610100808354040283529160200191612402565b820191906000526020600020905b8154815290600101906020018083116123e557829003601f168201915b505050505082828151811061241a576124196140cc565b5b602002602001018190525080806124309061412a565b91505061235e565b508091505090565b6016818051602081018201805184825260208301602085012081835280955050505050506000915090508060000180546124799061409a565b80601f01602080910402602001604051908101604052809291908181526020018280546124a59061409a565b80156124f25780601f106124c7576101008083540402835291602001916124f2565b820191906000526020600020905b8154815290600101906020018083116124d557829003601f168201915b5050505050908060010160009054906101000a900460ff16908060010160019054906101000a900460ff16908060010160029054906101000a900460ff16908060010160039054906101000a900460ff16908060010160049054906101000a900460ff16908060010160059054906101000a900460ff16908060010160069054906101000a900460ff16908060010160079054906101000a900460ff16905089565b600080600090505b6003548110156125fb578280519060200120600e60008381526020019081526020016000206001016040516125d19190614265565b604051809103902014156125e85780915050612601565b80806125f39061412a565b91505061259c565b50600090505b919050565b60095481565b600080600090505b600354811015612689578280519060200120600e60008381526020019081526020016000206001016040516126499190614265565b6040518091039020141561267657600e60008281526020019081526020016000206000015491505061268f565b80806126819061412a565b915050612614565b50600090505b919050565b60005b6000548110156126fa57600a6000828152602001908152602001600020600080820160006126c5919061331e565b6001820160006126d5919061331e565b6002820160006126e5919061331e565b505080806126f29061412a565b915050612697565b5060005b60025481101561274957600d6000828152602001908152602001600020600080820160009055600182016000612734919061331e565b505080806127419061412a565b9150506126fe565b5060005b6003548110156127a057600e6000828152602001908152602001600020600080820160009055600182016000612783919061331e565b6002820160009055505080806127989061412a565b91505061274d565b5060005b6002548110156127f7576011600082815260200190815260200160002060008082016000905560018201600090556002820160006127e2919061331e565b505080806127ef9061412a565b9150506127a4565b5060005b60075481101561285e57601360008281526020019081526020016000206000808201600090556001820160009055600282016000612839919061331e565b600382016000612849919061331e565b505080806128569061412a565b9150506127fb565b5060005b6009548110156128bd5760156000828152602001908152602001600020600080820160009055600182016000905560028201600090556003820160006128a8919061331e565b505080806128b59061412a565b915050612862565b5060005b600654811015612914576012600082815260200190815260200160002060008082016000905560018201600090556002820160006128ff919061331e565b5050808061290c9061412a565b9150506128c1565b506000808190555060006002819055506000600381905550600060078190555060006009819055506000600681905550565b60136020528060005260406000206000915090508060000154908060010154908060020180546129759061409a565b80601f01602080910402602001604051908101604052809291908181526020018280546129a19061409a565b80156129ee5780601f106129c3576101008083540402835291602001916129ee565b820191906000526020600020905b8154815290600101906020018083116129d157829003601f168201915b505050505090806003018054612a039061409a565b80601f0160208091040260200160405190810160405280929190818152602001828054612a2f9061409a565b8015612a7c5780601f10612a5157610100808354040283529160200191612a7c565b820191906000526020600020905b815481529060010190602001808311612a5f57829003601f168201915b5050505050905084565b80600e60008481526020019081526020016000206001019080519060200190612ab0929190613298565b505050565b60606000805467ffffffffffffffff811115612ad457612ad36135a3565b5b604051908082528060200260200182016040528015612b0757816020015b6060815260200190600190039081612af25790505b50905060005b600054811015612be757600a60008281526020019081526020016000206001018054612b389061409a565b80601f0160208091040260200160405190810160405280929190818152602001828054612b649061409a565b8015612bb15780601f10612b8657610100808354040283529160200191612bb1565b820191906000526020600020905b815481529060010190602001808311612b9457829003601f168201915b5050505050828281518110612bc957612bc86140cc565b5b60200260200101819052508080612bdf9061412a565b915050612b0d565b508091505090565b80600d60008481526020019081526020016000206001019080519060200190612c19929190613298565b505050565b60085481565b6014602052806000526040600020600091509050806000015490806001015490806002018054612c539061409a565b80601f0160208091040260200160405190810160405280929190818152602001828054612c7f9061409a565b8015612ccc5780601f10612ca157610100808354040283529160200191612ccc565b820191906000526020600020905b815481529060010190602001808311612caf57829003601f168201915b505050505090806003018054612ce19061409a565b80601f0160208091040260200160405190810160405280929190818152602001828054612d0d9061409a565b8015612d5a5780601f10612d2f57610100808354040283529160200191612d5a565b820191906000526020600020905b815481529060010190602001808311612d3d57829003601f168201915b5050505050905084565b6000806000905060005b600854811015612dea57846014600083815260200190815260200160002060000154148015612dcd575060146000828152602001908152602001600020600301604051612dbb9190614265565b60405180910390208480519060200120145b15612dd757600191505b8080612de29061412a565b915050612d6e565b508091505092915050565b60035481565b6060600d60008381526020019081526020016000206001018054612e1e9061409a565b80601f0160208091040260200160405190810160405280929190818152602001828054612e4a9061409a565b8015612e975780601f10612e6c57610100808354040283529160200191612e97565b820191906000526020600020905b815481529060010190602001808311612e7a57829003601f168201915b50505050509050919050565b6001601682604051612eb591906141af565b908152602001604051809103902060010160056101000a81548160ff02191690831515021790555081600e60008581526020019081526020016000206002016000828254612f03919061427c565b9250508190555081600f82604051612f1b91906141af565b90815260200160405180910390206000828254612f38919061427c565b92505081905550604051806060016040528084815260200182815260200183815250601060006001548152602001908152602001600020600082015181600001556020820151816001019080519060200190612f95929190613298565b506040820151816002015590505060016000815480929190612fb69061412a565b9190505550505050565b60015481565b600060405180606001604052808581526020018481526020016040518060400160405280600581526020017f46616c7365000000000000000000000000000000000000000000000000000000815250815250600a6000805481526020019081526020016000206000820151816000019080519060200190613048929190613298565b506020820151816001019080519060200190613065929190613298565b506040820151816002019080519060200190613082929190613298565b5090505081600b60008054815260200190815260200160002090805190602001906130ae929190613298565b5060016016856040516130c191906141af565b908152602001604051809103902060010160006101000a81548160ff0219169083151502179055506000808154809291906130fb9061412a565b919050555060005490509392505050565b600080600090505b600454811015613174578280519060200120600c60008381526020019081526020016000206001016040516131499190614265565b6040518091039020141561316157600191505061317a565b808061316c9061412a565b915050613114565b50600090505b919050565b60116020528060005260406000206000915090508060000154908060010154908060020180546131ae9061409a565b80601f01602080910402602001604051908101604052809291908181526020018280546131da9061409a565b80156132275780601f106131fc57610100808354040283529160200191613227565b820191906000526020600020905b81548152906001019060200180831161320a57829003601f168201915b5050505050905083565b604051806060016040528084815260200183815260200182815250601160008481526020019081526020016000206000820151816000015560208201518160010155604082015181600201908051906020019061328f929190613298565b50905050505050565b8280546132a49061409a565b90600052602060002090601f0160209004810192826132c6576000855561330d565b82601f106132df57805160ff191683800117855561330d565b8280016001018555821561330d579182015b8281111561330c5782518255916020019190600101906132f1565b5b50905061331a919061335e565b5090565b50805461332a9061409a565b6000825580601f1061333c575061335b565b601f01602090049060005260206000209081019061335a919061335e565b5b50565b5b8082111561337757600081600090555060010161335f565b5090565b6000604051905090565b600080fd5b600080fd5b6000819050919050565b6133a28161338f565b81146133ad57600080fd5b50565b6000813590506133bf81613399565b92915050565b6000602082840312156133db576133da613385565b5b60006133e9848285016133b0565b91505092915050565b600081519050919050565b600082825260208201905092915050565b6000819050602082019050919050565b600081519050919050565b600082825260208201905092915050565b60005b8381101561345857808201518184015260208101905061343d565b83811115613467576000848401525b50505050565b6000601f19601f8301169050919050565b60006134898261341e565b6134938185613429565b93506134a381856020860161343a565b6134ac8161346d565b840191505092915050565b60006134c3838361347e565b905092915050565b6000602082019050919050565b60006134e3826133f2565b6134ed81856133fd565b9350836020820285016134ff8561340e565b8060005b8581101561353b578484038952815161351c85826134b7565b9450613527836134cb565b925060208a01995050600181019050613503565b50829750879550505050505092915050565b6000602082019050818103600083015261356781846134d8565b905092915050565b6135788161338f565b82525050565b6000602082019050613593600083018461356f565b92915050565b600080fd5b600080fd5b7f4e487b7100000000000000000000000000000000000000000000000000000000600052604160045260246000fd5b6135db8261346d565b810181811067ffffffffffffffff821117156135fa576135f96135a3565b5b80604052505050565b600061360d61337b565b905061361982826135d2565b919050565b600067ffffffffffffffff821115613639576136386135a3565b5b6136428261346d565b9050602081019050919050565b82818337600083830152505050565b600061367161366c8461361e565b613603565b90508281526020810184848401111561368d5761368c61359e565b5b61369884828561364f565b509392505050565b600082601f8301126136b5576136b4613599565b5b81356136c584826020860161365e565b91505092915050565b600067ffffffffffffffff8211156136e9576136e86135a3565b5b602082029050602081019050919050565b600080fd5b600061371261370d846136ce565b613603565b90508083825260208201905060208402830185811115613735576137346136fa565b5b835b8181101561377c57803567ffffffffffffffff81111561375a57613759613599565b5b80860161376789826136a0565b85526020850194505050602081019050613737565b5050509392505050565b600082601f83011261379b5761379a613599565b5b81356137ab8482602086016136ff565b91505092915050565b600080600080608085870312156137ce576137cd613385565b5b600085013567ffffffffffffffff8111156137ec576137eb61338a565b5b6137f8878288016136a0565b9450506020613809878288016133b0565b935050604085013567ffffffffffffffff81111561382a5761382961338a565b5b61383687828801613786565b925050606085013567ffffffffffffffff8111156138575761385661338a565b5b613863878288016136a0565b91505092959194509250565b600082825260208201905092915050565b600061388b8261341e565b613895818561386f565b93506138a581856020860161343a565b6138ae8161346d565b840191505092915050565b60006060820190506138ce600083018661356f565b6138db602083018561356f565b81810360408301526138ed8184613880565b9050949350505050565b60006020828403121561390d5761390c613385565b5b600082013567ffffffffffffffff81111561392b5761392a61338a565b5b613937848285016136a0565b91505092915050565b6000606082019050818103600083015261395a8186613880565b9050818103602083015261396e8185613880565b905081810360408301526139828184613880565b9050949350505050565b60006040820190506139a1600083018561356f565b81810360208301526139b38184613880565b90509392505050565b6000806000606084860312156139d5576139d4613385565b5b60006139e3868287016133b0565b935050602084013567ffffffffffffffff811115613a0457613a0361338a565b5b613a10868287016136a0565b925050604084013567ffffffffffffffff811115613a3157613a3061338a565b5b613a3d868287016136a0565b9150509250925092565b6000608082019050613a5c600083018761356f565b613a69602083018661356f565b613a76604083018561356f565b8181036060830152613a888184613880565b905095945050505050565b6000606082019050613aa8600083018661356f565b8181036020830152613aba8185613880565b9050613ac9604083018461356f565b949350505050565b60008060008060808587031215613aeb57613aea613385565b5b6000613af9878288016133b0565b945050602085013567ffffffffffffffff811115613b1a57613b1961338a565b5b613b26878288016136a0565b9350506040613b37878288016133b0565b925050606085013567ffffffffffffffff811115613b5857613b5761338a565b5b613b64878288016136a0565b91505092959194509250565b60008060408385031215613b8757613b86613385565b5b6000613b95858286016133b0565b9250506020613ba6858286016133b0565b9150509250929050565b60008060408385031215613bc757613bc6613385565b5b6000613bd5858286016133b0565b925050602083013567ffffffffffffffff811115613bf657613bf561338a565b5b613c02858286016136a0565b9150509250929050565b60006020820190508181036000830152613c268184613880565b905092915050565b600080600060608486031215613c4757613c46613385565b5b600084013567ffffffffffffffff811115613c6557613c6461338a565b5b613c71868287016136a0565b9350506020613c82868287016133b0565b925050604084013567ffffffffffffffff811115613ca357613ca261338a565b5b613caf868287016136a0565b9150509250925092565b600081519050919050565b600082825260208201905092915050565b6000819050602082019050919050565b613cee8161338f565b82525050565b6000613d008383613ce5565b60208301905092915050565b6000602082019050919050565b6000613d2482613cb9565b613d2e8185613cc4565b9350613d3983613cd5565b8060005b83811015613d6a578151613d518882613cf4565b9750613d5c83613d0c565b925050600181019050613d3d565b5085935050505092915050565b60006020820190508181036000830152613d918184613d19565b905092915050565b600080600060608486031215613db257613db1613385565b5b6000613dc0868287016133b0565b9350506020613dd1868287016133b0565b925050604084013567ffffffffffffffff811115613df257613df161338a565b5b613dfe868287016136a0565b9150509250925092565b60008060008060808587031215613e2257613e21613385565b5b6000613e30878288016133b0565b9450506020613e41878288016133b0565b935050604085013567ffffffffffffffff811115613e6257613e6161338a565b5b613e6e878288016136a0565b925050606085013567ffffffffffffffff811115613e8f57613e8e61338a565b5b613e9b878288016136a0565b91505092959194509250565b60008115159050919050565b613ebc81613ea7565b82525050565b6000610120820190508181036000830152613edd818c613880565b9050613eec602083018b613eb3565b613ef9604083018a613eb3565b613f066060830189613eb3565b613f136080830188613eb3565b613f2060a0830187613eb3565b613f2d60c0830186613eb3565b613f3a60e0830185613eb3565b613f48610100830184613eb3565b9a9950505050505050505050565b6000608082019050613f6b600083018761356f565b613f78602083018661356f565b8181036040830152613f8a8185613880565b90508181036060830152613f9e8184613880565b905095945050505050565b6000602082019050613fbe6000830184613eb3565b92915050565b600080600060608486031215613fdd57613fdc613385565b5b600084013567ffffffffffffffff811115613ffb57613ffa61338a565b5b614007868287016136a0565b935050602084013567ffffffffffffffff8111156140285761402761338a565b5b614034868287016136a0565b925050604084013567ffffffffffffffff8111156140555761405461338a565b5b614061868287016136a0565b9150509250925092565b7f4e487b7100000000000000000000000000000000000000000000000000000000600052602260045260246000fd5b600060028204905060018216806140b257607f821691505b602082108114156140c6576140c561406b565b5b50919050565b7f4e487b7100000000000000000000000000000000000000000000000000000000600052603260045260246000fd5b7f4e487b7100000000000000000000000000000000000000000000000000000000600052601160045260246000fd5b60006141358261338f565b91507fffffffffffffffffffffffffffffffffffffffffffffffffffffffffffffffff821415614168576141676140fb565b5b600182019050919050565b600081905092915050565b60006141898261341e565b6141938185614173565b93506141a381856020860161343a565b80840191505092915050565b60006141bb828461417e565b915081905092915050565b600081905092915050565b60008190508160005260206000209050919050565b600081546141f38161409a565b6141fd81866141c6565b9450600182166000811461421857600181146142295761425c565b60ff1983168652818601935061425c565b614232856141d1565b60005b8381101561425457815481890152600182019150602081019050614235565b838801955050505b50505092915050565b600061427182846141e6565b915081905092915050565b60006142878261338f565b91506142928361338f565b9250827fffffffffffffffffffffffffffffffffffffffffffffffffffffffffffffffff038211156142c7576142c66140fb565b5b82820190509291505056fe3078383662623664366531386335656561636131653833633165363136326363343333646363373061347b227469746c65223a224173736574204d65746164617461222c2274797065223a226f626a656374222c2270726f70657274696573223a7b225469746c65223a7b2274797065223a22737472696e67222c226465736372697074696f6e223a22536f6c61722070616e656c73206f6e2074686520436f6e73657175656e636573204e6f6e6120636f6d6d756e6974792063656e74657220227d2c224465736372697074696f6e223a7b2274797065223a22737472696e67222c226465736372697074696f6e223a2257652063616e20696e735c6e227d2c225374727563747572654c656674223a7b2274797065223a22737472696e67222c226465736372697074696f6e223a5b22526570726573656e74617469766573204265726c696e222c22436f6d6d756e697479222c224368696c6472656e225d7d2c225374727563747572655269676874223a7b2274797065223a22737472696e67222c226465736372697074696f6e223a5b22323025222c22373025222c22313025225d7d2c22516f75746174696f6e223a7b226c696e6b223a2268747470733a2f2f75706c6f61646966792e6e65742f353237336433353064666430303164312f71756f746174696f6e5f436f6e73657175656e6365735f4e6f6e615f636f6d6d756e6974795f63656e7465722e706466222c227072697a65223a222434382c3037312e3535227d2c2277616c6c6574223a7b2274797065223a22737472696e67222c226465736372697074696f6e223a22307844363062433062303063314438613731384642366644654463343436366337413131383038363863227d2c226c6f676f223a7b2274797065223a22737472696e67222c226465736372697074696f6e223a7b2275726c223a2268747470733a2f2f626166796265696634666b367477696b6b63796f70676c687070646f376464336c3334626d367165646a65336d78667465633565376234686535342e697066732e6e667473746f726167652e6c696e6b222c2274797065223a22696d6167652f706e67227d7d2c22616c6c46696c6573223a5b7b2275726c223a2268747470733a2f2f626166796265696634666b367477696b6b63796f70676c687070646f376464336c3334626d367165646a65336d78667465633565376234686535342e697066732e6e667473746f726167652e6c696e6b222c2274797065223a22696d6167652f706e67227d5d7d7d7b227469746c65223a224173736574204d65746164617461222c2274797065223a226f626a656374222c2270726f70657274696573223a7b225469746c65223a7b2274797065223a22737472696e67222c226465736372697074696f6e223a224c616b65204e6f6e612c204f726c616e646f205553227d2c224465736372697074696f6e223a7b2274797065223a22737472696e67222c226465736372697074696f6e223a22227d2c2253746172745f44617465223a7b2274797065223a22737472696e67222c226465736372697074696f6e223a22323032332d30382d31365431313a3134227d2c226c6f676f223a7b2274797065223a22737472696e67222c226465736372697074696f6e223a7b2275726c223a2268747470733a2f2f62616679626569636235797933366f63733479756c7068367a707837676773796567696e736a776e6674376d6c3763786f6a79777062736a7571342e697066732e6e667473746f726167652e6c696e6b222c2274797065223a22696d6167652f706e67227d7d2c2277616c6c6574223a7b2274797065223a22737472696e67222c226465736372697074696f6e223a22307838366262366436653138633565656163613165383363316536313632636334333364636337306134227d2c22537562735072696365223a7b2274797065223a226e756d626572222c226465736372697074696f6e223a22302e3035227d2c2274797065696d67223a7b2274797065223a22737472696e67222c226465736372697074696f6e223a2244616f227d2c22616c6c46696c6573223a5b7b2275726c223a2268747470733a2f2f62616679626569636235797933366f63733479756c7068367a707837676773796567696e736a776e6674376d6c3763786f6a79777062736a7571342e697066732e6e667473746f726167652e6c696e6b222c2274797065223a22696d6167652f706e67227d5d7d7d3c626f64793e3c6469762069643d2264616f2d636f6e7461696e6572223e3c64697620636c6173733d2264616f2d636f6e7461696e657220666c6578206974656d732d63656e74657220666c65782d636f6c206761702d382072656c6174697665223e3c64697620636c6173733d2264616f2d7469746c65206761702d3820666c657820666c65782d636f6c2072656c6174697665223e3c6469763e3c68312069643d2264616f2d7469746c652220636c6173733d22746578742d6d6f6f6e2d333220666f6e742d626f6c64223e4c616b65204e6f6e612c204f726c616e646f2055533c2f68313e3c2f6469763e3c64697620636c6173733d22666c6578206761702d34206a7573746966792d6265747765656e2074616273223e3c64697620636c6173733d22666c6578223e3c6120687265663d222f3f713d416c6c2220636c6173733d22446f6e6174696f6e4261724c696e6b2074616220626c6f636b2070782d332070792d3220616374697665223e416c6c3c2f613e3c6120687265663d222f3f713d546f6461792220636c6173733d22446f6e6174696f6e4261724c696e6b2074616220626c6f636b2070782d332070792d32223e546f6461793c2f613e3c6120687265663d222f3f713d546869732532304d6f6e74682220636c6173733d22446f6e6174696f6e4261724c696e6b2074616220626c6f636b2070782d332070792d32223e54686973204d6f6e74683c2f613e3c2f6469763e3c627574746f6e20747970653d22627574746f6e222076616c75653d2243726561746520476f616c2220636c6173733d2270792d322070782d34206761702d3220746578742d6d6f6f6e2d313420726f756e6465642d6d6f6f6e2d692d736d207a2d3020666c6578206a7573746966792d63656e746572206974656d732d63656e74657220666f6e742d6d656469756d206e6f2d756e6465726c696e65206f766572666c6f772d68696464656e2073656c6563742d6e6f6e65206f75746c696e652d6e6f6e65207472616e736974696f6e206475726174696f6e2d323030206163746976653a7363616c652d393020666f6375732d76697369626c653a736861646f772d666f6375732062746e2d7072696d617279206372656174652d676f616c2d626c6f636b223e3c64697620636c6173733d226761702d32222069643d2269716f6b6a223e0a202020202020200a2020202020203c2f6469763e3c2f627574746f6e3e3c2f6469763e3c2f6469763e3c64697620636c6173733d2264616f2d64697669646572223e0a20203c2f6469763e3c64697620636c6173733d22666c657820666c65782d636f6c206761702d38223e3c696d672069643d2264616f2d696d61676522207372633d2268747470733a2f2f62616679626569636235797933366f63733479756c7068367a707837676773796567696e736a776e6674376d6c3763786f6a79777062736a7571342e697066732e6e667473746f726167652e6c696e6b222f3e3c2f6469763e3c6469762069643d22676f616c2d636f6e7461696e65722220636c6173733d22666c657820666c65782d636f6c206761702d38223e0a0a20203c2f6469763e3c2f6469763e3c2f6469763e3c2f626f64793e3c7374796c653e2a207b20626f782d73697a696e673a20626f726465722d626f783b207d20626f6479207b6d617267696e3a20303b7d2364616f2d7469746c657b77696474683a3738253b7d2369716f6b6a7b666c65782d646972656374696f6e3a726f772d726576657273653b646973706c61793a666c65783b7d2e70792d322e70782d342e6761702d322e746578742d6d6f6f6e2d31342e726f756e6465642d6d6f6f6e2d692d736d2e72656c61746976652e7a2d302e666c65782e6a7573746966792d63656e7465722e6974656d732d63656e7465722e666f6e742d6d656469756d2e6e6f2d756e6465726c696e652e6f766572666c6f772d68696464656e2e73656c6563742d6e6f6e652e6f75746c696e652d6e6f6e652e7472616e736974696f6e2e6475726174696f6e2d3230302e6163746976655c3a7363616c652d39302e666f6375732d76697369626c655c3a736861646f772d666f6375732e62746e2d7072696d6172792e6372656174652d676f616c2d626c6f636b2e7b706f736974696f6e3a72656c61746976653b72696768743a3070783b7d2e70792d322e70782d342e6761702d322e746578742d6d6f6f6e2d31342e726f756e6465642d6d6f6f6e2d692d736d2e7a2d302e666c65782e6a7573746966792d63656e7465722e6974656d732d63656e7465722e666f6e742d6d656469756d2e6e6f2d756e6465726c696e652e6f766572666c6f772d68696464656e2e73656c6563742d6e6f6e652e6f75746c696e652d6e6f6e652e7472616e736974696f6e2e6475726174696f6e2d3230302e6163746976655c3a7363616c652d39302e666f6375732d76697369626c655c3a736861646f772d666f6375732e62746e2d7072696d6172792e6372656174652d676f616c2d626c6f636b2e7b72696768743a313070783b706f736974696f6e3a6162736f6c7574653b7d3c2f7374796c653e7b227469746c65223a224173736574204d65746164617461222c2274797065223a226f626a656374222c2270726f70657274696573223a7b225469746c65223a7b2274797065223a22737472696e67222c226465736372697074696f6e223a2252656e657761626c6520656e65726779227d2c224465736372697074696f6e223a7b2274797065223a22737472696e67222c226465736372697074696f6e223a224f75722044414f206973207374617274696e672069742773206f776e2072656e657761626c6520656e6572677920636f6d70616e7920746861742064656c697665727320656e6572677920666f72207468652077686f6c6520636f6d6d756e697479227d2c22427564676574223a7b2274797065223a22737472696e67222c226465736372697074696f6e223a2224312c3030302c303030227d2c22456e645f44617465223a7b2274797065223a22737472696e67222c226465736372697074696f6e223a22323032332d30382d33315432323a3430227d2c2277616c6c6574223a7b2274797065223a22737472696e67222c226465736372697074696f6e223a22307838366262366436653138633565656163613165383363316536313632636334333364636337306134227d2c226c6f676f223a7b2274797065223a22737472696e67222c226465736372697074696f6e223a7b2275726c223a2268747470733a2f2f626166796265696335673478766a376d7972676b6236326c656e6c64376f72706c32687273706d7a6c7a6364627a70796f746333337471796770652e697066732e6e667473746f726167652e6c696e6b222c2274797065223a22696d6167652f6a706567227d7d2c22616c6c46696c6573223a5b7b2275726c223a2268747470733a2f2f626166796265696335673478766a376d7972676b6236326c656e6c64376f72706c32687273706d7a6c7a6364627a70796f746333337471796770652e697066732e6e667473746f726167652e6c696e6b222c2274797065223a22696d6167652f6a706567227d5d7d7da2646970667358221220ee79fbfa4c4f1bb79a1695e65a7b100dddbb2da942c9dc01d9e0187fd87da9cd64736f6c63430008090033","opcodes":"PUSH1 0x80 PUSH1 0x40 MSTORE CALLVALUE DUP1 ISZERO PUSH2 0x10 JUMPI PUSH1 0x0 DUP1 REVERT JUMPDEST POP PUSH2 0x53BC DUP1 PUSH2 0x20 PUSH1 0x0 CODECOPY PUSH1 0x0 RETURN INVALID PUSH1 0x80 PUSH1 0x40 MSTORE CALLVALUE DUP1 ISZERO PUSH2 0x10 JUMPI PUSH1 0x0 DUP1 REVERT JUMPDEST POP PUSH1 0x4 CALLDATASIZE LT PUSH2 0x342 JUMPI PUSH1 0x0 CALLDATALOAD PUSH1 0xE0 SHR DUP1 PUSH4 0x812FAE1F GT PUSH2 0x1B8 JUMPI DUP1 PUSH4 0xB527D45E GT PUSH2 0x104 JUMPI DUP1 PUSH4 0xD3791B20 GT PUSH2 0xA2 JUMPI DUP1 PUSH4 0xEC245802 GT PUSH2 0x7C JUMPI DUP1 PUSH4 0xEC245802 EQ PUSH2 0xB26 JUMPI DUP1 PUSH4 0xEC399255 EQ PUSH2 0xB44 JUMPI DUP1 PUSH4 0xECA7F5FE EQ PUSH2 0xB74 JUMPI DUP1 PUSH4 0xFF4A37EF EQ PUSH2 0xBA4 JUMPI PUSH2 0x342 JUMP JUMPDEST DUP1 PUSH4 0xD3791B20 EQ PUSH2 0xABC JUMPI DUP1 PUSH4 0xE32ACC1A EQ PUSH2 0xADA JUMPI DUP1 PUSH4 0xE3863CEF EQ PUSH2 0xB0A JUMPI PUSH2 0x342 JUMP JUMPDEST DUP1 PUSH4 0xC29595C5 GT PUSH2 0xDE JUMPI DUP1 PUSH4 0xC29595C5 EQ PUSH2 0xA1F JUMPI DUP1 PUSH4 0xCA013F17 EQ PUSH2 0xA3B JUMPI DUP1 PUSH4 0xCACE8D46 EQ PUSH2 0xA59 JUMPI DUP1 PUSH4 0xCD230809 EQ PUSH2 0xA8C JUMPI PUSH2 0x342 JUMP JUMPDEST DUP1 PUSH4 0xB527D45E EQ PUSH2 0x9B2 JUMPI DUP1 PUSH4 0xC04E7430 EQ PUSH2 0x9E5 JUMPI DUP1 PUSH4 0xC04FE978 EQ PUSH2 0xA01 JUMPI PUSH2 0x342 JUMP JUMPDEST DUP1 PUSH4 0x9077007D GT PUSH2 0x171 JUMPI DUP1 PUSH4 0xA1CA9178 GT PUSH2 0x14B JUMPI DUP1 PUSH4 0xA1CA9178 EQ PUSH2 0x92A JUMPI DUP1 PUSH4 0xAA2BF5D3 EQ PUSH2 0x95A JUMPI DUP1 PUSH4 0xAA4CDF2A EQ PUSH2 0x978 JUMPI DUP1 PUSH4 0xB16060A6 EQ PUSH2 0x9A8 JUMPI PUSH2 0x342 JUMP JUMPDEST DUP1 PUSH4 0x9077007D EQ PUSH2 0x8B6 JUMPI DUP1 PUSH4 0x97EE7606 EQ PUSH2 0x8D4 JUMPI DUP1 PUSH4 0x9F9FF54B EQ PUSH2 0x8F2 JUMPI PUSH2 0x342 JUMP JUMPDEST DUP1 PUSH4 0x812FAE1F EQ PUSH2 0x7BE JUMPI DUP1 PUSH4 0x82FCC732 EQ PUSH2 0x7EE JUMPI DUP1 PUSH4 0x87633EB2 EQ PUSH2 0x81E JUMPI DUP1 PUSH4 0x881DE858 EQ PUSH2 0x83A JUMPI DUP1 PUSH4 0x8C59143D EQ PUSH2 0x856 JUMPI DUP1 PUSH4 0x8D3D2595 EQ PUSH2 0x886 JUMPI PUSH2 0x342 JUMP JUMPDEST DUP1 PUSH4 0x3F87A2F4 GT PUSH2 0x292 JUMPI DUP1 PUSH4 0x6ECDA4EE GT PUSH2 0x230 JUMPI DUP1 PUSH4 0x7BBD582D GT PUSH2 0x20A JUMPI DUP1 PUSH4 0x7BBD582D EQ PUSH2 0x70D JUMPI DUP1 PUSH4 0x7F2035D4 EQ PUSH2 0x72B JUMPI DUP1 PUSH4 0x7FC543EC EQ PUSH2 0x75C JUMPI DUP1 PUSH4 0x803F5B9F EQ PUSH2 0x78E JUMPI PUSH2 0x342 JUMP JUMPDEST DUP1 PUSH4 0x6ECDA4EE EQ PUSH2 0x67D JUMPI DUP1 PUSH4 0x77935BE7 EQ PUSH2 0x6AD JUMPI DUP1 PUSH4 0x77B2EC23 EQ PUSH2 0x6DD JUMPI PUSH2 0x342 JUMP JUMPDEST DUP1 PUSH4 0x4A797BD7 GT PUSH2 0x26C JUMPI DUP1 PUSH4 0x4A797BD7 EQ PUSH2 0x5E3 JUMPI DUP1 PUSH4 0x4BE7ADB5 EQ PUSH2 0x601 JUMPI DUP1 PUSH4 0x5132F0C7 EQ PUSH2 0x631 JUMPI DUP1 PUSH4 0x5D907DA1 EQ PUSH2 0x64D JUMPI PUSH2 0x342 JUMP JUMPDEST DUP1 PUSH4 0x3F87A2F4 EQ PUSH2 0x54E JUMPI DUP1 PUSH4 0x468D0C80 EQ PUSH2 0x581 JUMPI DUP1 PUSH4 0x494CE295 EQ PUSH2 0x5B3 JUMPI PUSH2 0x342 JUMP JUMPDEST DUP1 PUSH4 0x1B592AEB GT PUSH2 0x2FF JUMPI DUP1 PUSH4 0x27A568B9 GT PUSH2 0x2D9 JUMPI DUP1 PUSH4 0x27A568B9 EQ PUSH2 0x49D JUMPI DUP1 PUSH4 0x29B56F60 EQ PUSH2 0x4CF JUMPI DUP1 PUSH4 0x330B8F26 EQ PUSH2 0x4ED JUMPI DUP1 PUSH4 0x3F50602F EQ PUSH2 0x51E JUMPI PUSH2 0x342 JUMP JUMPDEST DUP1 PUSH4 0x1B592AEB EQ PUSH2 0x41D JUMPI DUP1 PUSH4 0x1BA44C4C EQ PUSH2 0x43B JUMPI DUP1 PUSH4 0x1E9AC9F5 EQ PUSH2 0x46D JUMPI PUSH2 0x342 JUMP JUMPDEST DUP1 PUSH4 0xC90F09D EQ PUSH2 0x347 JUMPI DUP1 PUSH4 0x109AC970 EQ PUSH2 0x351 JUMPI DUP1 PUSH4 0x1171B621 EQ PUSH2 0x381 JUMPI DUP1 PUSH4 0x131D44F2 EQ PUSH2 0x39F JUMPI DUP1 PUSH4 0x13BF4CEA EQ PUSH2 0x3CF JUMPI DUP1 PUSH4 0x18426B46 EQ PUSH2 0x3ED JUMPI JUMPDEST PUSH1 0x0 DUP1 REVERT JUMPDEST PUSH2 0x34F PUSH2 0xBD6 JUMP JUMPDEST STOP JUMPDEST PUSH2 0x36B PUSH1 0x4 DUP1 CALLDATASIZE SUB DUP2 ADD SWAP1 PUSH2 0x366 SWAP2 SWAP1 PUSH2 0x33C5 JUMP JUMPDEST PUSH2 0xCB6 JUMP JUMPDEST PUSH1 0x40 MLOAD PUSH2 0x378 SWAP2 SWAP1 PUSH2 0x354D JUMP JUMPDEST PUSH1 0x40 MLOAD DUP1 SWAP2 SUB SWAP1 RETURN JUMPDEST PUSH2 0x389 PUSH2 0xE26 JUMP JUMPDEST PUSH1 0x40 MLOAD PUSH2 0x396 SWAP2 SWAP1 PUSH2 0x357E JUMP JUMPDEST PUSH1 0x40 MLOAD DUP1 SWAP2 SUB SWAP1 RETURN JUMPDEST PUSH2 0x3B9 PUSH1 0x4 DUP1 CALLDATASIZE SUB DUP2 ADD SWAP1 PUSH2 0x3B4 SWAP2 SWAP1 PUSH2 0x33C5 JUMP JUMPDEST PUSH2 0xE2C JUMP JUMPDEST PUSH1 0x40 MLOAD PUSH2 0x3C6 SWAP2 SWAP1 PUSH2 0x354D JUMP JUMPDEST PUSH1 0x40 MLOAD DUP1 SWAP2 SUB SWAP1 RETURN JUMPDEST PUSH2 0x3D7 PUSH2 0xF9C JUMP JUMPDEST PUSH1 0x40 MLOAD PUSH2 0x3E4 SWAP2 SWAP1 PUSH2 0x357E JUMP JUMPDEST PUSH1 0x40 MLOAD DUP1 SWAP2 SUB SWAP1 RETURN JUMPDEST PUSH2 0x407 PUSH1 0x4 DUP1 CALLDATASIZE SUB DUP2 ADD SWAP1 PUSH2 0x402 SWAP2 SWAP1 PUSH2 0x37B4 JUMP JUMPDEST PUSH2 0xFA2 JUMP JUMPDEST PUSH1 0x40 MLOAD PUSH2 0x414 SWAP2 SWAP1 PUSH2 0x357E JUMP JUMPDEST PUSH1 0x40 MLOAD DUP1 SWAP2 SUB SWAP1 RETURN JUMPDEST PUSH2 0x425 PUSH2 0x10C9 JUMP JUMPDEST PUSH1 0x40 MLOAD PUSH2 0x432 SWAP2 SWAP1 PUSH2 0x357E JUMP JUMPDEST PUSH1 0x40 MLOAD DUP1 SWAP2 SUB SWAP1 RETURN JUMPDEST PUSH2 0x455 PUSH1 0x4 DUP1 CALLDATASIZE SUB DUP2 ADD SWAP1 PUSH2 0x450 SWAP2 SWAP1 PUSH2 0x33C5 JUMP JUMPDEST PUSH2 0x10CF JUMP JUMPDEST PUSH1 0x40 MLOAD PUSH2 0x464 SWAP4 SWAP3 SWAP2 SWAP1 PUSH2 0x38B9 JUMP JUMPDEST PUSH1 0x40 MLOAD DUP1 SWAP2 SUB SWAP1 RETURN JUMPDEST PUSH2 0x487 PUSH1 0x4 DUP1 CALLDATASIZE SUB DUP2 ADD SWAP1 PUSH2 0x482 SWAP2 SWAP1 PUSH2 0x38F7 JUMP JUMPDEST PUSH2 0x1181 JUMP JUMPDEST PUSH1 0x40 MLOAD PUSH2 0x494 SWAP2 SWAP1 PUSH2 0x357E JUMP JUMPDEST PUSH1 0x40 MLOAD DUP1 SWAP2 SUB SWAP1 RETURN JUMPDEST PUSH2 0x4B7 PUSH1 0x4 DUP1 CALLDATASIZE SUB DUP2 ADD SWAP1 PUSH2 0x4B2 SWAP2 SWAP1 PUSH2 0x33C5 JUMP JUMPDEST PUSH2 0x11F3 JUMP JUMPDEST PUSH1 0x40 MLOAD PUSH2 0x4C6 SWAP4 SWAP3 SWAP2 SWAP1 PUSH2 0x3940 JUMP JUMPDEST PUSH1 0x40 MLOAD DUP1 SWAP2 SUB SWAP1 RETURN JUMPDEST PUSH2 0x4D7 PUSH2 0x13B5 JUMP JUMPDEST PUSH1 0x40 MLOAD PUSH2 0x4E4 SWAP2 SWAP1 PUSH2 0x354D JUMP JUMPDEST PUSH1 0x40 MLOAD DUP1 SWAP2 SUB SWAP1 RETURN JUMPDEST PUSH2 0x507 PUSH1 0x4 DUP1 CALLDATASIZE SUB DUP2 ADD SWAP1 PUSH2 0x502 SWAP2 SWAP1 PUSH2 0x33C5 JUMP JUMPDEST PUSH2 0x14F0 JUMP JUMPDEST PUSH1 0x40 MLOAD PUSH2 0x515 SWAP3 SWAP2 SWAP1 PUSH2 0x398C JUMP JUMPDEST PUSH1 0x40 MLOAD DUP1 SWAP2 SUB SWAP1 RETURN JUMPDEST PUSH2 0x538 PUSH1 0x4 DUP1 CALLDATASIZE SUB DUP2 ADD SWAP1 PUSH2 0x533 SWAP2 SWAP1 PUSH2 0x39BC JUMP JUMPDEST PUSH2 0x159C JUMP JUMPDEST PUSH1 0x40 MLOAD PUSH2 0x545 SWAP2 SWAP1 PUSH2 0x357E JUMP JUMPDEST PUSH1 0x40 MLOAD DUP1 SWAP2 SUB SWAP1 RETURN JUMPDEST PUSH2 0x568 PUSH1 0x4 DUP1 CALLDATASIZE SUB DUP2 ADD SWAP1 PUSH2 0x563 SWAP2 SWAP1 PUSH2 0x33C5 JUMP JUMPDEST PUSH2 0x1685 JUMP JUMPDEST PUSH1 0x40 MLOAD PUSH2 0x578 SWAP5 SWAP4 SWAP3 SWAP2 SWAP1 PUSH2 0x3A47 JUMP JUMPDEST PUSH1 0x40 MLOAD DUP1 SWAP2 SUB SWAP1 RETURN JUMPDEST PUSH2 0x59B PUSH1 0x4 DUP1 CALLDATASIZE SUB DUP2 ADD SWAP1 PUSH2 0x596 SWAP2 SWAP1 PUSH2 0x33C5 JUMP JUMPDEST PUSH2 0x173D JUMP JUMPDEST PUSH1 0x40 MLOAD PUSH2 0x5AA SWAP4 SWAP3 SWAP2 SWAP1 PUSH2 0x3A93 JUMP JUMPDEST PUSH1 0x40 MLOAD DUP1 SWAP2 SUB SWAP1 RETURN JUMPDEST PUSH2 0x5CD PUSH1 0x4 DUP1 CALLDATASIZE SUB DUP2 ADD SWAP1 PUSH2 0x5C8 SWAP2 SWAP1 PUSH2 0x3AD1 JUMP JUMPDEST PUSH2 0x17EF JUMP JUMPDEST PUSH1 0x40 MLOAD PUSH2 0x5DA SWAP2 SWAP1 PUSH2 0x357E JUMP JUMPDEST PUSH1 0x40 MLOAD DUP1 SWAP2 SUB SWAP1 RETURN JUMPDEST PUSH2 0x5EB PUSH2 0x18C6 JUMP JUMPDEST PUSH1 0x40 MLOAD PUSH2 0x5F8 SWAP2 SWAP1 PUSH2 0x357E JUMP JUMPDEST PUSH1 0x40 MLOAD DUP1 SWAP2 SUB SWAP1 RETURN JUMPDEST PUSH2 0x61B PUSH1 0x4 DUP1 CALLDATASIZE SUB DUP2 ADD SWAP1 PUSH2 0x616 SWAP2 SWAP1 PUSH2 0x3B70 JUMP JUMPDEST PUSH2 0x18CC JUMP JUMPDEST PUSH1 0x40 MLOAD PUSH2 0x628 SWAP2 SWAP1 PUSH2 0x354D JUMP JUMPDEST PUSH1 0x40 MLOAD DUP1 SWAP2 SUB SWAP1 RETURN JUMPDEST PUSH2 0x64B PUSH1 0x4 DUP1 CALLDATASIZE SUB DUP2 ADD SWAP1 PUSH2 0x646 SWAP2 SWAP1 PUSH2 0x3BB0 JUMP JUMPDEST PUSH2 0x1A5E JUMP JUMPDEST STOP JUMPDEST PUSH2 0x667 PUSH1 0x4 DUP1 CALLDATASIZE SUB DUP2 ADD SWAP1 PUSH2 0x662 SWAP2 SWAP1 PUSH2 0x33C5 JUMP JUMPDEST PUSH2 0x1B08 JUMP JUMPDEST PUSH1 0x40 MLOAD PUSH2 0x674 SWAP2 SWAP1 PUSH2 0x3C0C JUMP JUMPDEST PUSH1 0x40 MLOAD DUP1 SWAP2 SUB SWAP1 RETURN JUMPDEST PUSH2 0x697 PUSH1 0x4 DUP1 CALLDATASIZE SUB DUP2 ADD SWAP1 PUSH2 0x692 SWAP2 SWAP1 PUSH2 0x33C5 JUMP JUMPDEST PUSH2 0x1BB0 JUMP JUMPDEST PUSH1 0x40 MLOAD PUSH2 0x6A4 SWAP2 SWAP1 PUSH2 0x3C0C JUMP JUMPDEST PUSH1 0x40 MLOAD DUP1 SWAP2 SUB SWAP1 RETURN JUMPDEST PUSH2 0x6C7 PUSH1 0x4 DUP1 CALLDATASIZE SUB DUP2 ADD SWAP1 PUSH2 0x6C2 SWAP2 SWAP1 PUSH2 0x38F7 JUMP JUMPDEST PUSH2 0x1C50 JUMP JUMPDEST PUSH1 0x40 MLOAD PUSH2 0x6D4 SWAP2 SWAP1 PUSH2 0x357E JUMP JUMPDEST PUSH1 0x40 MLOAD DUP1 SWAP2 SUB SWAP1 RETURN JUMPDEST PUSH2 0x6F7 PUSH1 0x4 DUP1 CALLDATASIZE SUB DUP2 ADD SWAP1 PUSH2 0x6F2 SWAP2 SWAP1 PUSH2 0x3C2E JUMP JUMPDEST PUSH2 0x1C7E JUMP JUMPDEST PUSH1 0x40 MLOAD PUSH2 0x704 SWAP2 SWAP1 PUSH2 0x357E JUMP JUMPDEST PUSH1 0x40 MLOAD DUP1 SWAP2 SUB SWAP1 RETURN JUMPDEST PUSH2 0x715 PUSH2 0x1D32 JUMP JUMPDEST PUSH1 0x40 MLOAD PUSH2 0x722 SWAP2 SWAP1 PUSH2 0x357E JUMP JUMPDEST PUSH1 0x40 MLOAD DUP1 SWAP2 SUB SWAP1 RETURN JUMPDEST PUSH2 0x745 PUSH1 0x4 DUP1 CALLDATASIZE SUB DUP2 ADD SWAP1 PUSH2 0x740 SWAP2 SWAP1 PUSH2 0x33C5 JUMP JUMPDEST PUSH2 0x1D38 JUMP JUMPDEST PUSH1 0x40 MLOAD PUSH2 0x753 SWAP3 SWAP2 SWAP1 PUSH2 0x398C JUMP JUMPDEST PUSH1 0x40 MLOAD DUP1 SWAP2 SUB SWAP1 RETURN JUMPDEST PUSH2 0x776 PUSH1 0x4 DUP1 CALLDATASIZE SUB DUP2 ADD SWAP1 PUSH2 0x771 SWAP2 SWAP1 PUSH2 0x33C5 JUMP JUMPDEST PUSH2 0x1DE4 JUMP JUMPDEST PUSH1 0x40 MLOAD PUSH2 0x785 SWAP4 SWAP3 SWAP2 SWAP1 PUSH2 0x3A93 JUMP JUMPDEST PUSH1 0x40 MLOAD DUP1 SWAP2 SUB SWAP1 RETURN JUMPDEST PUSH2 0x7A8 PUSH1 0x4 DUP1 CALLDATASIZE SUB DUP2 ADD SWAP1 PUSH2 0x7A3 SWAP2 SWAP1 PUSH2 0x33C5 JUMP JUMPDEST PUSH2 0x1E96 JUMP JUMPDEST PUSH1 0x40 MLOAD PUSH2 0x7B5 SWAP2 SWAP1 PUSH2 0x3D77 JUMP JUMPDEST PUSH1 0x40 MLOAD DUP1 SWAP2 SUB SWAP1 RETURN JUMPDEST PUSH2 0x7D8 PUSH1 0x4 DUP1 CALLDATASIZE SUB DUP2 ADD SWAP1 PUSH2 0x7D3 SWAP2 SWAP1 PUSH2 0x33C5 JUMP JUMPDEST PUSH2 0x1F7A JUMP JUMPDEST PUSH1 0x40 MLOAD PUSH2 0x7E5 SWAP2 SWAP1 PUSH2 0x3D77 JUMP JUMPDEST PUSH1 0x40 MLOAD DUP1 SWAP2 SUB SWAP1 RETURN JUMPDEST PUSH2 0x808 PUSH1 0x4 DUP1 CALLDATASIZE SUB DUP2 ADD SWAP1 PUSH2 0x803 SWAP2 SWAP1 PUSH2 0x3D99 JUMP JUMPDEST PUSH2 0x205E JUMP JUMPDEST PUSH1 0x40 MLOAD PUSH2 0x815 SWAP2 SWAP1 PUSH2 0x357E JUMP JUMPDEST PUSH1 0x40 MLOAD DUP1 SWAP2 SUB SWAP1 RETURN JUMPDEST PUSH2 0x838 PUSH1 0x4 DUP1 CALLDATASIZE SUB DUP2 ADD SWAP1 PUSH2 0x833 SWAP2 SWAP1 PUSH2 0x3BB0 JUMP JUMPDEST PUSH2 0x2122 JUMP JUMPDEST STOP JUMPDEST PUSH2 0x854 PUSH1 0x4 DUP1 CALLDATASIZE SUB DUP2 ADD SWAP1 PUSH2 0x84F SWAP2 SWAP1 PUSH2 0x39BC JUMP JUMPDEST PUSH2 0x214E JUMP JUMPDEST STOP JUMPDEST PUSH2 0x870 PUSH1 0x4 DUP1 CALLDATASIZE SUB DUP2 ADD SWAP1 PUSH2 0x86B SWAP2 SWAP1 PUSH2 0x3E08 JUMP JUMPDEST PUSH2 0x21A9 JUMP JUMPDEST PUSH1 0x40 MLOAD PUSH2 0x87D SWAP2 SWAP1 PUSH2 0x357E JUMP JUMPDEST PUSH1 0x40 MLOAD DUP1 SWAP2 SUB SWAP1 RETURN JUMPDEST PUSH2 0x8A0 PUSH1 0x4 DUP1 CALLDATASIZE SUB DUP2 ADD SWAP1 PUSH2 0x89B SWAP2 SWAP1 PUSH2 0x33C5 JUMP JUMPDEST PUSH2 0x2257 JUMP JUMPDEST PUSH1 0x40 MLOAD PUSH2 0x8AD SWAP2 SWAP1 PUSH2 0x3C0C JUMP JUMPDEST PUSH1 0x40 MLOAD DUP1 SWAP2 SUB SWAP1 RETURN JUMPDEST PUSH2 0x8BE PUSH2 0x22FF JUMP JUMPDEST PUSH1 0x40 MLOAD PUSH2 0x8CB SWAP2 SWAP1 PUSH2 0x357E JUMP JUMPDEST PUSH1 0x40 MLOAD DUP1 SWAP2 SUB SWAP1 RETURN JUMPDEST PUSH2 0x8DC PUSH2 0x2305 JUMP JUMPDEST PUSH1 0x40 MLOAD PUSH2 0x8E9 SWAP2 SWAP1 PUSH2 0x354D JUMP JUMPDEST PUSH1 0x40 MLOAD DUP1 SWAP2 SUB SWAP1 RETURN JUMPDEST PUSH2 0x90C PUSH1 0x4 DUP1 CALLDATASIZE SUB DUP2 ADD SWAP1 PUSH2 0x907 SWAP2 SWAP1 PUSH2 0x38F7 JUMP JUMPDEST PUSH2 0x2440 JUMP JUMPDEST PUSH1 0x40 MLOAD PUSH2 0x921 SWAP10 SWAP9 SWAP8 SWAP7 SWAP6 SWAP5 SWAP4 SWAP3 SWAP2 SWAP1 PUSH2 0x3EC2 JUMP JUMPDEST PUSH1 0x40 MLOAD DUP1 SWAP2 SUB SWAP1 RETURN JUMPDEST PUSH2 0x944 PUSH1 0x4 DUP1 CALLDATASIZE SUB DUP2 ADD SWAP1 PUSH2 0x93F SWAP2 SWAP1 PUSH2 0x38F7 JUMP JUMPDEST PUSH2 0x2594 JUMP JUMPDEST PUSH1 0x40 MLOAD PUSH2 0x951 SWAP2 SWAP1 PUSH2 0x357E JUMP JUMPDEST PUSH1 0x40 MLOAD DUP1 SWAP2 SUB SWAP1 RETURN JUMPDEST PUSH2 0x962 PUSH2 0x2606 JUMP JUMPDEST PUSH1 0x40 MLOAD PUSH2 0x96F SWAP2 SWAP1 PUSH2 0x357E JUMP JUMPDEST PUSH1 0x40 MLOAD DUP1 SWAP2 SUB SWAP1 RETURN JUMPDEST PUSH2 0x992 PUSH1 0x4 DUP1 CALLDATASIZE SUB DUP2 ADD SWAP1 PUSH2 0x98D SWAP2 SWAP1 PUSH2 0x38F7 JUMP JUMPDEST PUSH2 0x260C JUMP JUMPDEST PUSH1 0x40 MLOAD PUSH2 0x99F SWAP2 SWAP1 PUSH2 0x357E JUMP JUMPDEST PUSH1 0x40 MLOAD DUP1 SWAP2 SUB SWAP1 RETURN JUMPDEST PUSH2 0x9B0 PUSH2 0x2694 JUMP JUMPDEST STOP JUMPDEST PUSH2 0x9CC PUSH1 0x4 DUP1 CALLDATASIZE SUB DUP2 ADD SWAP1 PUSH2 0x9C7 SWAP2 SWAP1 PUSH2 0x33C5 JUMP JUMPDEST PUSH2 0x2946 JUMP JUMPDEST PUSH1 0x40 MLOAD PUSH2 0x9DC SWAP5 SWAP4 SWAP3 SWAP2 SWAP1 PUSH2 0x3F56 JUMP JUMPDEST PUSH1 0x40 MLOAD DUP1 SWAP2 SUB SWAP1 RETURN JUMPDEST PUSH2 0x9FF PUSH1 0x4 DUP1 CALLDATASIZE SUB DUP2 ADD SWAP1 PUSH2 0x9FA SWAP2 SWAP1 PUSH2 0x3BB0 JUMP JUMPDEST PUSH2 0x2A86 JUMP JUMPDEST STOP JUMPDEST PUSH2 0xA09 PUSH2 0x2AB5 JUMP JUMPDEST PUSH1 0x40 MLOAD PUSH2 0xA16 SWAP2 SWAP1 PUSH2 0x354D JUMP JUMPDEST PUSH1 0x40 MLOAD DUP1 SWAP2 SUB SWAP1 RETURN JUMPDEST PUSH2 0xA39 PUSH1 0x4 DUP1 CALLDATASIZE SUB DUP2 ADD SWAP1 PUSH2 0xA34 SWAP2 SWAP1 PUSH2 0x3BB0 JUMP JUMPDEST PUSH2 0x2BEF JUMP JUMPDEST STOP JUMPDEST PUSH2 0xA43 PUSH2 0x2C1E JUMP JUMPDEST PUSH1 0x40 MLOAD PUSH2 0xA50 SWAP2 SWAP1 PUSH2 0x357E JUMP JUMPDEST PUSH1 0x40 MLOAD DUP1 SWAP2 SUB SWAP1 RETURN JUMPDEST PUSH2 0xA73 PUSH1 0x4 DUP1 CALLDATASIZE SUB DUP2 ADD SWAP1 PUSH2 0xA6E SWAP2 SWAP1 PUSH2 0x33C5 JUMP JUMPDEST PUSH2 0x2C24 JUMP JUMPDEST PUSH1 0x40 MLOAD PUSH2 0xA83 SWAP5 SWAP4 SWAP3 SWAP2 SWAP1 PUSH2 0x3F56 JUMP JUMPDEST PUSH1 0x40 MLOAD DUP1 SWAP2 SUB SWAP1 RETURN JUMPDEST PUSH2 0xAA6 PUSH1 0x4 DUP1 CALLDATASIZE SUB DUP2 ADD SWAP1 PUSH2 0xAA1 SWAP2 SWAP1 PUSH2 0x3BB0 JUMP JUMPDEST PUSH2 0x2D64 JUMP JUMPDEST PUSH1 0x40 MLOAD PUSH2 0xAB3 SWAP2 SWAP1 PUSH2 0x3FA9 JUMP JUMPDEST PUSH1 0x40 MLOAD DUP1 SWAP2 SUB SWAP1 RETURN JUMPDEST PUSH2 0xAC4 PUSH2 0x2DF5 JUMP JUMPDEST PUSH1 0x40 MLOAD PUSH2 0xAD1 SWAP2 SWAP1 PUSH2 0x357E JUMP JUMPDEST PUSH1 0x40 MLOAD DUP1 SWAP2 SUB SWAP1 RETURN JUMPDEST PUSH2 0xAF4 PUSH1 0x4 DUP1 CALLDATASIZE SUB DUP2 ADD SWAP1 PUSH2 0xAEF SWAP2 SWAP1 PUSH2 0x33C5 JUMP JUMPDEST PUSH2 0x2DFB JUMP JUMPDEST PUSH1 0x40 MLOAD PUSH2 0xB01 SWAP2 SWAP1 PUSH2 0x3C0C JUMP JUMPDEST PUSH1 0x40 MLOAD DUP1 SWAP2 SUB SWAP1 RETURN JUMPDEST PUSH2 0xB24 PUSH1 0x4 DUP1 CALLDATASIZE SUB DUP2 ADD SWAP1 PUSH2 0xB1F SWAP2 SWAP1 PUSH2 0x3D99 JUMP JUMPDEST PUSH2 0x2EA3 JUMP JUMPDEST STOP JUMPDEST PUSH2 0xB2E PUSH2 0x2FC0 JUMP JUMPDEST PUSH1 0x40 MLOAD PUSH2 0xB3B SWAP2 SWAP1 PUSH2 0x357E JUMP JUMPDEST PUSH1 0x40 MLOAD DUP1 SWAP2 SUB SWAP1 RETURN JUMPDEST PUSH2 0xB5E PUSH1 0x4 DUP1 CALLDATASIZE SUB DUP2 ADD SWAP1 PUSH2 0xB59 SWAP2 SWAP1 PUSH2 0x3FC4 JUMP JUMPDEST PUSH2 0x2FC6 JUMP JUMPDEST PUSH1 0x40 MLOAD PUSH2 0xB6B SWAP2 SWAP1 PUSH2 0x357E JUMP JUMPDEST PUSH1 0x40 MLOAD DUP1 SWAP2 SUB SWAP1 RETURN JUMPDEST PUSH2 0xB8E PUSH1 0x4 DUP1 CALLDATASIZE SUB DUP2 ADD SWAP1 PUSH2 0xB89 SWAP2 SWAP1 PUSH2 0x38F7 JUMP JUMPDEST PUSH2 0x310C JUMP JUMPDEST PUSH1 0x40 MLOAD PUSH2 0xB9B SWAP2 SWAP1 PUSH2 0x3FA9 JUMP JUMPDEST PUSH1 0x40 MLOAD DUP1 SWAP2 SUB SWAP1 RETURN JUMPDEST PUSH2 0xBBE PUSH1 0x4 DUP1 CALLDATASIZE SUB DUP2 ADD SWAP1 PUSH2 0xBB9 SWAP2 SWAP1 PUSH2 0x33C5 JUMP JUMPDEST PUSH2 0x317F JUMP JUMPDEST PUSH1 0x40 MLOAD PUSH2 0xBCD SWAP4 SWAP3 SWAP2 SWAP1 PUSH2 0x38B9 JUMP JUMPDEST PUSH1 0x40 MLOAD DUP1 SWAP2 SUB SWAP1 RETURN JUMPDEST PUSH2 0xC2F PUSH1 0x40 MLOAD DUP1 PUSH1 0x60 ADD PUSH1 0x40 MSTORE DUP1 PUSH1 0x2A DUP2 MSTORE PUSH1 0x20 ADD PUSH2 0x42D3 PUSH1 0x2A SWAP2 CODECOPY PUSH1 0x40 MLOAD DUP1 PUSH2 0x300 ADD PUSH1 0x40 MSTORE DUP1 PUSH2 0x2C3 DUP2 MSTORE PUSH1 0x20 ADD PUSH2 0x4676 PUSH2 0x2C3 SWAP2 CODECOPY PUSH1 0x40 MLOAD DUP1 PUSH2 0x780 ADD PUSH1 0x40 MSTORE DUP1 PUSH2 0x75B DUP2 MSTORE PUSH1 0x20 ADD PUSH2 0x4939 PUSH2 0x75B SWAP2 CODECOPY PUSH2 0x2FC6 JUMP JUMPDEST POP PUSH2 0xC6F PUSH1 0x40 MLOAD DUP1 PUSH2 0x320 ADD PUSH1 0x40 MSTORE DUP1 PUSH2 0x2F3 DUP2 MSTORE PUSH1 0x20 ADD PUSH2 0x5094 PUSH2 0x2F3 SWAP2 CODECOPY PUSH1 0x0 PUSH1 0x40 MLOAD DUP1 PUSH1 0x60 ADD PUSH1 0x40 MSTORE DUP1 PUSH1 0x2A DUP2 MSTORE PUSH1 0x20 ADD PUSH2 0x42D3 PUSH1 0x2A SWAP2 CODECOPY PUSH2 0x1C7E JUMP JUMPDEST POP PUSH1 0x60 PUSH2 0xCB2 PUSH1 0x40 MLOAD DUP1 PUSH2 0x3A0 ADD PUSH1 0x40 MSTORE DUP1 PUSH2 0x379 DUP2 MSTORE PUSH1 0x20 ADD PUSH2 0x42FD PUSH2 0x379 SWAP2 CODECOPY PUSH1 0x0 DUP4 PUSH1 0x40 MLOAD DUP1 PUSH1 0x60 ADD PUSH1 0x40 MSTORE DUP1 PUSH1 0x2A DUP2 MSTORE PUSH1 0x20 ADD PUSH2 0x42D3 PUSH1 0x2A SWAP2 CODECOPY PUSH2 0xFA2 JUMP JUMPDEST POP POP JUMP JUMPDEST PUSH1 0x60 PUSH1 0x0 PUSH1 0x2 SLOAD PUSH8 0xFFFFFFFFFFFFFFFF DUP2 GT ISZERO PUSH2 0xCD6 JUMPI PUSH2 0xCD5 PUSH2 0x35A3 JUMP JUMPDEST JUMPDEST PUSH1 0x40 MLOAD SWAP1 DUP1 DUP3 MSTORE DUP1 PUSH1 0x20 MUL PUSH1 0x20 ADD DUP3 ADD PUSH1 0x40 MSTORE DUP1 ISZERO PUSH2 0xD09 JUMPI DUP2 PUSH1 0x20 ADD JUMPDEST PUSH1 0x60 DUP2 MSTORE PUSH1 0x20 ADD SWAP1 PUSH1 0x1 SWAP1 SUB SWAP1 DUP2 PUSH2 0xCF4 JUMPI SWAP1 POP JUMPDEST POP SWAP1 POP PUSH1 0x0 DUP1 PUSH1 0x0 SWAP1 POP JUMPDEST PUSH1 0x2 SLOAD DUP2 LT ISZERO PUSH2 0xE1B JUMPI DUP5 PUSH1 0xD PUSH1 0x0 DUP4 DUP2 MSTORE PUSH1 0x20 ADD SWAP1 DUP2 MSTORE PUSH1 0x20 ADD PUSH1 0x0 KECCAK256 PUSH1 0x0 ADD SLOAD EQ ISZERO PUSH2 0xE08 JUMPI PUSH1 0xD PUSH1 0x0 DUP3 DUP2 MSTORE PUSH1 0x20 ADD SWAP1 DUP2 MSTORE PUSH1 0x20 ADD PUSH1 0x0 KECCAK256 PUSH1 0x1 ADD DUP1 SLOAD PUSH2 0xD5D SWAP1 PUSH2 0x409A JUMP JUMPDEST DUP1 PUSH1 0x1F ADD PUSH1 0x20 DUP1 SWAP2 DIV MUL PUSH1 0x20 ADD PUSH1 0x40 MLOAD SWAP1 DUP2 ADD PUSH1 0x40 MSTORE DUP1 SWAP3 SWAP2 SWAP1 DUP2 DUP2 MSTORE PUSH1 0x20 ADD DUP3 DUP1 SLOAD PUSH2 0xD89 SWAP1 PUSH2 0x409A JUMP JUMPDEST DUP1 ISZERO PUSH2 0xDD6 JUMPI DUP1 PUSH1 0x1F LT PUSH2 0xDAB JUMPI PUSH2 0x100 DUP1 DUP4 SLOAD DIV MUL DUP4 MSTORE SWAP2 PUSH1 0x20 ADD SWAP2 PUSH2 0xDD6 JUMP JUMPDEST DUP3 ADD SWAP2 SWAP1 PUSH1 0x0 MSTORE PUSH1 0x20 PUSH1 0x0 KECCAK256 SWAP1 JUMPDEST DUP2 SLOAD DUP2 MSTORE SWAP1 PUSH1 0x1 ADD SWAP1 PUSH1 0x20 ADD DUP1 DUP4 GT PUSH2 0xDB9 JUMPI DUP3 SWAP1 SUB PUSH1 0x1F AND DUP3 ADD SWAP2 JUMPDEST POP POP POP POP POP DUP4 DUP4 DUP2 MLOAD DUP2 LT PUSH2 0xDEE JUMPI PUSH2 0xDED PUSH2 0x40CC JUMP JUMPDEST JUMPDEST PUSH1 0x20 MUL PUSH1 0x20 ADD ADD DUP2 SWAP1 MSTORE POP DUP2 DUP1 PUSH2 0xE04 SWAP1 PUSH2 0x412A JUMP JUMPDEST SWAP3 POP POP JUMPDEST DUP1 DUP1 PUSH2 0xE13 SWAP1 PUSH2 0x412A JUMP JUMPDEST SWAP2 POP POP PUSH2 0xD14 JUMP JUMPDEST POP DUP2 SWAP3 POP POP POP SWAP2 SWAP1 POP JUMP JUMPDEST PUSH1 0x4 SLOAD DUP2 JUMP JUMPDEST PUSH1 0x60 PUSH1 0x0 PUSH1 0x3 SLOAD PUSH8 0xFFFFFFFFFFFFFFFF DUP2 GT ISZERO PUSH2 0xE4C JUMPI PUSH2 0xE4B PUSH2 0x35A3 JUMP JUMPDEST JUMPDEST PUSH1 0x40 MLOAD SWAP1 DUP1 DUP3 MSTORE DUP1 PUSH1 0x20 MUL PUSH1 0x20 ADD DUP3 ADD PUSH1 0x40 MSTORE DUP1 ISZERO PUSH2 0xE7F JUMPI DUP2 PUSH1 0x20 ADD JUMPDEST PUSH1 0x60 DUP2 MSTORE PUSH1 0x20 ADD SWAP1 PUSH1 0x1 SWAP1 SUB SWAP1 DUP2 PUSH2 0xE6A JUMPI SWAP1 POP JUMPDEST POP SWAP1 POP PUSH1 0x0 DUP1 PUSH1 0x0 SWAP1 POP JUMPDEST PUSH1 0x3 SLOAD DUP2 LT ISZERO PUSH2 0xF91 JUMPI DUP5 PUSH1 0xE PUSH1 0x0 DUP4 DUP2 MSTORE PUSH1 0x20 ADD SWAP1 DUP2 MSTORE PUSH1 0x20 ADD PUSH1 0x0 KECCAK256 PUSH1 0x0 ADD SLOAD EQ ISZERO PUSH2 0xF70 JUMPI PUSH1 0xE PUSH1 0x0 DUP3 DUP2 MSTORE PUSH1 0x20 ADD SWAP1 DUP2 MSTORE PUSH1 0x20 ADD PUSH1 0x0 KECCAK256 PUSH1 0x1 ADD DUP1 SLOAD PUSH2 0xED3 SWAP1 PUSH2 0x409A JUMP JUMPDEST DUP1 PUSH1 0x1F ADD PUSH1 0x20 DUP1 SWAP2 DIV MUL PUSH1 0x20 ADD PUSH1 0x40 MLOAD SWAP1 DUP2 ADD PUSH1 0x40 MSTORE DUP1 SWAP3 SWAP2 SWAP1 DUP2 DUP2 MSTORE PUSH1 0x20 ADD DUP3 DUP1 SLOAD PUSH2 0xEFF SWAP1 PUSH2 0x409A JUMP JUMPDEST DUP1 ISZERO PUSH2 0xF4C JUMPI DUP1 PUSH1 0x1F LT PUSH2 0xF21 JUMPI PUSH2 0x100 DUP1 DUP4 SLOAD DIV MUL DUP4 MSTORE SWAP2 PUSH1 0x20 ADD SWAP2 PUSH2 0xF4C JUMP JUMPDEST DUP3 ADD SWAP2 SWAP1 PUSH1 0x0 MSTORE PUSH1 0x20 PUSH1 0x0 KECCAK256 SWAP1 JUMPDEST DUP2 SLOAD DUP2 MSTORE SWAP1 PUSH1 0x1 ADD SWAP1 PUSH1 0x20 ADD DUP1 DUP4 GT PUSH2 0xF2F JUMPI DUP3 SWAP1 SUB PUSH1 0x1F AND DUP3 ADD SWAP2 JUMPDEST POP POP POP POP POP DUP4 DUP4 DUP2 MLOAD DUP2 LT PUSH2 0xF64 JUMPI PUSH2 0xF63 PUSH2 0x40CC JUMP JUMPDEST JUMPDEST PUSH1 0x20 MUL PUSH1 0x20 ADD ADD DUP2 SWAP1 MSTORE POP JUMPDEST DUP2 DUP1 PUSH2 0xF7B SWAP1 PUSH2 0x412A JUMP JUMPDEST SWAP3 POP POP DUP1 DUP1 PUSH2 0xF89 SWAP1 PUSH2 0x412A JUMP JUMPDEST SWAP2 POP POP PUSH2 0xE8A JUMP JUMPDEST POP DUP2 SWAP3 POP POP POP SWAP2 SWAP1 POP JUMP JUMPDEST PUSH1 0x2 SLOAD DUP2 JUMP JUMPDEST PUSH1 0x0 PUSH1 0x40 MLOAD DUP1 PUSH1 0x60 ADD PUSH1 0x40 MSTORE DUP1 DUP6 DUP2 MSTORE PUSH1 0x20 ADD DUP7 DUP2 MSTORE PUSH1 0x20 ADD PUSH1 0x0 DUP2 MSTORE POP PUSH1 0xE PUSH1 0x0 PUSH1 0x3 SLOAD DUP2 MSTORE PUSH1 0x20 ADD SWAP1 DUP2 MSTORE PUSH1 0x20 ADD PUSH1 0x0 KECCAK256 PUSH1 0x0 DUP3 ADD MLOAD DUP2 PUSH1 0x0 ADD SSTORE PUSH1 0x20 DUP3 ADD MLOAD DUP2 PUSH1 0x1 ADD SWAP1 DUP1 MLOAD SWAP1 PUSH1 0x20 ADD SWAP1 PUSH2 0xFFB SWAP3 SWAP2 SWAP1 PUSH2 0x3298 JUMP JUMPDEST POP PUSH1 0x40 DUP3 ADD MLOAD DUP2 PUSH1 0x2 ADD SSTORE SWAP1 POP POP PUSH1 0x1 PUSH1 0x16 DUP4 PUSH1 0x40 MLOAD PUSH2 0x101B SWAP2 SWAP1 PUSH2 0x41AF JUMP JUMPDEST SWAP1 DUP2 MSTORE PUSH1 0x20 ADD PUSH1 0x40 MLOAD DUP1 SWAP2 SUB SWAP1 KECCAK256 PUSH1 0x1 ADD PUSH1 0x3 PUSH2 0x100 EXP DUP2 SLOAD DUP2 PUSH1 0xFF MUL NOT AND SWAP1 DUP4 ISZERO ISZERO MUL OR SWAP1 SSTORE POP PUSH1 0x3 PUSH1 0x0 DUP2 SLOAD DUP1 SWAP3 SWAP2 SWAP1 PUSH2 0x1056 SWAP1 PUSH2 0x412A JUMP JUMPDEST SWAP2 SWAP1 POP SSTORE POP PUSH1 0x0 JUMPDEST DUP4 MLOAD DUP2 LT ISZERO PUSH2 0x10BB JUMPI PUSH2 0x1090 PUSH1 0x3 SLOAD PUSH1 0x5 SLOAD DUP7 DUP5 DUP2 MLOAD DUP2 LT PUSH2 0x1083 JUMPI PUSH2 0x1082 PUSH2 0x40CC JUMP JUMPDEST JUMPDEST PUSH1 0x20 MUL PUSH1 0x20 ADD ADD MLOAD PUSH2 0x3231 JUMP JUMPDEST PUSH1 0x5 PUSH1 0x0 DUP2 SLOAD DUP1 SWAP3 SWAP2 SWAP1 PUSH2 0x10A3 SWAP1 PUSH2 0x412A JUMP JUMPDEST SWAP2 SWAP1 POP SSTORE POP DUP1 DUP1 PUSH2 0x10B3 SWAP1 PUSH2 0x412A JUMP JUMPDEST SWAP2 POP POP PUSH2 0x105E JUMP JUMPDEST POP PUSH1 0x3 SLOAD SWAP1 POP SWAP5 SWAP4 POP POP POP POP JUMP JUMPDEST PUSH1 0x5 SLOAD DUP2 JUMP JUMPDEST PUSH1 0x12 PUSH1 0x20 MSTORE DUP1 PUSH1 0x0 MSTORE PUSH1 0x40 PUSH1 0x0 KECCAK256 PUSH1 0x0 SWAP2 POP SWAP1 POP DUP1 PUSH1 0x0 ADD SLOAD SWAP1 DUP1 PUSH1 0x1 ADD SLOAD SWAP1 DUP1 PUSH1 0x2 ADD DUP1 SLOAD PUSH2 0x10FE SWAP1 PUSH2 0x409A JUMP JUMPDEST DUP1 PUSH1 0x1F ADD PUSH1 0x20 DUP1 SWAP2 DIV MUL PUSH1 0x20 ADD PUSH1 0x40 MLOAD SWAP1 DUP2 ADD PUSH1 0x40 MSTORE DUP1 SWAP3 SWAP2 SWAP1 DUP2 DUP2 MSTORE PUSH1 0x20 ADD DUP3 DUP1 SLOAD PUSH2 0x112A SWAP1 PUSH2 0x409A JUMP JUMPDEST DUP1 ISZERO PUSH2 0x1177 JUMPI DUP1 PUSH1 0x1F LT PUSH2 0x114C JUMPI PUSH2 0x100 DUP1 DUP4 SLOAD DIV MUL DUP4 MSTORE SWAP2 PUSH1 0x20 ADD SWAP2 PUSH2 0x1177 JUMP JUMPDEST DUP3 ADD SWAP2 SWAP1 PUSH1 0x0 MSTORE PUSH1 0x20 PUSH1 0x0 KECCAK256 SWAP1 JUMPDEST DUP2 SLOAD DUP2 MSTORE SWAP1 PUSH1 0x1 ADD SWAP1 PUSH1 0x20 ADD DUP1 DUP4 GT PUSH2 0x115A JUMPI DUP3 SWAP1 SUB PUSH1 0x1F AND DUP3 ADD SWAP2 JUMPDEST POP POP POP POP POP SWAP1 POP DUP4 JUMP JUMPDEST PUSH1 0x0 DUP1 PUSH1 0x0 SWAP1 POP JUMPDEST PUSH1 0x2 SLOAD DUP2 LT ISZERO PUSH2 0x11E8 JUMPI DUP3 DUP1 MLOAD SWAP1 PUSH1 0x20 ADD KECCAK256 PUSH1 0xD PUSH1 0x0 DUP4 DUP2 MSTORE PUSH1 0x20 ADD SWAP1 DUP2 MSTORE PUSH1 0x20 ADD PUSH1 0x0 KECCAK256 PUSH1 0x1 ADD PUSH1 0x40 MLOAD PUSH2 0x11BE SWAP2 SWAP1 PUSH2 0x4265 JUMP JUMPDEST PUSH1 0x40 MLOAD DUP1 SWAP2 SUB SWAP1 KECCAK256 EQ ISZERO PUSH2 0x11D5 JUMPI DUP1 SWAP2 POP POP PUSH2 0x11EE JUMP JUMPDEST DUP1 DUP1 PUSH2 0x11E0 SWAP1 PUSH2 0x412A JUMP JUMPDEST SWAP2 POP POP PUSH2 0x1189 JUMP JUMPDEST POP PUSH1 0x0 SWAP1 POP JUMPDEST SWAP2 SWAP1 POP JUMP JUMPDEST PUSH1 0xA PUSH1 0x20 MSTORE DUP1 PUSH1 0x0 MSTORE PUSH1 0x40 PUSH1 0x0 KECCAK256 PUSH1 0x0 SWAP2 POP SWAP1 POP DUP1 PUSH1 0x0 ADD DUP1 SLOAD PUSH2 0x1216 SWAP1 PUSH2 0x409A JUMP JUMPDEST DUP1 PUSH1 0x1F ADD PUSH1 0x20 DUP1 SWAP2 DIV MUL PUSH1 0x20 ADD PUSH1 0x40 MLOAD SWAP1 DUP2 ADD PUSH1 0x40 MSTORE DUP1 SWAP3 SWAP2 SWAP1 DUP2 DUP2 MSTORE PUSH1 0x20 ADD DUP3 DUP1 SLOAD PUSH2 0x1242 SWAP1 PUSH2 0x409A JUMP JUMPDEST DUP1 ISZERO PUSH2 0x128F JUMPI DUP1 PUSH1 0x1F LT PUSH2 0x1264 JUMPI PUSH2 0x100 DUP1 DUP4 SLOAD DIV MUL DUP4 MSTORE SWAP2 PUSH1 0x20 ADD SWAP2 PUSH2 0x128F JUMP JUMPDEST DUP3 ADD SWAP2 SWAP1 PUSH1 0x0 MSTORE PUSH1 0x20 PUSH1 0x0 KECCAK256 SWAP1 JUMPDEST DUP2 SLOAD DUP2 MSTORE SWAP1 PUSH1 0x1 ADD SWAP1 PUSH1 0x20 ADD DUP1 DUP4 GT PUSH2 0x1272 JUMPI DUP3 SWAP1 SUB PUSH1 0x1F AND DUP3 ADD SWAP2 JUMPDEST POP POP POP POP POP SWAP1 DUP1 PUSH1 0x1 ADD DUP1 SLOAD PUSH2 0x12A4 SWAP1 PUSH2 0x409A JUMP JUMPDEST DUP1 PUSH1 0x1F ADD PUSH1 0x20 DUP1 SWAP2 DIV MUL PUSH1 0x20 ADD PUSH1 0x40 MLOAD SWAP1 DUP2 ADD PUSH1 0x40 MSTORE DUP1 SWAP3 SWAP2 SWAP1 DUP2 DUP2 MSTORE PUSH1 0x20 ADD DUP3 DUP1 SLOAD PUSH2 0x12D0 SWAP1 PUSH2 0x409A JUMP JUMPDEST DUP1 ISZERO PUSH2 0x131D JUMPI DUP1 PUSH1 0x1F LT PUSH2 0x12F2 JUMPI PUSH2 0x100 DUP1 DUP4 SLOAD DIV MUL DUP4 MSTORE SWAP2 PUSH1 0x20 ADD SWAP2 PUSH2 0x131D JUMP JUMPDEST DUP3 ADD SWAP2 SWAP1 PUSH1 0x0 MSTORE PUSH1 0x20 PUSH1 0x0 KECCAK256 SWAP1 JUMPDEST DUP2 SLOAD DUP2 MSTORE SWAP1 PUSH1 0x1 ADD SWAP1 PUSH1 0x20 ADD DUP1 DUP4 GT PUSH2 0x1300 JUMPI DUP3 SWAP1 SUB PUSH1 0x1F AND DUP3 ADD SWAP2 JUMPDEST POP POP POP POP POP SWAP1 DUP1 PUSH1 0x2 ADD DUP1 SLOAD PUSH2 0x1332 SWAP1 PUSH2 0x409A JUMP JUMPDEST DUP1 PUSH1 0x1F ADD PUSH1 0x20 DUP1 SWAP2 DIV MUL PUSH1 0x20 ADD PUSH1 0x40 MLOAD SWAP1 DUP2 ADD PUSH1 0x40 MSTORE DUP1 SWAP3 SWAP2 SWAP1 DUP2 DUP2 MSTORE PUSH1 0x20 ADD DUP3 DUP1 SLOAD PUSH2 0x135E SWAP1 PUSH2 0x409A JUMP JUMPDEST DUP1 ISZERO PUSH2 0x13AB JUMPI DUP1 PUSH1 0x1F LT PUSH2 0x1380 JUMPI PUSH2 0x100 DUP1 DUP4 SLOAD DIV MUL DUP4 MSTORE SWAP2 PUSH1 0x20 ADD SWAP2 PUSH2 0x13AB JUMP JUMPDEST DUP3 ADD SWAP2 SWAP1 PUSH1 0x0 MSTORE PUSH1 0x20 PUSH1 0x0 KECCAK256 SWAP1 JUMPDEST DUP2 SLOAD DUP2 MSTORE SWAP1 PUSH1 0x1 ADD SWAP1 PUSH1 0x20 ADD DUP1 DUP4 GT PUSH2 0x138E JUMPI DUP3 SWAP1 SUB PUSH1 0x1F AND DUP3 ADD SWAP2 JUMPDEST POP POP POP POP POP SWAP1 POP DUP4 JUMP JUMPDEST PUSH1 0x60 PUSH1 0x0 PUSH1 0x2 SLOAD PUSH8 0xFFFFFFFFFFFFFFFF DUP2 GT ISZERO PUSH2 0x13D5 JUMPI PUSH2 0x13D4 PUSH2 0x35A3 JUMP JUMPDEST JUMPDEST PUSH1 0x40 MLOAD SWAP1 DUP1 DUP3 MSTORE DUP1 PUSH1 0x20 MUL PUSH1 0x20 ADD DUP3 ADD PUSH1 0x40 MSTORE DUP1 ISZERO PUSH2 0x1408 JUMPI DUP2 PUSH1 0x20 ADD JUMPDEST PUSH1 0x60 DUP2 MSTORE PUSH1 0x20 ADD SWAP1 PUSH1 0x1 SWAP1 SUB SWAP1 DUP2 PUSH2 0x13F3 JUMPI SWAP1 POP JUMPDEST POP SWAP1 POP PUSH1 0x0 JUMPDEST PUSH1 0x2 SLOAD DUP2 LT ISZERO PUSH2 0x14E8 JUMPI PUSH1 0xD PUSH1 0x0 DUP3 DUP2 MSTORE PUSH1 0x20 ADD SWAP1 DUP2 MSTORE PUSH1 0x20 ADD PUSH1 0x0 KECCAK256 PUSH1 0x1 ADD DUP1 SLOAD PUSH2 0x1439 SWAP1 PUSH2 0x409A JUMP JUMPDEST DUP1 PUSH1 0x1F ADD PUSH1 0x20 DUP1 SWAP2 DIV MUL PUSH1 0x20 ADD PUSH1 0x40 MLOAD SWAP1 DUP2 ADD PUSH1 0x40 MSTORE DUP1 SWAP3 SWAP2 SWAP1 DUP2 DUP2 MSTORE PUSH1 0x20 ADD DUP3 DUP1 SLOAD PUSH2 0x1465 SWAP1 PUSH2 0x409A JUMP JUMPDEST DUP1 ISZERO PUSH2 0x14B2 JUMPI DUP1 PUSH1 0x1F LT PUSH2 0x1487 JUMPI PUSH2 0x100 DUP1 DUP4 SLOAD DIV MUL DUP4 MSTORE SWAP2 PUSH1 0x20 ADD SWAP2 PUSH2 0x14B2 JUMP JUMPDEST DUP3 ADD SWAP2 SWAP1 PUSH1 0x0 MSTORE PUSH1 0x20 PUSH1 0x0 KECCAK256 SWAP1 JUMPDEST DUP2 SLOAD DUP2 MSTORE SWAP1 PUSH1 0x1 ADD SWAP1 PUSH1 0x20 ADD DUP1 DUP4 GT PUSH2 0x1495 JUMPI DUP3 SWAP1 SUB PUSH1 0x1F AND DUP3 ADD SWAP2 JUMPDEST POP POP POP POP POP DUP3 DUP3 DUP2 MLOAD DUP2 LT PUSH2 0x14CA JUMPI PUSH2 0x14C9 PUSH2 0x40CC JUMP JUMPDEST JUMPDEST PUSH1 0x20 MUL PUSH1 0x20 ADD ADD DUP2 SWAP1 MSTORE POP DUP1 DUP1 PUSH2 0x14E0 SWAP1 PUSH2 0x412A JUMP JUMPDEST SWAP2 POP POP PUSH2 0x140E JUMP JUMPDEST POP DUP1 SWAP2 POP POP SWAP1 JUMP JUMPDEST PUSH1 0xC PUSH1 0x20 MSTORE DUP1 PUSH1 0x0 MSTORE PUSH1 0x40 PUSH1 0x0 KECCAK256 PUSH1 0x0 SWAP2 POP SWAP1 POP DUP1 PUSH1 0x0 ADD SLOAD SWAP1 DUP1 PUSH1 0x1 ADD DUP1 SLOAD PUSH2 0x1519 SWAP1 PUSH2 0x409A JUMP JUMPDEST DUP1 PUSH1 0x1F ADD PUSH1 0x20 DUP1 SWAP2 DIV MUL PUSH1 0x20 ADD PUSH1 0x40 MLOAD SWAP1 DUP2 ADD PUSH1 0x40 MSTORE DUP1 SWAP3 SWAP2 SWAP1 DUP2 DUP2 MSTORE PUSH1 0x20 ADD DUP3 DUP1 SLOAD PUSH2 0x1545 SWAP1 PUSH2 0x409A JUMP JUMPDEST DUP1 ISZERO PUSH2 0x1592 JUMPI DUP1 PUSH1 0x1F LT PUSH2 0x1567 JUMPI PUSH2 0x100 DUP1 DUP4 SLOAD DIV MUL DUP4 MSTORE SWAP2 PUSH1 0x20 ADD SWAP2 PUSH2 0x1592 JUMP JUMPDEST DUP3 ADD SWAP2 SWAP1 PUSH1 0x0 MSTORE PUSH1 0x20 PUSH1 0x0 KECCAK256 SWAP1 JUMPDEST DUP2 SLOAD DUP2 MSTORE SWAP1 PUSH1 0x1 ADD SWAP1 PUSH1 0x20 ADD DUP1 DUP4 GT PUSH2 0x1575 JUMPI DUP3 SWAP1 SUB PUSH1 0x1F AND DUP3 ADD SWAP2 JUMPDEST POP POP POP POP POP SWAP1 POP DUP3 JUMP JUMPDEST PUSH1 0x0 PUSH1 0x1 PUSH1 0x16 DUP4 PUSH1 0x40 MLOAD PUSH2 0x15B0 SWAP2 SWAP1 PUSH2 0x41AF JUMP JUMPDEST SWAP1 DUP2 MSTORE PUSH1 0x20 ADD PUSH1 0x40 MLOAD DUP1 SWAP2 SUB SWAP1 KECCAK256 PUSH1 0x1 ADD PUSH1 0x6 PUSH2 0x100 EXP DUP2 SLOAD DUP2 PUSH1 0xFF MUL NOT AND SWAP1 DUP4 ISZERO ISZERO MUL OR SWAP1 SSTORE POP PUSH1 0x40 MLOAD DUP1 PUSH1 0x80 ADD PUSH1 0x40 MSTORE DUP1 PUSH1 0x7 SLOAD DUP2 MSTORE PUSH1 0x20 ADD DUP6 DUP2 MSTORE PUSH1 0x20 ADD DUP5 DUP2 MSTORE PUSH1 0x20 ADD DUP4 DUP2 MSTORE POP PUSH1 0x13 PUSH1 0x0 PUSH1 0x7 SLOAD DUP2 MSTORE PUSH1 0x20 ADD SWAP1 DUP2 MSTORE PUSH1 0x20 ADD PUSH1 0x0 KECCAK256 PUSH1 0x0 DUP3 ADD MLOAD DUP2 PUSH1 0x0 ADD SSTORE PUSH1 0x20 DUP3 ADD MLOAD DUP2 PUSH1 0x1 ADD SSTORE PUSH1 0x40 DUP3 ADD MLOAD DUP2 PUSH1 0x2 ADD SWAP1 DUP1 MLOAD SWAP1 PUSH1 0x20 ADD SWAP1 PUSH2 0x1640 SWAP3 SWAP2 SWAP1 PUSH2 0x3298 JUMP JUMPDEST POP PUSH1 0x60 DUP3 ADD MLOAD DUP2 PUSH1 0x3 ADD SWAP1 DUP1 MLOAD SWAP1 PUSH1 0x20 ADD SWAP1 PUSH2 0x165D SWAP3 SWAP2 SWAP1 PUSH2 0x3298 JUMP JUMPDEST POP SWAP1 POP POP PUSH1 0x7 PUSH1 0x0 DUP2 SLOAD DUP1 SWAP3 SWAP2 SWAP1 PUSH2 0x1674 SWAP1 PUSH2 0x412A JUMP JUMPDEST SWAP2 SWAP1 POP SSTORE POP PUSH1 0x7 SLOAD SWAP1 POP SWAP4 SWAP3 POP POP POP JUMP JUMPDEST PUSH1 0x15 PUSH1 0x20 MSTORE DUP1 PUSH1 0x0 MSTORE PUSH1 0x40 PUSH1 0x0 KECCAK256 PUSH1 0x0 SWAP2 POP SWAP1 POP DUP1 PUSH1 0x0 ADD SLOAD SWAP1 DUP1 PUSH1 0x1 ADD SLOAD SWAP1 DUP1 PUSH1 0x2 ADD SLOAD SWAP1 DUP1 PUSH1 0x3 ADD DUP1 SLOAD PUSH2 0x16BA SWAP1 PUSH2 0x409A JUMP JUMPDEST DUP1 PUSH1 0x1F ADD PUSH1 0x20 DUP1 SWAP2 DIV MUL PUSH1 0x20 ADD PUSH1 0x40 MLOAD SWAP1 DUP2 ADD PUSH1 0x40 MSTORE DUP1 SWAP3 SWAP2 SWAP1 DUP2 DUP2 MSTORE PUSH1 0x20 ADD DUP3 DUP1 SLOAD PUSH2 0x16E6 SWAP1 PUSH2 0x409A JUMP JUMPDEST DUP1 ISZERO PUSH2 0x1733 JUMPI DUP1 PUSH1 0x1F LT PUSH2 0x1708 JUMPI PUSH2 0x100 DUP1 DUP4 SLOAD DIV MUL DUP4 MSTORE SWAP2 PUSH1 0x20 ADD SWAP2 PUSH2 0x1733 JUMP JUMPDEST DUP3 ADD SWAP2 SWAP1 PUSH1 0x0 MSTORE PUSH1 0x20 PUSH1 0x0 KECCAK256 SWAP1 JUMPDEST DUP2 SLOAD DUP2 MSTORE SWAP1 PUSH1 0x1 ADD SWAP1 PUSH1 0x20 ADD DUP1 DUP4 GT PUSH2 0x1716 JUMPI DUP3 SWAP1 SUB PUSH1 0x1F AND DUP3 ADD SWAP2 JUMPDEST POP POP POP POP POP SWAP1 POP DUP5 JUMP JUMPDEST PUSH1 0xE PUSH1 0x20 MSTORE DUP1 PUSH1 0x0 MSTORE PUSH1 0x40 PUSH1 0x0 KECCAK256 PUSH1 0x0 SWAP2 POP SWAP1 POP DUP1 PUSH1 0x0 ADD SLOAD SWAP1 DUP1 PUSH1 0x1 ADD DUP1 SLOAD PUSH2 0x1766 SWAP1 PUSH2 0x409A JUMP JUMPDEST DUP1 PUSH1 0x1F ADD PUSH1 0x20 DUP1 SWAP2 DIV MUL PUSH1 0x20 ADD PUSH1 0x40 MLOAD SWAP1 DUP2 ADD PUSH1 0x40 MSTORE DUP1 SWAP3 SWAP2 SWAP1 DUP2 DUP2 MSTORE PUSH1 0x20 ADD DUP3 DUP1 SLOAD PUSH2 0x1792 SWAP1 PUSH2 0x409A JUMP JUMPDEST DUP1 ISZERO PUSH2 0x17DF JUMPI DUP1 PUSH1 0x1F LT PUSH2 0x17B4 JUMPI PUSH2 0x100 DUP1 DUP4 SLOAD DIV MUL DUP4 MSTORE SWAP2 PUSH1 0x20 ADD SWAP2 PUSH2 0x17DF JUMP JUMPDEST DUP3 ADD SWAP2 SWAP1 PUSH1 0x0 MSTORE PUSH1 0x20 PUSH1 0x0 KECCAK256 SWAP1 JUMPDEST DUP2 SLOAD DUP2 MSTORE SWAP1 PUSH1 0x1 ADD SWAP1 PUSH1 0x20 ADD DUP1 DUP4 GT PUSH2 0x17C2 JUMPI DUP3 SWAP1 SUB PUSH1 0x1F AND DUP3 ADD SWAP2 JUMPDEST POP POP POP POP POP SWAP1 DUP1 PUSH1 0x2 ADD SLOAD SWAP1 POP DUP4 JUMP JUMPDEST PUSH1 0x0 PUSH1 0x1 PUSH1 0x16 DUP4 PUSH1 0x40 MLOAD PUSH2 0x1803 SWAP2 SWAP1 PUSH2 0x41AF JUMP JUMPDEST SWAP1 DUP2 MSTORE PUSH1 0x20 ADD PUSH1 0x40 MLOAD DUP1 SWAP2 SUB SWAP1 KECCAK256 PUSH1 0x1 ADD PUSH1 0x7 PUSH2 0x100 EXP DUP2 SLOAD DUP2 PUSH1 0xFF MUL NOT AND SWAP1 DUP4 ISZERO ISZERO MUL OR SWAP1 SSTORE POP PUSH1 0x40 MLOAD DUP1 PUSH1 0x80 ADD PUSH1 0x40 MSTORE DUP1 PUSH1 0x9 SLOAD DUP2 MSTORE PUSH1 0x20 ADD DUP7 DUP2 MSTORE PUSH1 0x20 ADD DUP5 DUP2 MSTORE PUSH1 0x20 ADD DUP6 DUP2 MSTORE POP PUSH1 0x15 PUSH1 0x0 PUSH1 0x9 SLOAD DUP2 MSTORE PUSH1 0x20 ADD SWAP1 DUP2 MSTORE PUSH1 0x20 ADD PUSH1 0x0 KECCAK256 PUSH1 0x0 DUP3 ADD MLOAD DUP2 PUSH1 0x0 ADD SSTORE PUSH1 0x20 DUP3 ADD MLOAD DUP2 PUSH1 0x1 ADD SSTORE PUSH1 0x40 DUP3 ADD MLOAD DUP2 PUSH1 0x2 ADD SSTORE PUSH1 0x60 DUP3 ADD MLOAD DUP2 PUSH1 0x3 ADD SWAP1 DUP1 MLOAD SWAP1 PUSH1 0x20 ADD SWAP1 PUSH2 0x189D SWAP3 SWAP2 SWAP1 PUSH2 0x3298 JUMP JUMPDEST POP SWAP1 POP POP PUSH1 0x9 PUSH1 0x0 DUP2 SLOAD DUP1 SWAP3 SWAP2 SWAP1 PUSH2 0x18B4 SWAP1 PUSH2 0x412A JUMP JUMPDEST SWAP2 SWAP1 POP SSTORE POP PUSH1 0x9 SLOAD SWAP1 POP SWAP5 SWAP4 POP POP POP POP JUMP JUMPDEST PUSH1 0x6 SLOAD DUP2 JUMP JUMPDEST PUSH1 0x60 PUSH1 0x0 PUSH1 0x6 SLOAD PUSH8 0xFFFFFFFFFFFFFFFF DUP2 GT ISZERO PUSH2 0x18EC JUMPI PUSH2 0x18EB PUSH2 0x35A3 JUMP JUMPDEST JUMPDEST PUSH1 0x40 MLOAD SWAP1 DUP1 DUP3 MSTORE DUP1 PUSH1 0x20 MUL PUSH1 0x20 ADD DUP3 ADD PUSH1 0x40 MSTORE DUP1 ISZERO PUSH2 0x191F JUMPI DUP2 PUSH1 0x20 ADD JUMPDEST PUSH1 0x60 DUP2 MSTORE PUSH1 0x20 ADD SWAP1 PUSH1 0x1 SWAP1 SUB SWAP1 DUP2 PUSH2 0x190A JUMPI SWAP1 POP JUMPDEST POP SWAP1 POP PUSH1 0x0 DUP1 PUSH1 0x0 SWAP1 POP JUMPDEST PUSH1 0x6 SLOAD DUP2 LT ISZERO PUSH2 0x1A52 JUMPI DUP6 PUSH1 0x12 PUSH1 0x0 DUP4 DUP2 MSTORE PUSH1 0x20 ADD SWAP1 DUP2 MSTORE PUSH1 0x20 ADD PUSH1 0x0 KECCAK256 PUSH1 0x0 ADD SLOAD EQ DUP1 ISZERO PUSH2 0x196E JUMPI POP DUP5 PUSH1 0x12 PUSH1 0x0 DUP4 DUP2 MSTORE PUSH1 0x20 ADD SWAP1 DUP2 MSTORE PUSH1 0x20 ADD PUSH1 0x0 KECCAK256 PUSH1 0x1 ADD SLOAD EQ JUMPDEST ISZERO PUSH2 0x1A31 JUMPI PUSH1 0x12 PUSH1 0x0 DUP3 DUP2 MSTORE PUSH1 0x20 ADD SWAP1 DUP2 MSTORE PUSH1 0x20 ADD PUSH1 0x0 KECCAK256 PUSH1 0x2 ADD DUP1 SLOAD PUSH2 0x1994 SWAP1 PUSH2 0x409A JUMP JUMPDEST DUP1 PUSH1 0x1F ADD PUSH1 0x20 DUP1 SWAP2 DIV MUL PUSH1 0x20 ADD PUSH1 0x40 MLOAD SWAP1 DUP2 ADD PUSH1 0x40 MSTORE DUP1 SWAP3 SWAP2 SWAP1 DUP2 DUP2 MSTORE PUSH1 0x20 ADD DUP3 DUP1 SLOAD PUSH2 0x19C0 SWAP1 PUSH2 0x409A JUMP JUMPDEST DUP1 ISZERO PUSH2 0x1A0D JUMPI DUP1 PUSH1 0x1F LT PUSH2 0x19E2 JUMPI PUSH2 0x100 DUP1 DUP4 SLOAD DIV MUL DUP4 MSTORE SWAP2 PUSH1 0x20 ADD SWAP2 PUSH2 0x1A0D JUMP JUMPDEST DUP3 ADD SWAP2 SWAP1 PUSH1 0x0 MSTORE PUSH1 0x20 PUSH1 0x0 KECCAK256 SWAP1 JUMPDEST DUP2 SLOAD DUP2 MSTORE SWAP1 PUSH1 0x1 ADD SWAP1 PUSH1 0x20 ADD DUP1 DUP4 GT PUSH2 0x19F0 JUMPI DUP3 SWAP1 SUB PUSH1 0x1F AND DUP3 ADD SWAP2 JUMPDEST POP POP POP POP POP DUP4 DUP4 DUP2 MLOAD DUP2 LT PUSH2 0x1A25 JUMPI PUSH2 0x1A24 PUSH2 0x40CC JUMP JUMPDEST JUMPDEST PUSH1 0x20 MUL PUSH1 0x20 ADD ADD DUP2 SWAP1 MSTORE POP JUMPDEST DUP2 DUP1 PUSH2 0x1A3C SWAP1 PUSH2 0x412A JUMP JUMPDEST SWAP3 POP POP DUP1 DUP1 PUSH2 0x1A4A SWAP1 PUSH2 0x412A JUMP JUMPDEST SWAP2 POP POP PUSH2 0x192A JUMP JUMPDEST POP DUP2 SWAP3 POP POP POP SWAP3 SWAP2 POP POP JUMP JUMPDEST PUSH1 0x1 PUSH1 0x16 DUP3 PUSH1 0x40 MLOAD PUSH2 0x1A70 SWAP2 SWAP1 PUSH2 0x41AF JUMP JUMPDEST SWAP1 DUP2 MSTORE PUSH1 0x20 ADD PUSH1 0x40 MLOAD DUP1 SWAP2 SUB SWAP1 KECCAK256 PUSH1 0x1 ADD PUSH1 0x1 PUSH2 0x100 EXP DUP2 SLOAD DUP2 PUSH1 0xFF MUL NOT AND SWAP1 DUP4 ISZERO ISZERO MUL OR SWAP1 SSTORE POP PUSH1 0x40 MLOAD DUP1 PUSH1 0x40 ADD PUSH1 0x40 MSTORE DUP1 DUP4 DUP2 MSTORE PUSH1 0x20 ADD DUP3 DUP2 MSTORE POP PUSH1 0xC PUSH1 0x0 PUSH1 0x4 SLOAD DUP2 MSTORE PUSH1 0x20 ADD SWAP1 DUP2 MSTORE PUSH1 0x20 ADD PUSH1 0x0 KECCAK256 PUSH1 0x0 DUP3 ADD MLOAD DUP2 PUSH1 0x0 ADD SSTORE PUSH1 0x20 DUP3 ADD MLOAD DUP2 PUSH1 0x1 ADD SWAP1 DUP1 MLOAD SWAP1 PUSH1 0x20 ADD SWAP1 PUSH2 0x1AE8 SWAP3 SWAP2 SWAP1 PUSH2 0x3298 JUMP JUMPDEST POP SWAP1 POP POP PUSH1 0x4 PUSH1 0x0 DUP2 SLOAD DUP1 SWAP3 SWAP2 SWAP1 PUSH2 0x1AFF SWAP1 PUSH2 0x412A JUMP JUMPDEST SWAP2 SWAP1 POP SSTORE POP POP POP JUMP JUMPDEST PUSH1 0x60 PUSH1 0xA PUSH1 0x0 DUP4 DUP2 MSTORE PUSH1 0x20 ADD SWAP1 DUP2 MSTORE PUSH1 0x20 ADD PUSH1 0x0 KECCAK256 PUSH1 0x1 ADD DUP1 SLOAD PUSH2 0x1B2B SWAP1 PUSH2 0x409A JUMP JUMPDEST DUP1 PUSH1 0x1F ADD PUSH1 0x20 DUP1 SWAP2 DIV MUL PUSH1 0x20 ADD PUSH1 0x40 MLOAD SWAP1 DUP2 ADD PUSH1 0x40 MSTORE DUP1 SWAP3 SWAP2 SWAP1 DUP2 DUP2 MSTORE PUSH1 0x20 ADD DUP3 DUP1 SLOAD PUSH2 0x1B57 SWAP1 PUSH2 0x409A JUMP JUMPDEST DUP1 ISZERO PUSH2 0x1BA4 JUMPI DUP1 PUSH1 0x1F LT PUSH2 0x1B79 JUMPI PUSH2 0x100 DUP1 DUP4 SLOAD DIV MUL DUP4 MSTORE SWAP2 PUSH1 0x20 ADD SWAP2 PUSH2 0x1BA4 JUMP JUMPDEST DUP3 ADD SWAP2 SWAP1 PUSH1 0x0 MSTORE PUSH1 0x20 PUSH1 0x0 KECCAK256 SWAP1 JUMPDEST DUP2 SLOAD DUP2 MSTORE SWAP1 PUSH1 0x1 ADD SWAP1 PUSH1 0x20 ADD DUP1 DUP4 GT PUSH2 0x1B87 JUMPI DUP3 SWAP1 SUB PUSH1 0x1F AND DUP3 ADD SWAP2 JUMPDEST POP POP POP POP POP SWAP1 POP SWAP2 SWAP1 POP JUMP JUMPDEST PUSH1 0xB PUSH1 0x20 MSTORE DUP1 PUSH1 0x0 MSTORE PUSH1 0x40 PUSH1 0x0 KECCAK256 PUSH1 0x0 SWAP2 POP SWAP1 POP DUP1 SLOAD PUSH2 0x1BCF SWAP1 PUSH2 0x409A JUMP JUMPDEST DUP1 PUSH1 0x1F ADD PUSH1 0x20 DUP1 SWAP2 DIV MUL PUSH1 0x20 ADD PUSH1 0x40 MLOAD SWAP1 DUP2 ADD PUSH1 0x40 MSTORE DUP1 SWAP3 SWAP2 SWAP1 DUP2 DUP2 MSTORE PUSH1 0x20 ADD DUP3 DUP1 SLOAD PUSH2 0x1BFB SWAP1 PUSH2 0x409A JUMP JUMPDEST DUP1 ISZERO PUSH2 0x1C48 JUMPI DUP1 PUSH1 0x1F LT PUSH2 0x1C1D JUMPI PUSH2 0x100 DUP1 DUP4 SLOAD DIV MUL DUP4 MSTORE SWAP2 PUSH1 0x20 ADD SWAP2 PUSH2 0x1C48 JUMP JUMPDEST DUP3 ADD SWAP2 SWAP1 PUSH1 0x0 MSTORE PUSH1 0x20 PUSH1 0x0 KECCAK256 SWAP1 JUMPDEST DUP2 SLOAD DUP2 MSTORE SWAP1 PUSH1 0x1 ADD SWAP1 PUSH1 0x20 ADD DUP1 DUP4 GT PUSH2 0x1C2B JUMPI DUP3 SWAP1 SUB PUSH1 0x1F AND DUP3 ADD SWAP2 JUMPDEST POP POP POP POP POP DUP2 JUMP JUMPDEST PUSH1 0xF DUP2 DUP1 MLOAD PUSH1 0x20 DUP2 ADD DUP3 ADD DUP1 MLOAD DUP5 DUP3 MSTORE PUSH1 0x20 DUP4 ADD PUSH1 0x20 DUP6 ADD KECCAK256 DUP2 DUP4 MSTORE DUP1 SWAP6 POP POP POP POP POP POP PUSH1 0x0 SWAP2 POP SWAP1 POP SLOAD DUP2 JUMP JUMPDEST PUSH1 0x0 PUSH1 0x40 MLOAD DUP1 PUSH1 0x40 ADD PUSH1 0x40 MSTORE DUP1 DUP5 DUP2 MSTORE PUSH1 0x20 ADD DUP6 DUP2 MSTORE POP PUSH1 0xD PUSH1 0x0 PUSH1 0x2 SLOAD DUP2 MSTORE PUSH1 0x20 ADD SWAP1 DUP2 MSTORE PUSH1 0x20 ADD PUSH1 0x0 KECCAK256 PUSH1 0x0 DUP3 ADD MLOAD DUP2 PUSH1 0x0 ADD SSTORE PUSH1 0x20 DUP3 ADD MLOAD DUP2 PUSH1 0x1 ADD SWAP1 DUP1 MLOAD SWAP1 PUSH1 0x20 ADD SWAP1 PUSH2 0x1CD0 SWAP3 SWAP2 SWAP1 PUSH2 0x3298 JUMP JUMPDEST POP SWAP1 POP POP PUSH1 0x1 PUSH1 0x16 DUP4 PUSH1 0x40 MLOAD PUSH2 0x1CE6 SWAP2 SWAP1 PUSH2 0x41AF JUMP JUMPDEST SWAP1 DUP2 MSTORE PUSH1 0x20 ADD PUSH1 0x40 MLOAD DUP1 SWAP2 SUB SWAP1 KECCAK256 PUSH1 0x1 ADD PUSH1 0x2 PUSH2 0x100 EXP DUP2 SLOAD DUP2 PUSH1 0xFF MUL NOT AND SWAP1 DUP4 ISZERO ISZERO MUL OR SWAP1 SSTORE POP PUSH1 0x2 PUSH1 0x0 DUP2 SLOAD DUP1 SWAP3 SWAP2 SWAP1 PUSH2 0x1D21 SWAP1 PUSH2 0x412A JUMP JUMPDEST SWAP2 SWAP1 POP SSTORE POP PUSH1 0x2 SLOAD SWAP1 POP SWAP4 SWAP3 POP POP POP JUMP JUMPDEST PUSH1 0x0 SLOAD DUP2 JUMP JUMPDEST PUSH1 0xD PUSH1 0x20 MSTORE DUP1 PUSH1 0x0 MSTORE PUSH1 0x40 PUSH1 0x0 KECCAK256 PUSH1 0x0 SWAP2 POP SWAP1 POP DUP1 PUSH1 0x0 ADD SLOAD SWAP1 DUP1 PUSH1 0x1 ADD DUP1 SLOAD PUSH2 0x1D61 SWAP1 PUSH2 0x409A JUMP JUMPDEST DUP1 PUSH1 0x1F ADD PUSH1 0x20 DUP1 SWAP2 DIV MUL PUSH1 0x20 ADD PUSH1 0x40 MLOAD SWAP1 DUP2 ADD PUSH1 0x40 MSTORE DUP1 SWAP3 SWAP2 SWAP1 DUP2 DUP2 MSTORE PUSH1 0x20 ADD DUP3 DUP1 SLOAD PUSH2 0x1D8D SWAP1 PUSH2 0x409A JUMP JUMPDEST DUP1 ISZERO PUSH2 0x1DDA JUMPI DUP1 PUSH1 0x1F LT PUSH2 0x1DAF JUMPI PUSH2 0x100 DUP1 DUP4 SLOAD DIV MUL DUP4 MSTORE SWAP2 PUSH1 0x20 ADD SWAP2 PUSH2 0x1DDA JUMP JUMPDEST DUP3 ADD SWAP2 SWAP1 PUSH1 0x0 MSTORE PUSH1 0x20 PUSH1 0x0 KECCAK256 SWAP1 JUMPDEST DUP2 SLOAD DUP2 MSTORE SWAP1 PUSH1 0x1 ADD SWAP1 PUSH1 0x20 ADD DUP1 DUP4 GT PUSH2 0x1DBD JUMPI DUP3 SWAP1 SUB PUSH1 0x1F AND DUP3 ADD SWAP2 JUMPDEST POP POP POP POP POP SWAP1 POP DUP3 JUMP JUMPDEST PUSH1 0x10 PUSH1 0x20 MSTORE DUP1 PUSH1 0x0 MSTORE PUSH1 0x40 PUSH1 0x0 KECCAK256 PUSH1 0x0 SWAP2 POP SWAP1 POP DUP1 PUSH1 0x0 ADD SLOAD SWAP1 DUP1 PUSH1 0x1 ADD DUP1 SLOAD PUSH2 0x1E0D SWAP1 PUSH2 0x409A JUMP JUMPDEST DUP1 PUSH1 0x1F ADD PUSH1 0x20 DUP1 SWAP2 DIV MUL PUSH1 0x20 ADD PUSH1 0x40 MLOAD SWAP1 DUP2 ADD PUSH1 0x40 MSTORE DUP1 SWAP3 SWAP2 SWAP1 DUP2 DUP2 MSTORE PUSH1 0x20 ADD DUP3 DUP1 SLOAD PUSH2 0x1E39 SWAP1 PUSH2 0x409A JUMP JUMPDEST DUP1 ISZERO PUSH2 0x1E86 JUMPI DUP1 PUSH1 0x1F LT PUSH2 0x1E5B JUMPI PUSH2 0x100 DUP1 DUP4 SLOAD DIV MUL DUP4 MSTORE SWAP2 PUSH1 0x20 ADD SWAP2 PUSH2 0x1E86 JUMP JUMPDEST DUP3 ADD SWAP2 SWAP1 PUSH1 0x0 MSTORE PUSH1 0x20 PUSH1 0x0 KECCAK256 SWAP1 JUMPDEST DUP2 SLOAD DUP2 MSTORE SWAP1 PUSH1 0x1 ADD SWAP1 PUSH1 0x20 ADD DUP1 DUP4 GT PUSH2 0x1E69 JUMPI DUP3 SWAP1 SUB PUSH1 0x1F AND DUP3 ADD SWAP2 JUMPDEST POP POP POP POP POP SWAP1 DUP1 PUSH1 0x2 ADD SLOAD SWAP1 POP DUP4 JUMP JUMPDEST PUSH1 0x60 PUSH1 0x0 PUSH1 0x7 SLOAD PUSH8 0xFFFFFFFFFFFFFFFF DUP2 GT ISZERO PUSH2 0x1EB6 JUMPI PUSH2 0x1EB5 PUSH2 0x35A3 JUMP JUMPDEST JUMPDEST PUSH1 0x40 MLOAD SWAP1 DUP1 DUP3 MSTORE DUP1 PUSH1 0x20 MUL PUSH1 0x20 ADD DUP3 ADD PUSH1 0x40 MSTORE DUP1 ISZERO PUSH2 0x1EE4 JUMPI DUP2 PUSH1 0x20 ADD PUSH1 0x20 DUP3 MUL DUP1 CALLDATASIZE DUP4 CALLDATACOPY DUP1 DUP3 ADD SWAP2 POP POP SWAP1 POP JUMPDEST POP SWAP1 POP PUSH1 0x0 DUP1 PUSH1 0x0 SWAP1 POP JUMPDEST PUSH1 0x7 SLOAD DUP2 LT ISZERO PUSH2 0x1F6F JUMPI DUP5 PUSH1 0x13 PUSH1 0x0 DUP4 DUP2 MSTORE PUSH1 0x20 ADD SWAP1 DUP2 MSTORE PUSH1 0x20 ADD PUSH1 0x0 KECCAK256 PUSH1 0x1 ADD SLOAD EQ ISZERO PUSH2 0x1F5C JUMPI PUSH1 0x13 PUSH1 0x0 DUP3 DUP2 MSTORE PUSH1 0x20 ADD SWAP1 DUP2 MSTORE PUSH1 0x20 ADD PUSH1 0x0 KECCAK256 PUSH1 0x0 ADD SLOAD DUP4 DUP4 DUP2 MLOAD DUP2 LT PUSH2 0x1F41 JUMPI PUSH2 0x1F40 PUSH2 0x40CC JUMP JUMPDEST JUMPDEST PUSH1 0x20 MUL PUSH1 0x20 ADD ADD DUP2 DUP2 MSTORE POP POP DUP2 DUP1 PUSH2 0x1F58 SWAP1 PUSH2 0x412A JUMP JUMPDEST SWAP3 POP POP JUMPDEST DUP1 DUP1 PUSH2 0x1F67 SWAP1 PUSH2 0x412A JUMP JUMPDEST SWAP2 POP POP PUSH2 0x1EEF JUMP JUMPDEST POP DUP2 SWAP3 POP POP POP SWAP2 SWAP1 POP JUMP JUMPDEST PUSH1 0x60 PUSH1 0x0 PUSH1 0x9 SLOAD PUSH8 0xFFFFFFFFFFFFFFFF DUP2 GT ISZERO PUSH2 0x1F9A JUMPI PUSH2 0x1F99 PUSH2 0x35A3 JUMP JUMPDEST JUMPDEST PUSH1 0x40 MLOAD SWAP1 DUP1 DUP3 MSTORE DUP1 PUSH1 0x20 MUL PUSH1 0x20 ADD DUP3 ADD PUSH1 0x40 MSTORE DUP1 ISZERO PUSH2 0x1FC8 JUMPI DUP2 PUSH1 0x20 ADD PUSH1 0x20 DUP3 MUL DUP1 CALLDATASIZE DUP4 CALLDATACOPY DUP1 DUP3 ADD SWAP2 POP POP SWAP1 POP JUMPDEST POP SWAP1 POP PUSH1 0x0 DUP1 PUSH1 0x0 SWAP1 POP JUMPDEST PUSH1 0x9 SLOAD DUP2 LT ISZERO PUSH2 0x2053 JUMPI DUP5 PUSH1 0x15 PUSH1 0x0 DUP4 DUP2 MSTORE PUSH1 0x20 ADD SWAP1 DUP2 MSTORE PUSH1 0x20 ADD PUSH1 0x0 KECCAK256 PUSH1 0x1 ADD SLOAD EQ ISZERO PUSH2 0x2040 JUMPI PUSH1 0x15 PUSH1 0x0 DUP3 DUP2 MSTORE PUSH1 0x20 ADD SWAP1 DUP2 MSTORE PUSH1 0x20 ADD PUSH1 0x0 KECCAK256 PUSH1 0x0 ADD SLOAD DUP4 DUP4 DUP2 MLOAD DUP2 LT PUSH2 0x2025 JUMPI PUSH2 0x2024 PUSH2 0x40CC JUMP JUMPDEST JUMPDEST PUSH1 0x20 MUL PUSH1 0x20 ADD ADD DUP2 DUP2 MSTORE POP POP DUP2 DUP1 PUSH2 0x203C SWAP1 PUSH2 0x412A JUMP JUMPDEST SWAP3 POP POP JUMPDEST DUP1 DUP1 PUSH2 0x204B SWAP1 PUSH2 0x412A JUMP JUMPDEST SWAP2 POP POP PUSH2 0x1FD3 JUMP JUMPDEST POP DUP2 SWAP3 POP POP POP SWAP2 SWAP1 POP JUMP JUMPDEST PUSH1 0x0 PUSH1 0x1 PUSH1 0x16 DUP4 PUSH1 0x40 MLOAD PUSH2 0x2072 SWAP2 SWAP1 PUSH2 0x41AF JUMP JUMPDEST SWAP1 DUP2 MSTORE PUSH1 0x20 ADD PUSH1 0x40 MLOAD DUP1 SWAP2 SUB SWAP1 KECCAK256 PUSH1 0x1 ADD PUSH1 0x4 PUSH2 0x100 EXP DUP2 SLOAD DUP2 PUSH1 0xFF MUL NOT AND SWAP1 DUP4 ISZERO ISZERO MUL OR SWAP1 SSTORE POP PUSH1 0x40 MLOAD DUP1 PUSH1 0x60 ADD PUSH1 0x40 MSTORE DUP1 DUP6 DUP2 MSTORE PUSH1 0x20 ADD DUP5 DUP2 MSTORE PUSH1 0x20 ADD DUP4 DUP2 MSTORE POP PUSH1 0x12 PUSH1 0x0 PUSH1 0x6 SLOAD DUP2 MSTORE PUSH1 0x20 ADD SWAP1 DUP2 MSTORE PUSH1 0x20 ADD PUSH1 0x0 KECCAK256 PUSH1 0x0 DUP3 ADD MLOAD DUP2 PUSH1 0x0 ADD SSTORE PUSH1 0x20 DUP3 ADD MLOAD DUP2 PUSH1 0x1 ADD SSTORE PUSH1 0x40 DUP3 ADD MLOAD DUP2 PUSH1 0x2 ADD SWAP1 DUP1 MLOAD SWAP1 PUSH1 0x20 ADD SWAP1 PUSH2 0x20FA SWAP3 SWAP2 SWAP1 PUSH2 0x3298 JUMP JUMPDEST POP SWAP1 POP POP PUSH1 0x6 PUSH1 0x0 DUP2 SLOAD DUP1 SWAP3 SWAP2 SWAP1 PUSH2 0x2111 SWAP1 PUSH2 0x412A JUMP JUMPDEST SWAP2 SWAP1 POP SSTORE POP PUSH1 0x6 SLOAD SWAP1 POP SWAP4 SWAP3 POP POP POP JUMP JUMPDEST DUP1 PUSH1 0xB PUSH1 0x0 DUP5 DUP2 MSTORE PUSH1 0x20 ADD SWAP1 DUP2 MSTORE PUSH1 0x20 ADD PUSH1 0x0 KECCAK256 SWAP1 DUP1 MLOAD SWAP1 PUSH1 0x20 ADD SWAP1 PUSH2 0x2149 SWAP3 SWAP2 SWAP1 PUSH2 0x3298 JUMP JUMPDEST POP POP POP JUMP JUMPDEST DUP2 PUSH1 0xA PUSH1 0x0 DUP6 DUP2 MSTORE PUSH1 0x20 ADD SWAP1 DUP2 MSTORE PUSH1 0x20 ADD PUSH1 0x0 KECCAK256 PUSH1 0x0 ADD SWAP1 DUP1 MLOAD SWAP1 PUSH1 0x20 ADD SWAP1 PUSH2 0x2178 SWAP3 SWAP2 SWAP1 PUSH2 0x3298 JUMP JUMPDEST POP DUP1 PUSH1 0xA PUSH1 0x0 DUP6 DUP2 MSTORE PUSH1 0x20 ADD SWAP1 DUP2 MSTORE PUSH1 0x20 ADD PUSH1 0x0 KECCAK256 PUSH1 0x1 ADD SWAP1 DUP1 MLOAD SWAP1 PUSH1 0x20 ADD SWAP1 PUSH2 0x21A3 SWAP3 SWAP2 SWAP1 PUSH2 0x3298 JUMP JUMPDEST POP POP POP POP JUMP JUMPDEST PUSH1 0x0 PUSH1 0x40 MLOAD DUP1 PUSH1 0x80 ADD PUSH1 0x40 MSTORE DUP1 DUP7 DUP2 MSTORE PUSH1 0x20 ADD DUP6 DUP2 MSTORE PUSH1 0x20 ADD DUP5 DUP2 MSTORE PUSH1 0x20 ADD DUP4 DUP2 MSTORE POP PUSH1 0x14 PUSH1 0x0 PUSH1 0x8 SLOAD DUP2 MSTORE PUSH1 0x20 ADD SWAP1 DUP2 MSTORE PUSH1 0x20 ADD PUSH1 0x0 KECCAK256 PUSH1 0x0 DUP3 ADD MLOAD DUP2 PUSH1 0x0 ADD SSTORE PUSH1 0x20 DUP3 ADD MLOAD DUP2 PUSH1 0x1 ADD SSTORE PUSH1 0x40 DUP3 ADD MLOAD DUP2 PUSH1 0x2 ADD SWAP1 DUP1 MLOAD SWAP1 PUSH1 0x20 ADD SWAP1 PUSH2 0x2211 SWAP3 SWAP2 SWAP1 PUSH2 0x3298 JUMP JUMPDEST POP PUSH1 0x60 DUP3 ADD MLOAD DUP2 PUSH1 0x3 ADD SWAP1 DUP1 MLOAD SWAP1 PUSH1 0x20 ADD SWAP1 PUSH2 0x222E SWAP3 SWAP2 SWAP1 PUSH2 0x3298 JUMP JUMPDEST POP SWAP1 POP POP PUSH1 0x8 PUSH1 0x0 DUP2 SLOAD DUP1 SWAP3 SWAP2 SWAP1 PUSH2 0x2245 SWAP1 PUSH2 0x412A JUMP JUMPDEST SWAP2 SWAP1 POP SSTORE POP PUSH1 0x8 SLOAD SWAP1 POP SWAP5 SWAP4 POP POP POP POP JUMP JUMPDEST PUSH1 0x60 PUSH1 0xE PUSH1 0x0 DUP4 DUP2 MSTORE PUSH1 0x20 ADD SWAP1 DUP2 MSTORE PUSH1 0x20 ADD PUSH1 0x0 KECCAK256 PUSH1 0x1 ADD DUP1 SLOAD PUSH2 0x227A SWAP1 PUSH2 0x409A JUMP JUMPDEST DUP1 PUSH1 0x1F ADD PUSH1 0x20 DUP1 SWAP2 DIV MUL PUSH1 0x20 ADD PUSH1 0x40 MLOAD SWAP1 DUP2 ADD PUSH1 0x40 MSTORE DUP1 SWAP3 SWAP2 SWAP1 DUP2 DUP2 MSTORE PUSH1 0x20 ADD DUP3 DUP1 SLOAD PUSH2 0x22A6 SWAP1 PUSH2 0x409A JUMP JUMPDEST DUP1 ISZERO PUSH2 0x22F3 JUMPI DUP1 PUSH1 0x1F LT PUSH2 0x22C8 JUMPI PUSH2 0x100 DUP1 DUP4 SLOAD DIV MUL DUP4 MSTORE SWAP2 PUSH1 0x20 ADD SWAP2 PUSH2 0x22F3 JUMP JUMPDEST DUP3 ADD SWAP2 SWAP1 PUSH1 0x0 MSTORE PUSH1 0x20 PUSH1 0x0 KECCAK256 SWAP1 JUMPDEST DUP2 SLOAD DUP2 MSTORE SWAP1 PUSH1 0x1 ADD SWAP1 PUSH1 0x20 ADD DUP1 DUP4 GT PUSH2 0x22D6 JUMPI DUP3 SWAP1 SUB PUSH1 0x1F AND DUP3 ADD SWAP2 JUMPDEST POP POP POP POP POP SWAP1 POP SWAP2 SWAP1 POP JUMP JUMPDEST PUSH1 0x7 SLOAD DUP2 JUMP JUMPDEST PUSH1 0x60 PUSH1 0x0 PUSH1 0x3 SLOAD PUSH8 0xFFFFFFFFFFFFFFFF DUP2 GT ISZERO PUSH2 0x2325 JUMPI PUSH2 0x2324 PUSH2 0x35A3 JUMP JUMPDEST JUMPDEST PUSH1 0x40 MLOAD SWAP1 DUP1 DUP3 MSTORE DUP1 PUSH1 0x20 MUL PUSH1 0x20 ADD DUP3 ADD PUSH1 0x40 MSTORE DUP1 ISZERO PUSH2 0x2358 JUMPI DUP2 PUSH1 0x20 ADD JUMPDEST PUSH1 0x60 DUP2 MSTORE PUSH1 0x20 ADD SWAP1 PUSH1 0x1 SWAP1 SUB SWAP1 DUP2 PUSH2 0x2343 JUMPI SWAP1 POP JUMPDEST POP SWAP1 POP PUSH1 0x0 JUMPDEST PUSH1 0x3 SLOAD DUP2 LT ISZERO PUSH2 0x2438 JUMPI PUSH1 0xE PUSH1 0x0 DUP3 DUP2 MSTORE PUSH1 0x20 ADD SWAP1 DUP2 MSTORE PUSH1 0x20 ADD PUSH1 0x0 KECCAK256 PUSH1 0x1 ADD DUP1 SLOAD PUSH2 0x2389 SWAP1 PUSH2 0x409A JUMP JUMPDEST DUP1 PUSH1 0x1F ADD PUSH1 0x20 DUP1 SWAP2 DIV MUL PUSH1 0x20 ADD PUSH1 0x40 MLOAD SWAP1 DUP2 ADD PUSH1 0x40 MSTORE DUP1 SWAP3 SWAP2 SWAP1 DUP2 DUP2 MSTORE PUSH1 0x20 ADD DUP3 DUP1 SLOAD PUSH2 0x23B5 SWAP1 PUSH2 0x409A JUMP JUMPDEST DUP1 ISZERO PUSH2 0x2402 JUMPI DUP1 PUSH1 0x1F LT PUSH2 0x23D7 JUMPI PUSH2 0x100 DUP1 DUP4 SLOAD DIV MUL DUP4 MSTORE SWAP2 PUSH1 0x20 ADD SWAP2 PUSH2 0x2402 JUMP JUMPDEST DUP3 ADD SWAP2 SWAP1 PUSH1 0x0 MSTORE PUSH1 0x20 PUSH1 0x0 KECCAK256 SWAP1 JUMPDEST DUP2 SLOAD DUP2 MSTORE SWAP1 PUSH1 0x1 ADD SWAP1 PUSH1 0x20 ADD DUP1 DUP4 GT PUSH2 0x23E5 JUMPI DUP3 SWAP1 SUB PUSH1 0x1F AND DUP3 ADD SWAP2 JUMPDEST POP POP POP POP POP DUP3 DUP3 DUP2 MLOAD DUP2 LT PUSH2 0x241A JUMPI PUSH2 0x2419 PUSH2 0x40CC JUMP JUMPDEST JUMPDEST PUSH1 0x20 MUL PUSH1 0x20 ADD ADD DUP2 SWAP1 MSTORE POP DUP1 DUP1 PUSH2 0x2430 SWAP1 PUSH2 0x412A JUMP JUMPDEST SWAP2 POP POP PUSH2 0x235E JUMP JUMPDEST POP DUP1 SWAP2 POP POP SWAP1 JUMP JUMPDEST PUSH1 0x16 DUP2 DUP1 MLOAD PUSH1 0x20 DUP2 ADD DUP3 ADD DUP1 MLOAD DUP5 DUP3 MSTORE PUSH1 0x20 DUP4 ADD PUSH1 0x20 DUP6 ADD KECCAK256 DUP2 DUP4 MSTORE DUP1 SWAP6 POP POP POP POP POP POP PUSH1 0x0 SWAP2 POP SWAP1 POP DUP1 PUSH1 0x0 ADD DUP1 SLOAD PUSH2 0x2479 SWAP1 PUSH2 0x409A JUMP JUMPDEST DUP1 PUSH1 0x1F ADD PUSH1 0x20 DUP1 SWAP2 DIV MUL PUSH1 0x20 ADD PUSH1 0x40 MLOAD SWAP1 DUP2 ADD PUSH1 0x40 MSTORE DUP1 SWAP3 SWAP2 SWAP1 DUP2 DUP2 MSTORE PUSH1 0x20 ADD DUP3 DUP1 SLOAD PUSH2 0x24A5 SWAP1 PUSH2 0x409A JUMP JUMPDEST DUP1 ISZERO PUSH2 0x24F2 JUMPI DUP1 PUSH1 0x1F LT PUSH2 0x24C7 JUMPI PUSH2 0x100 DUP1 DUP4 SLOAD DIV MUL DUP4 MSTORE SWAP2 PUSH1 0x20 ADD SWAP2 PUSH2 0x24F2 JUMP JUMPDEST DUP3 ADD SWAP2 SWAP1 PUSH1 0x0 MSTORE PUSH1 0x20 PUSH1 0x0 KECCAK256 SWAP1 JUMPDEST DUP2 SLOAD DUP2 MSTORE SWAP1 PUSH1 0x1 ADD SWAP1 PUSH1 0x20 ADD DUP1 DUP4 GT PUSH2 0x24D5 JUMPI DUP3 SWAP1 SUB PUSH1 0x1F AND DUP3 ADD SWAP2 JUMPDEST POP POP POP POP POP SWAP1 DUP1 PUSH1 0x1 ADD PUSH1 0x0 SWAP1 SLOAD SWAP1 PUSH2 0x100 EXP SWAP1 DIV PUSH1 0xFF AND SWAP1 DUP1 PUSH1 0x1 ADD PUSH1 0x1 SWAP1 SLOAD SWAP1 PUSH2 0x100 EXP SWAP1 DIV PUSH1 0xFF AND SWAP1 DUP1 PUSH1 0x1 ADD PUSH1 0x2 SWAP1 SLOAD SWAP1 PUSH2 0x100 EXP SWAP1 DIV PUSH1 0xFF AND SWAP1 DUP1 PUSH1 0x1 ADD PUSH1 0x3 SWAP1 SLOAD SWAP1 PUSH2 0x100 EXP SWAP1 DIV PUSH1 0xFF AND SWAP1 DUP1 PUSH1 0x1 ADD PUSH1 0x4 SWAP1 SLOAD SWAP1 PUSH2 0x100 EXP SWAP1 DIV PUSH1 0xFF AND SWAP1 DUP1 PUSH1 0x1 ADD PUSH1 0x5 SWAP1 SLOAD SWAP1 PUSH2 0x100 EXP SWAP1 DIV PUSH1 0xFF AND SWAP1 DUP1 PUSH1 0x1 ADD PUSH1 0x6 SWAP1 SLOAD SWAP1 PUSH2 0x100 EXP SWAP1 DIV PUSH1 0xFF AND SWAP1 DUP1 PUSH1 0x1 ADD PUSH1 0x7 SWAP1 SLOAD SWAP1 PUSH2 0x100 EXP SWAP1 DIV PUSH1 0xFF AND SWAP1 POP DUP10 JUMP JUMPDEST PUSH1 0x0 DUP1 PUSH1 0x0 SWAP1 POP JUMPDEST PUSH1 0x3 SLOAD DUP2 LT ISZERO PUSH2 0x25FB JUMPI DUP3 DUP1 MLOAD SWAP1 PUSH1 0x20 ADD KECCAK256 PUSH1 0xE PUSH1 0x0 DUP4 DUP2 MSTORE PUSH1 0x20 ADD SWAP1 DUP2 MSTORE PUSH1 0x20 ADD PUSH1 0x0 KECCAK256 PUSH1 0x1 ADD PUSH1 0x40 MLOAD PUSH2 0x25D1 SWAP2 SWAP1 PUSH2 0x4265 JUMP JUMPDEST PUSH1 0x40 MLOAD DUP1 SWAP2 SUB SWAP1 KECCAK256 EQ ISZERO PUSH2 0x25E8 JUMPI DUP1 SWAP2 POP POP PUSH2 0x2601 JUMP JUMPDEST DUP1 DUP1 PUSH2 0x25F3 SWAP1 PUSH2 0x412A JUMP JUMPDEST SWAP2 POP POP PUSH2 0x259C JUMP JUMPDEST POP PUSH1 0x0 SWAP1 POP JUMPDEST SWAP2 SWAP1 POP JUMP JUMPDEST PUSH1 0x9 SLOAD DUP2 JUMP JUMPDEST PUSH1 0x0 DUP1 PUSH1 0x0 SWAP1 POP JUMPDEST PUSH1 0x3 SLOAD DUP2 LT ISZERO PUSH2 0x2689 JUMPI DUP3 DUP1 MLOAD SWAP1 PUSH1 0x20 ADD KECCAK256 PUSH1 0xE PUSH1 0x0 DUP4 DUP2 MSTORE PUSH1 0x20 ADD SWAP1 DUP2 MSTORE PUSH1 0x20 ADD PUSH1 0x0 KECCAK256 PUSH1 0x1 ADD PUSH1 0x40 MLOAD PUSH2 0x2649 SWAP2 SWAP1 PUSH2 0x4265 JUMP JUMPDEST PUSH1 0x40 MLOAD DUP1 SWAP2 SUB SWAP1 KECCAK256 EQ ISZERO PUSH2 0x2676 JUMPI PUSH1 0xE PUSH1 0x0 DUP3 DUP2 MSTORE PUSH1 0x20 ADD SWAP1 DUP2 MSTORE PUSH1 0x20 ADD PUSH1 0x0 KECCAK256 PUSH1 0x0 ADD SLOAD SWAP2 POP POP PUSH2 0x268F JUMP JUMPDEST DUP1 DUP1 PUSH2 0x2681 SWAP1 PUSH2 0x412A JUMP JUMPDEST SWAP2 POP POP PUSH2 0x2614 JUMP JUMPDEST POP PUSH1 0x0 SWAP1 POP JUMPDEST SWAP2 SWAP1 POP JUMP JUMPDEST PUSH1 0x0 JUMPDEST PUSH1 0x0 SLOAD DUP2 LT ISZERO PUSH2 0x26FA JUMPI PUSH1 0xA PUSH1 0x0 DUP3 DUP2 MSTORE PUSH1 0x20 ADD SWAP1 DUP2 MSTORE PUSH1 0x20 ADD PUSH1 0x0 KECCAK256 PUSH1 0x0 DUP1 DUP3 ADD PUSH1 0x0 PUSH2 0x26C5 SWAP2 SWAP1 PUSH2 0x331E JUMP JUMPDEST PUSH1 0x1 DUP3 ADD PUSH1 0x0 PUSH2 0x26D5 SWAP2 SWAP1 PUSH2 0x331E JUMP JUMPDEST PUSH1 0x2 DUP3 ADD PUSH1 0x0 PUSH2 0x26E5 SWAP2 SWAP1 PUSH2 0x331E JUMP JUMPDEST POP POP DUP1 DUP1 PUSH2 0x26F2 SWAP1 PUSH2 0x412A JUMP JUMPDEST SWAP2 POP POP PUSH2 0x2697 JUMP JUMPDEST POP PUSH1 0x0 JUMPDEST PUSH1 0x2 SLOAD DUP2 LT ISZERO PUSH2 0x2749 JUMPI PUSH1 0xD PUSH1 0x0 DUP3 DUP2 MSTORE PUSH1 0x20 ADD SWAP1 DUP2 MSTORE PUSH1 0x20 ADD PUSH1 0x0 KECCAK256 PUSH1 0x0 DUP1 DUP3 ADD PUSH1 0x0 SWAP1 SSTORE PUSH1 0x1 DUP3 ADD PUSH1 0x0 PUSH2 0x2734 SWAP2 SWAP1 PUSH2 0x331E JUMP JUMPDEST POP POP DUP1 DUP1 PUSH2 0x2741 SWAP1 PUSH2 0x412A JUMP JUMPDEST SWAP2 POP POP PUSH2 0x26FE JUMP JUMPDEST POP PUSH1 0x0 JUMPDEST PUSH1 0x3 SLOAD DUP2 LT ISZERO PUSH2 0x27A0 JUMPI PUSH1 0xE PUSH1 0x0 DUP3 DUP2 MSTORE PUSH1 0x20 ADD SWAP1 DUP2 MSTORE PUSH1 0x20 ADD PUSH1 0x0 KECCAK256 PUSH1 0x0 DUP1 DUP3 ADD PUSH1 0x0 SWAP1 SSTORE PUSH1 0x1 DUP3 ADD PUSH1 0x0 PUSH2 0x2783 SWAP2 SWAP1 PUSH2 0x331E JUMP JUMPDEST PUSH1 0x2 DUP3 ADD PUSH1 0x0 SWAP1 SSTORE POP POP DUP1 DUP1 PUSH2 0x2798 SWAP1 PUSH2 0x412A JUMP JUMPDEST SWAP2 POP POP PUSH2 0x274D JUMP JUMPDEST POP PUSH1 0x0 JUMPDEST PUSH1 0x2 SLOAD DUP2 LT ISZERO PUSH2 0x27F7 JUMPI PUSH1 0x11 PUSH1 0x0 DUP3 DUP2 MSTORE PUSH1 0x20 ADD SWAP1 DUP2 MSTORE PUSH1 0x20 ADD PUSH1 0x0 KECCAK256 PUSH1 0x0 DUP1 DUP3 ADD PUSH1 0x0 SWAP1 SSTORE PUSH1 0x1 DUP3 ADD PUSH1 0x0 SWAP1 SSTORE PUSH1 0x2 DUP3 ADD PUSH1 0x0 PUSH2 0x27E2 SWAP2 SWAP1 PUSH2 0x331E JUMP JUMPDEST POP POP DUP1 DUP1 PUSH2 0x27EF SWAP1 PUSH2 0x412A JUMP JUMPDEST SWAP2 POP POP PUSH2 0x27A4 JUMP JUMPDEST POP PUSH1 0x0 JUMPDEST PUSH1 0x7 SLOAD DUP2 LT ISZERO PUSH2 0x285E JUMPI PUSH1 0x13 PUSH1 0x0 DUP3 DUP2 MSTORE PUSH1 0x20 ADD SWAP1 DUP2 MSTORE PUSH1 0x20 ADD PUSH1 0x0 KECCAK256 PUSH1 0x0 DUP1 DUP3 ADD PUSH1 0x0 SWAP1 SSTORE PUSH1 0x1 DUP3 ADD PUSH1 0x0 SWAP1 SSTORE PUSH1 0x2 DUP3 ADD PUSH1 0x0 PUSH2 0x2839 SWAP2 SWAP1 PUSH2 0x331E JUMP JUMPDEST PUSH1 0x3 DUP3 ADD PUSH1 0x0 PUSH2 0x2849 SWAP2 SWAP1 PUSH2 0x331E JUMP JUMPDEST POP POP DUP1 DUP1 PUSH2 0x2856 SWAP1 PUSH2 0x412A JUMP JUMPDEST SWAP2 POP POP PUSH2 0x27FB JUMP JUMPDEST POP PUSH1 0x0 JUMPDEST PUSH1 0x9 SLOAD DUP2 LT ISZERO PUSH2 0x28BD JUMPI PUSH1 0x15 PUSH1 0x0 DUP3 DUP2 MSTORE PUSH1 0x20 ADD SWAP1 DUP2 MSTORE PUSH1 0x20 ADD PUSH1 0x0 KECCAK256 PUSH1 0x0 DUP1 DUP3 ADD PUSH1 0x0 SWAP1 SSTORE PUSH1 0x1 DUP3 ADD PUSH1 0x0 SWAP1 SSTORE PUSH1 0x2 DUP3 ADD PUSH1 0x0 SWAP1 SSTORE PUSH1 0x3 DUP3 ADD PUSH1 0x0 PUSH2 0x28A8 SWAP2 SWAP1 PUSH2 0x331E JUMP JUMPDEST POP POP DUP1 DUP1 PUSH2 0x28B5 SWAP1 PUSH2 0x412A JUMP JUMPDEST SWAP2 POP POP PUSH2 0x2862 JUMP JUMPDEST POP PUSH1 0x0 JUMPDEST PUSH1 0x6 SLOAD DUP2 LT ISZERO PUSH2 0x2914 JUMPI PUSH1 0x12 PUSH1 0x0 DUP3 DUP2 MSTORE PUSH1 0x20 ADD SWAP1 DUP2 MSTORE PUSH1 0x20 ADD PUSH1 0x0 KECCAK256 PUSH1 0x0 DUP1 DUP3 ADD PUSH1 0x0 SWAP1 SSTORE PUSH1 0x1 DUP3 ADD PUSH1 0x0 SWAP1 SSTORE PUSH1 0x2 DUP3 ADD PUSH1 0x0 PUSH2 0x28FF SWAP2 SWAP1 PUSH2 0x331E JUMP JUMPDEST POP POP DUP1 DUP1 PUSH2 0x290C SWAP1 PUSH2 0x412A JUMP JUMPDEST SWAP2 POP POP PUSH2 0x28C1 JUMP JUMPDEST POP PUSH1 0x0 DUP1 DUP2 SWAP1 SSTORE POP PUSH1 0x0 PUSH1 0x2 DUP2 SWAP1 SSTORE POP PUSH1 0x0 PUSH1 0x3 DUP2 SWAP1 SSTORE POP PUSH1 0x0 PUSH1 0x7 DUP2 SWAP1 SSTORE POP PUSH1 0x0 PUSH1 0x9 DUP2 SWAP1 SSTORE POP PUSH1 0x0 PUSH1 0x6 DUP2 SWAP1 SSTORE POP JUMP JUMPDEST PUSH1 0x13 PUSH1 0x20 MSTORE DUP1 PUSH1 0x0 MSTORE PUSH1 0x40 PUSH1 0x0 KECCAK256 PUSH1 0x0 SWAP2 POP SWAP1 POP DUP1 PUSH1 0x0 ADD SLOAD SWAP1 DUP1 PUSH1 0x1 ADD SLOAD SWAP1 DUP1 PUSH1 0x2 ADD DUP1 SLOAD PUSH2 0x2975 SWAP1 PUSH2 0x409A JUMP JUMPDEST DUP1 PUSH1 0x1F ADD PUSH1 0x20 DUP1 SWAP2 DIV MUL PUSH1 0x20 ADD PUSH1 0x40 MLOAD SWAP1 DUP2 ADD PUSH1 0x40 MSTORE DUP1 SWAP3 SWAP2 SWAP1 DUP2 DUP2 MSTORE PUSH1 0x20 ADD DUP3 DUP1 SLOAD PUSH2 0x29A1 SWAP1 PUSH2 0x409A JUMP JUMPDEST DUP1 ISZERO PUSH2 0x29EE JUMPI DUP1 PUSH1 0x1F LT PUSH2 0x29C3 JUMPI PUSH2 0x100 DUP1 DUP4 SLOAD DIV MUL DUP4 MSTORE SWAP2 PUSH1 0x20 ADD SWAP2 PUSH2 0x29EE JUMP JUMPDEST DUP3 ADD SWAP2 SWAP1 PUSH1 0x0 MSTORE PUSH1 0x20 PUSH1 0x0 KECCAK256 SWAP1 JUMPDEST DUP2 SLOAD DUP2 MSTORE SWAP1 PUSH1 0x1 ADD SWAP1 PUSH1 0x20 ADD DUP1 DUP4 GT PUSH2 0x29D1 JUMPI DUP3 SWAP1 SUB PUSH1 0x1F AND DUP3 ADD SWAP2 JUMPDEST POP POP POP POP POP SWAP1 DUP1 PUSH1 0x3 ADD DUP1 SLOAD PUSH2 0x2A03 SWAP1 PUSH2 0x409A JUMP JUMPDEST DUP1 PUSH1 0x1F ADD PUSH1 0x20 DUP1 SWAP2 DIV MUL PUSH1 0x20 ADD PUSH1 0x40 MLOAD SWAP1 DUP2 ADD PUSH1 0x40 MSTORE DUP1 SWAP3 SWAP2 SWAP1 DUP2 DUP2 MSTORE PUSH1 0x20 ADD DUP3 DUP1 SLOAD PUSH2 0x2A2F SWAP1 PUSH2 0x409A JUMP JUMPDEST DUP1 ISZERO PUSH2 0x2A7C JUMPI DUP1 PUSH1 0x1F LT PUSH2 0x2A51 JUMPI PUSH2 0x100 DUP1 DUP4 SLOAD DIV MUL DUP4 MSTORE SWAP2 PUSH1 0x20 ADD SWAP2 PUSH2 0x2A7C JUMP JUMPDEST DUP3 ADD SWAP2 SWAP1 PUSH1 0x0 MSTORE PUSH1 0x20 PUSH1 0x0 KECCAK256 SWAP1 JUMPDEST DUP2 SLOAD DUP2 MSTORE SWAP1 PUSH1 0x1 ADD SWAP1 PUSH1 0x20 ADD DUP1 DUP4 GT PUSH2 0x2A5F JUMPI DUP3 SWAP1 SUB PUSH1 0x1F AND DUP3 ADD SWAP2 JUMPDEST POP POP POP POP POP SWAP1 POP DUP5 JUMP JUMPDEST DUP1 PUSH1 0xE PUSH1 0x0 DUP5 DUP2 MSTORE PUSH1 0x20 ADD SWAP1 DUP2 MSTORE PUSH1 0x20 ADD PUSH1 0x0 KECCAK256 PUSH1 0x1 ADD SWAP1 DUP1 MLOAD SWAP1 PUSH1 0x20 ADD SWAP1 PUSH2 0x2AB0 SWAP3 SWAP2 SWAP1 PUSH2 0x3298 JUMP JUMPDEST POP POP POP JUMP JUMPDEST PUSH1 0x60 PUSH1 0x0 DUP1 SLOAD PUSH8 0xFFFFFFFFFFFFFFFF DUP2 GT ISZERO PUSH2 0x2AD4 JUMPI PUSH2 0x2AD3 PUSH2 0x35A3 JUMP JUMPDEST JUMPDEST PUSH1 0x40 MLOAD SWAP1 DUP1 DUP3 MSTORE DUP1 PUSH1 0x20 MUL PUSH1 0x20 ADD DUP3 ADD PUSH1 0x40 MSTORE DUP1 ISZERO PUSH2 0x2B07 JUMPI DUP2 PUSH1 0x20 ADD JUMPDEST PUSH1 0x60 DUP2 MSTORE PUSH1 0x20 ADD SWAP1 PUSH1 0x1 SWAP1 SUB SWAP1 DUP2 PUSH2 0x2AF2 JUMPI SWAP1 POP JUMPDEST POP SWAP1 POP PUSH1 0x0 JUMPDEST PUSH1 0x0 SLOAD DUP2 LT ISZERO PUSH2 0x2BE7 JUMPI PUSH1 0xA PUSH1 0x0 DUP3 DUP2 MSTORE PUSH1 0x20 ADD SWAP1 DUP2 MSTORE PUSH1 0x20 ADD PUSH1 0x0 KECCAK256 PUSH1 0x1 ADD DUP1 SLOAD PUSH2 0x2B38 SWAP1 PUSH2 0x409A JUMP JUMPDEST DUP1 PUSH1 0x1F ADD PUSH1 0x20 DUP1 SWAP2 DIV MUL PUSH1 0x20 ADD PUSH1 0x40 MLOAD SWAP1 DUP2 ADD PUSH1 0x40 MSTORE DUP1 SWAP3 SWAP2 SWAP1 DUP2 DUP2 MSTORE PUSH1 0x20 ADD DUP3 DUP1 SLOAD PUSH2 0x2B64 SWAP1 PUSH2 0x409A JUMP JUMPDEST DUP1 ISZERO PUSH2 0x2BB1 JUMPI DUP1 PUSH1 0x1F LT PUSH2 0x2B86 JUMPI PUSH2 0x100 DUP1 DUP4 SLOAD DIV MUL DUP4 MSTORE SWAP2 PUSH1 0x20 ADD SWAP2 PUSH2 0x2BB1 JUMP JUMPDEST DUP3 ADD SWAP2 SWAP1 PUSH1 0x0 MSTORE PUSH1 0x20 PUSH1 0x0 KECCAK256 SWAP1 JUMPDEST DUP2 SLOAD DUP2 MSTORE SWAP1 PUSH1 0x1 ADD SWAP1 PUSH1 0x20 ADD DUP1 DUP4 GT PUSH2 0x2B94 JUMPI DUP3 SWAP1 SUB PUSH1 0x1F AND DUP3 ADD SWAP2 JUMPDEST POP POP POP POP POP DUP3 DUP3 DUP2 MLOAD DUP2 LT PUSH2 0x2BC9 JUMPI PUSH2 0x2BC8 PUSH2 0x40CC JUMP JUMPDEST JUMPDEST PUSH1 0x20 MUL PUSH1 0x20 ADD ADD DUP2 SWAP1 MSTORE POP DUP1 DUP1 PUSH2 0x2BDF SWAP1 PUSH2 0x412A JUMP JUMPDEST SWAP2 POP POP PUSH2 0x2B0D JUMP JUMPDEST POP DUP1 SWAP2 POP POP SWAP1 JUMP JUMPDEST DUP1 PUSH1 0xD PUSH1 0x0 DUP5 DUP2 MSTORE PUSH1 0x20 ADD SWAP1 DUP2 MSTORE PUSH1 0x20 ADD PUSH1 0x0 KECCAK256 PUSH1 0x1 ADD SWAP1 DUP1 MLOAD SWAP1 PUSH1 0x20 ADD SWAP1 PUSH2 0x2C19 SWAP3 SWAP2 SWAP1 PUSH2 0x3298 JUMP JUMPDEST POP POP POP JUMP JUMPDEST PUSH1 0x8 SLOAD DUP2 JUMP JUMPDEST PUSH1 0x14 PUSH1 0x20 MSTORE DUP1 PUSH1 0x0 MSTORE PUSH1 0x40 PUSH1 0x0 KECCAK256 PUSH1 0x0 SWAP2 POP SWAP1 POP DUP1 PUSH1 0x0 ADD SLOAD SWAP1 DUP1 PUSH1 0x1 ADD SLOAD SWAP1 DUP1 PUSH1 0x2 ADD DUP1 SLOAD PUSH2 0x2C53 SWAP1 PUSH2 0x409A JUMP JUMPDEST DUP1 PUSH1 0x1F ADD PUSH1 0x20 DUP1 SWAP2 DIV MUL PUSH1 0x20 ADD PUSH1 0x40 MLOAD SWAP1 DUP2 ADD PUSH1 0x40 MSTORE DUP1 SWAP3 SWAP2 SWAP1 DUP2 DUP2 MSTORE PUSH1 0x20 ADD DUP3 DUP1 SLOAD PUSH2 0x2C7F SWAP1 PUSH2 0x409A JUMP JUMPDEST DUP1 ISZERO PUSH2 0x2CCC JUMPI DUP1 PUSH1 0x1F LT PUSH2 0x2CA1 JUMPI PUSH2 0x100 DUP1 DUP4 SLOAD DIV MUL DUP4 MSTORE SWAP2 PUSH1 0x20 ADD SWAP2 PUSH2 0x2CCC JUMP JUMPDEST DUP3 ADD SWAP2 SWAP1 PUSH1 0x0 MSTORE PUSH1 0x20 PUSH1 0x0 KECCAK256 SWAP1 JUMPDEST DUP2 SLOAD DUP2 MSTORE SWAP1 PUSH1 0x1 ADD SWAP1 PUSH1 0x20 ADD DUP1 DUP4 GT PUSH2 0x2CAF JUMPI DUP3 SWAP1 SUB PUSH1 0x1F AND DUP3 ADD SWAP2 JUMPDEST POP POP POP POP POP SWAP1 DUP1 PUSH1 0x3 ADD DUP1 SLOAD PUSH2 0x2CE1 SWAP1 PUSH2 0x409A JUMP JUMPDEST DUP1 PUSH1 0x1F ADD PUSH1 0x20 DUP1 SWAP2 DIV MUL PUSH1 0x20 ADD PUSH1 0x40 MLOAD SWAP1 DUP2 ADD PUSH1 0x40 MSTORE DUP1 SWAP3 SWAP2 SWAP1 DUP2 DUP2 MSTORE PUSH1 0x20 ADD DUP3 DUP1 SLOAD PUSH2 0x2D0D SWAP1 PUSH2 0x409A JUMP JUMPDEST DUP1 ISZERO PUSH2 0x2D5A JUMPI DUP1 PUSH1 0x1F LT PUSH2 0x2D2F JUMPI PUSH2 0x100 DUP1 DUP4 SLOAD DIV MUL DUP4 MSTORE SWAP2 PUSH1 0x20 ADD SWAP2 PUSH2 0x2D5A JUMP JUMPDEST DUP3 ADD SWAP2 SWAP1 PUSH1 0x0 MSTORE PUSH1 0x20 PUSH1 0x0 KECCAK256 SWAP1 JUMPDEST DUP2 SLOAD DUP2 MSTORE SWAP1 PUSH1 0x1 ADD SWAP1 PUSH1 0x20 ADD DUP1 DUP4 GT PUSH2 0x2D3D JUMPI DUP3 SWAP1 SUB PUSH1 0x1F AND DUP3 ADD SWAP2 JUMPDEST POP POP POP POP POP SWAP1 POP DUP5 JUMP JUMPDEST PUSH1 0x0 DUP1 PUSH1 0x0 SWAP1 POP PUSH1 0x0 JUMPDEST PUSH1 0x8 SLOAD DUP2 LT ISZERO PUSH2 0x2DEA JUMPI DUP5 PUSH1 0x14 PUSH1 0x0 DUP4 DUP2 MSTORE PUSH1 0x20 ADD SWAP1 DUP2 MSTORE PUSH1 0x20 ADD PUSH1 0x0 KECCAK256 PUSH1 0x0 ADD SLOAD EQ DUP1 ISZERO PUSH2 0x2DCD JUMPI POP PUSH1 0x14 PUSH1 0x0 DUP3 DUP2 MSTORE PUSH1 0x20 ADD SWAP1 DUP2 MSTORE PUSH1 0x20 ADD PUSH1 0x0 KECCAK256 PUSH1 0x3 ADD PUSH1 0x40 MLOAD PUSH2 0x2DBB SWAP2 SWAP1 PUSH2 0x4265 JUMP JUMPDEST PUSH1 0x40 MLOAD DUP1 SWAP2 SUB SWAP1 KECCAK256 DUP5 DUP1 MLOAD SWAP1 PUSH1 0x20 ADD KECCAK256 EQ JUMPDEST ISZERO PUSH2 0x2DD7 JUMPI PUSH1 0x1 SWAP2 POP JUMPDEST DUP1 DUP1 PUSH2 0x2DE2 SWAP1 PUSH2 0x412A JUMP JUMPDEST SWAP2 POP POP PUSH2 0x2D6E JUMP JUMPDEST POP DUP1 SWAP2 POP POP SWAP3 SWAP2 POP POP JUMP JUMPDEST PUSH1 0x3 SLOAD DUP2 JUMP JUMPDEST PUSH1 0x60 PUSH1 0xD PUSH1 0x0 DUP4 DUP2 MSTORE PUSH1 0x20 ADD SWAP1 DUP2 MSTORE PUSH1 0x20 ADD PUSH1 0x0 KECCAK256 PUSH1 0x1 ADD DUP1 SLOAD PUSH2 0x2E1E SWAP1 PUSH2 0x409A JUMP JUMPDEST DUP1 PUSH1 0x1F ADD PUSH1 0x20 DUP1 SWAP2 DIV MUL PUSH1 0x20 ADD PUSH1 0x40 MLOAD SWAP1 DUP2 ADD PUSH1 0x40 MSTORE DUP1 SWAP3 SWAP2 SWAP1 DUP2 DUP2 MSTORE PUSH1 0x20 ADD DUP3 DUP1 SLOAD PUSH2 0x2E4A SWAP1 PUSH2 0x409A JUMP JUMPDEST DUP1 ISZERO PUSH2 0x2E97 JUMPI DUP1 PUSH1 0x1F LT PUSH2 0x2E6C JUMPI PUSH2 0x100 DUP1 DUP4 SLOAD DIV MUL DUP4 MSTORE SWAP2 PUSH1 0x20 ADD SWAP2 PUSH2 0x2E97 JUMP JUMPDEST DUP3 ADD SWAP2 SWAP1 PUSH1 0x0 MSTORE PUSH1 0x20 PUSH1 0x0 KECCAK256 SWAP1 JUMPDEST DUP2 SLOAD DUP2 MSTORE SWAP1 PUSH1 0x1 ADD SWAP1 PUSH1 0x20 ADD DUP1 DUP4 GT PUSH2 0x2E7A JUMPI DUP3 SWAP1 SUB PUSH1 0x1F AND DUP3 ADD SWAP2 JUMPDEST POP POP POP POP POP SWAP1 POP SWAP2 SWAP1 POP JUMP JUMPDEST PUSH1 0x1 PUSH1 0x16 DUP3 PUSH1 0x40 MLOAD PUSH2 0x2EB5 SWAP2 SWAP1 PUSH2 0x41AF JUMP JUMPDEST SWAP1 DUP2 MSTORE PUSH1 0x20 ADD PUSH1 0x40 MLOAD DUP1 SWAP2 SUB SWAP1 KECCAK256 PUSH1 0x1 ADD PUSH1 0x5 PUSH2 0x100 EXP DUP2 SLOAD DUP2 PUSH1 0xFF MUL NOT AND SWAP1 DUP4 ISZERO ISZERO MUL OR SWAP1 SSTORE POP DUP2 PUSH1 0xE PUSH1 0x0 DUP6 DUP2 MSTORE PUSH1 0x20 ADD SWAP1 DUP2 MSTORE PUSH1 0x20 ADD PUSH1 0x0 KECCAK256 PUSH1 0x2 ADD PUSH1 0x0 DUP3 DUP3 SLOAD PUSH2 0x2F03 SWAP2 SWAP1 PUSH2 0x427C JUMP JUMPDEST SWAP3 POP POP DUP2 SWAP1 SSTORE POP DUP2 PUSH1 0xF DUP3 PUSH1 0x40 MLOAD PUSH2 0x2F1B SWAP2 SWAP1 PUSH2 0x41AF JUMP JUMPDEST SWAP1 DUP2 MSTORE PUSH1 0x20 ADD PUSH1 0x40 MLOAD DUP1 SWAP2 SUB SWAP1 KECCAK256 PUSH1 0x0 DUP3 DUP3 SLOAD PUSH2 0x2F38 SWAP2 SWAP1 PUSH2 0x427C JUMP JUMPDEST SWAP3 POP POP DUP2 SWAP1 SSTORE POP PUSH1 0x40 MLOAD DUP1 PUSH1 0x60 ADD PUSH1 0x40 MSTORE DUP1 DUP5 DUP2 MSTORE PUSH1 0x20 ADD DUP3 DUP2 MSTORE PUSH1 0x20 ADD DUP4 DUP2 MSTORE POP PUSH1 0x10 PUSH1 0x0 PUSH1 0x1 SLOAD DUP2 MSTORE PUSH1 0x20 ADD SWAP1 DUP2 MSTORE PUSH1 0x20 ADD PUSH1 0x0 KECCAK256 PUSH1 0x0 DUP3 ADD MLOAD DUP2 PUSH1 0x0 ADD SSTORE PUSH1 0x20 DUP3 ADD MLOAD DUP2 PUSH1 0x1 ADD SWAP1 DUP1 MLOAD SWAP1 PUSH1 0x20 ADD SWAP1 PUSH2 0x2F95 SWAP3 SWAP2 SWAP1 PUSH2 0x3298 JUMP JUMPDEST POP PUSH1 0x40 DUP3 ADD MLOAD DUP2 PUSH1 0x2 ADD SSTORE SWAP1 POP POP PUSH1 0x1 PUSH1 0x0 DUP2 SLOAD DUP1 SWAP3 SWAP2 SWAP1 PUSH2 0x2FB6 SWAP1 PUSH2 0x412A JUMP JUMPDEST SWAP2 SWAP1 POP SSTORE POP POP POP POP JUMP JUMPDEST PUSH1 0x1 SLOAD DUP2 JUMP JUMPDEST PUSH1 0x0 PUSH1 0x40 MLOAD DUP1 PUSH1 0x60 ADD PUSH1 0x40 MSTORE DUP1 DUP6 DUP2 MSTORE PUSH1 0x20 ADD DUP5 DUP2 MSTORE PUSH1 0x20 ADD PUSH1 0x40 MLOAD DUP1 PUSH1 0x40 ADD PUSH1 0x40 MSTORE DUP1 PUSH1 0x5 DUP2 MSTORE PUSH1 0x20 ADD PUSH32 0x46616C7365000000000000000000000000000000000000000000000000000000 DUP2 MSTORE POP DUP2 MSTORE POP PUSH1 0xA PUSH1 0x0 DUP1 SLOAD DUP2 MSTORE PUSH1 0x20 ADD SWAP1 DUP2 MSTORE PUSH1 0x20 ADD PUSH1 0x0 KECCAK256 PUSH1 0x0 DUP3 ADD MLOAD DUP2 PUSH1 0x0 ADD SWAP1 DUP1 MLOAD SWAP1 PUSH1 0x20 ADD SWAP1 PUSH2 0x3048 SWAP3 SWAP2 SWAP1 PUSH2 0x3298 JUMP JUMPDEST POP PUSH1 0x20 DUP3 ADD MLOAD DUP2 PUSH1 0x1 ADD SWAP1 DUP1 MLOAD SWAP1 PUSH1 0x20 ADD SWAP1 PUSH2 0x3065 SWAP3 SWAP2 SWAP1 PUSH2 0x3298 JUMP JUMPDEST POP PUSH1 0x40 DUP3 ADD MLOAD DUP2 PUSH1 0x2 ADD SWAP1 DUP1 MLOAD SWAP1 PUSH1 0x20 ADD SWAP1 PUSH2 0x3082 SWAP3 SWAP2 SWAP1 PUSH2 0x3298 JUMP JUMPDEST POP SWAP1 POP POP DUP2 PUSH1 0xB PUSH1 0x0 DUP1 SLOAD DUP2 MSTORE PUSH1 0x20 ADD SWAP1 DUP2 MSTORE PUSH1 0x20 ADD PUSH1 0x0 KECCAK256 SWAP1 DUP1 MLOAD SWAP1 PUSH1 0x20 ADD SWAP1 PUSH2 0x30AE SWAP3 SWAP2 SWAP1 PUSH2 0x3298 JUMP JUMPDEST POP PUSH1 0x1 PUSH1 0x16 DUP6 PUSH1 0x40 MLOAD PUSH2 0x30C1 SWAP2 SWAP1 PUSH2 0x41AF JUMP JUMPDEST SWAP1 DUP2 MSTORE PUSH1 0x20 ADD PUSH1 0x40 MLOAD DUP1 SWAP2 SUB SWAP1 KECCAK256 PUSH1 0x1 ADD PUSH1 0x0 PUSH2 0x100 EXP DUP2 SLOAD DUP2 PUSH1 0xFF MUL NOT AND SWAP1 DUP4 ISZERO ISZERO MUL OR SWAP1 SSTORE POP PUSH1 0x0 DUP1 DUP2 SLOAD DUP1 SWAP3 SWAP2 SWAP1 PUSH2 0x30FB SWAP1 PUSH2 0x412A JUMP JUMPDEST SWAP2 SWAP1 POP SSTORE POP PUSH1 0x0 SLOAD SWAP1 POP SWAP4 SWAP3 POP POP POP JUMP JUMPDEST PUSH1 0x0 DUP1 PUSH1 0x0 SWAP1 POP JUMPDEST PUSH1 0x4 SLOAD DUP2 LT ISZERO PUSH2 0x3174 JUMPI DUP3 DUP1 MLOAD SWAP1 PUSH1 0x20 ADD KECCAK256 PUSH1 0xC PUSH1 0x0 DUP4 DUP2 MSTORE PUSH1 0x20 ADD SWAP1 DUP2 MSTORE PUSH1 0x20 ADD PUSH1 0x0 KECCAK256 PUSH1 0x1 ADD PUSH1 0x40 MLOAD PUSH2 0x3149 SWAP2 SWAP1 PUSH2 0x4265 JUMP JUMPDEST PUSH1 0x40 MLOAD DUP1 SWAP2 SUB SWAP1 KECCAK256 EQ ISZERO PUSH2 0x3161 JUMPI PUSH1 0x1 SWAP2 POP POP PUSH2 0x317A JUMP JUMPDEST DUP1 DUP1 PUSH2 0x316C SWAP1 PUSH2 0x412A JUMP JUMPDEST SWAP2 POP POP PUSH2 0x3114 JUMP JUMPDEST POP PUSH1 0x0 SWAP1 POP JUMPDEST SWAP2 SWAP1 POP JUMP JUMPDEST PUSH1 0x11 PUSH1 0x20 MSTORE DUP1 PUSH1 0x0 MSTORE PUSH1 0x40 PUSH1 0x0 KECCAK256 PUSH1 0x0 SWAP2 POP SWAP1 POP DUP1 PUSH1 0x0 ADD SLOAD SWAP1 DUP1 PUSH1 0x1 ADD SLOAD SWAP1 DUP1 PUSH1 0x2 ADD DUP1 SLOAD PUSH2 0x31AE SWAP1 PUSH2 0x409A JUMP JUMPDEST DUP1 PUSH1 0x1F ADD PUSH1 0x20 DUP1 SWAP2 DIV MUL PUSH1 0x20 ADD PUSH1 0x40 MLOAD SWAP1 DUP2 ADD PUSH1 0x40 MSTORE DUP1 SWAP3 SWAP2 SWAP1 DUP2 DUP2 MSTORE PUSH1 0x20 ADD DUP3 DUP1 SLOAD PUSH2 0x31DA SWAP1 PUSH2 0x409A JUMP JUMPDEST DUP1 ISZERO PUSH2 0x3227 JUMPI DUP1 PUSH1 0x1F LT PUSH2 0x31FC JUMPI PUSH2 0x100 DUP1 DUP4 SLOAD DIV MUL DUP4 MSTORE SWAP2 PUSH1 0x20 ADD SWAP2 PUSH2 0x3227 JUMP JUMPDEST DUP3 ADD SWAP2 SWAP1 PUSH1 0x0 MSTORE PUSH1 0x20 PUSH1 0x0 KECCAK256 SWAP1 JUMPDEST DUP2 SLOAD DUP2 MSTORE SWAP1 PUSH1 0x1 ADD SWAP1 PUSH1 0x20 ADD DUP1 DUP4 GT PUSH2 0x320A JUMPI DUP3 SWAP1 SUB PUSH1 0x1F AND DUP3 ADD SWAP2 JUMPDEST POP POP POP POP POP SWAP1 POP DUP4 JUMP JUMPDEST PUSH1 0x40 MLOAD DUP1 PUSH1 0x60 ADD PUSH1 0x40 MSTORE DUP1 DUP5 DUP2 MSTORE PUSH1 0x20 ADD DUP4 DUP2 MSTORE PUSH1 0x20 ADD DUP3 DUP2 MSTORE POP PUSH1 0x11 PUSH1 0x0 DUP5 DUP2 MSTORE PUSH1 0x20 ADD SWAP1 DUP2 MSTORE PUSH1 0x20 ADD PUSH1 0x0 KECCAK256 PUSH1 0x0 DUP3 ADD MLOAD DUP2 PUSH1 0x0 ADD SSTORE PUSH1 0x20 DUP3 ADD MLOAD DUP2 PUSH1 0x1 ADD SSTORE PUSH1 0x40 DUP3 ADD MLOAD DUP2 PUSH1 0x2 ADD SWAP1 DUP1 MLOAD SWAP1 PUSH1 0x20 ADD SWAP1 PUSH2 0x328F SWAP3 SWAP2 SWAP1 PUSH2 0x3298 JUMP JUMPDEST POP SWAP1 POP POP POP POP POP JUMP JUMPDEST DUP3 DUP1 SLOAD PUSH2 0x32A4 SWAP1 PUSH2 0x409A JUMP JUMPDEST SWAP1 PUSH1 0x0 MSTORE PUSH1 0x20 PUSH1 0x0 KECCAK256 SWAP1 PUSH1 0x1F ADD PUSH1 0x20 SWAP1 DIV DUP2 ADD SWAP3 DUP3 PUSH2 0x32C6 JUMPI PUSH1 0x0 DUP6 SSTORE PUSH2 0x330D JUMP JUMPDEST DUP3 PUSH1 0x1F LT PUSH2 0x32DF JUMPI DUP1 MLOAD PUSH1 0xFF NOT AND DUP4 DUP1 ADD OR DUP6 SSTORE PUSH2 0x330D JUMP JUMPDEST DUP3 DUP1 ADD PUSH1 0x1 ADD DUP6 SSTORE DUP3 ISZERO PUSH2 0x330D JUMPI SWAP2 DUP3 ADD JUMPDEST DUP3 DUP2 GT ISZERO PUSH2 0x330C JUMPI DUP3 MLOAD DUP3 SSTORE SWAP2 PUSH1 0x20 ADD SWAP2 SWAP1 PUSH1 0x1 ADD SWAP1 PUSH2 0x32F1 JUMP JUMPDEST JUMPDEST POP SWAP1 POP PUSH2 0x331A SWAP2 SWAP1 PUSH2 0x335E JUMP JUMPDEST POP SWAP1 JUMP JUMPDEST POP DUP1 SLOAD PUSH2 0x332A SWAP1 PUSH2 0x409A JUMP JUMPDEST PUSH1 0x0 DUP3 SSTORE DUP1 PUSH1 0x1F LT PUSH2 0x333C JUMPI POP PUSH2 0x335B JUMP JUMPDEST PUSH1 0x1F ADD PUSH1 0x20 SWAP1 DIV SWAP1 PUSH1 0x0 MSTORE PUSH1 0x20 PUSH1 0x0 KECCAK256 SWAP1 DUP2 ADD SWAP1 PUSH2 0x335A SWAP2 SWAP1 PUSH2 0x335E JUMP JUMPDEST JUMPDEST POP JUMP JUMPDEST JUMPDEST DUP1 DUP3 GT ISZERO PUSH2 0x3377 JUMPI PUSH1 0x0 DUP2 PUSH1 0x0 SWAP1 SSTORE POP PUSH1 0x1 ADD PUSH2 0x335F JUMP JUMPDEST POP SWAP1 JUMP JUMPDEST PUSH1 0x0 PUSH1 0x40 MLOAD SWAP1 POP SWAP1 JUMP JUMPDEST PUSH1 0x0 DUP1 REVERT JUMPDEST PUSH1 0x0 DUP1 REVERT JUMPDEST PUSH1 0x0 DUP2 SWAP1 POP SWAP2 SWAP1 POP JUMP JUMPDEST PUSH2 0x33A2 DUP2 PUSH2 0x338F JUMP JUMPDEST DUP2 EQ PUSH2 0x33AD JUMPI PUSH1 0x0 DUP1 REVERT JUMPDEST POP JUMP JUMPDEST PUSH1 0x0 DUP2 CALLDATALOAD SWAP1 POP PUSH2 0x33BF DUP2 PUSH2 0x3399 JUMP JUMPDEST SWAP3 SWAP2 POP POP JUMP JUMPDEST PUSH1 0x0 PUSH1 0x20 DUP3 DUP5 SUB SLT ISZERO PUSH2 0x33DB JUMPI PUSH2 0x33DA PUSH2 0x3385 JUMP JUMPDEST JUMPDEST PUSH1 0x0 PUSH2 0x33E9 DUP5 DUP3 DUP6 ADD PUSH2 0x33B0 JUMP JUMPDEST SWAP2 POP POP SWAP3 SWAP2 POP POP JUMP JUMPDEST PUSH1 0x0 DUP2 MLOAD SWAP1 POP SWAP2 SWAP1 POP JUMP JUMPDEST PUSH1 0x0 DUP3 DUP3 MSTORE PUSH1 0x20 DUP3 ADD SWAP1 POP SWAP3 SWAP2 POP POP JUMP JUMPDEST PUSH1 0x0 DUP2 SWAP1 POP PUSH1 0x20 DUP3 ADD SWAP1 POP SWAP2 SWAP1 POP JUMP JUMPDEST PUSH1 0x0 DUP2 MLOAD SWAP1 POP SWAP2 SWAP1 POP JUMP JUMPDEST PUSH1 0x0 DUP3 DUP3 MSTORE PUSH1 0x20 DUP3 ADD SWAP1 POP SWAP3 SWAP2 POP POP JUMP JUMPDEST PUSH1 0x0 JUMPDEST DUP4 DUP2 LT ISZERO PUSH2 0x3458 JUMPI DUP1 DUP3 ADD MLOAD DUP2 DUP5 ADD MSTORE PUSH1 0x20 DUP2 ADD SWAP1 POP PUSH2 0x343D JUMP JUMPDEST DUP4 DUP2 GT ISZERO PUSH2 0x3467 JUMPI PUSH1 0x0 DUP5 DUP5 ADD MSTORE JUMPDEST POP POP POP POP JUMP JUMPDEST PUSH1 0x0 PUSH1 0x1F NOT PUSH1 0x1F DUP4 ADD AND SWAP1 POP SWAP2 SWAP1 POP JUMP JUMPDEST PUSH1 0x0 PUSH2 0x3489 DUP3 PUSH2 0x341E JUMP JUMPDEST PUSH2 0x3493 DUP2 DUP6 PUSH2 0x3429 JUMP JUMPDEST SWAP4 POP PUSH2 0x34A3 DUP2 DUP6 PUSH1 0x20 DUP7 ADD PUSH2 0x343A JUMP JUMPDEST PUSH2 0x34AC DUP2 PUSH2 0x346D JUMP JUMPDEST DUP5 ADD SWAP2 POP POP SWAP3 SWAP2 POP POP JUMP JUMPDEST PUSH1 0x0 PUSH2 0x34C3 DUP4 DUP4 PUSH2 0x347E JUMP JUMPDEST SWAP1 POP SWAP3 SWAP2 POP POP JUMP JUMPDEST PUSH1 0x0 PUSH1 0x20 DUP3 ADD SWAP1 POP SWAP2 SWAP1 POP JUMP JUMPDEST PUSH1 0x0 PUSH2 0x34E3 DUP3 PUSH2 0x33F2 JUMP JUMPDEST PUSH2 0x34ED DUP2 DUP6 PUSH2 0x33FD JUMP JUMPDEST SWAP4 POP DUP4 PUSH1 0x20 DUP3 MUL DUP6 ADD PUSH2 0x34FF DUP6 PUSH2 0x340E JUMP JUMPDEST DUP1 PUSH1 0x0 JUMPDEST DUP6 DUP2 LT ISZERO PUSH2 0x353B JUMPI DUP5 DUP5 SUB DUP10 MSTORE DUP2 MLOAD PUSH2 0x351C DUP6 DUP3 PUSH2 0x34B7 JUMP JUMPDEST SWAP5 POP PUSH2 0x3527 DUP4 PUSH2 0x34CB JUMP JUMPDEST SWAP3 POP PUSH1 0x20 DUP11 ADD SWAP10 POP POP PUSH1 0x1 DUP2 ADD SWAP1 POP PUSH2 0x3503 JUMP JUMPDEST POP DUP3 SWAP8 POP DUP8 SWAP6 POP POP POP POP POP POP SWAP3 SWAP2 POP POP JUMP JUMPDEST PUSH1 0x0 PUSH1 0x20 DUP3 ADD SWAP1 POP DUP2 DUP2 SUB PUSH1 0x0 DUP4 ADD MSTORE PUSH2 0x3567 DUP2 DUP5 PUSH2 0x34D8 JUMP JUMPDEST SWAP1 POP SWAP3 SWAP2 POP POP JUMP JUMPDEST PUSH2 0x3578 DUP2 PUSH2 0x338F JUMP JUMPDEST DUP3 MSTORE POP POP JUMP JUMPDEST PUSH1 0x0 PUSH1 0x20 DUP3 ADD SWAP1 POP PUSH2 0x3593 PUSH1 0x0 DUP4 ADD DUP5 PUSH2 0x356F JUMP JUMPDEST SWAP3 SWAP2 POP POP JUMP JUMPDEST PUSH1 0x0 DUP1 REVERT JUMPDEST PUSH1 0x0 DUP1 REVERT JUMPDEST PUSH32 0x4E487B7100000000000000000000000000000000000000000000000000000000 PUSH1 0x0 MSTORE PUSH1 0x41 PUSH1 0x4 MSTORE PUSH1 0x24 PUSH1 0x0 REVERT JUMPDEST PUSH2 0x35DB DUP3 PUSH2 0x346D JUMP JUMPDEST DUP2 ADD DUP2 DUP2 LT PUSH8 0xFFFFFFFFFFFFFFFF DUP3 GT OR ISZERO PUSH2 0x35FA JUMPI PUSH2 0x35F9 PUSH2 0x35A3 JUMP JUMPDEST JUMPDEST DUP1 PUSH1 0x40 MSTORE POP POP POP JUMP JUMPDEST PUSH1 0x0 PUSH2 0x360D PUSH2 0x337B JUMP JUMPDEST SWAP1 POP PUSH2 0x3619 DUP3 DUP3 PUSH2 0x35D2 JUMP JUMPDEST SWAP2 SWAP1 POP JUMP JUMPDEST PUSH1 0x0 PUSH8 0xFFFFFFFFFFFFFFFF DUP3 GT ISZERO PUSH2 0x3639 JUMPI PUSH2 0x3638 PUSH2 0x35A3 JUMP JUMPDEST JUMPDEST PUSH2 0x3642 DUP3 PUSH2 0x346D JUMP JUMPDEST SWAP1 POP PUSH1 0x20 DUP2 ADD SWAP1 POP SWAP2 SWAP1 POP JUMP JUMPDEST DUP3 DUP2 DUP4 CALLDATACOPY PUSH1 0x0 DUP4 DUP4 ADD MSTORE POP POP POP JUMP JUMPDEST PUSH1 0x0 PUSH2 0x3671 PUSH2 0x366C DUP5 PUSH2 0x361E JUMP JUMPDEST PUSH2 0x3603 JUMP JUMPDEST SWAP1 POP DUP3 DUP2 MSTORE PUSH1 0x20 DUP2 ADD DUP5 DUP5 DUP5 ADD GT ISZERO PUSH2 0x368D JUMPI PUSH2 0x368C PUSH2 0x359E JUMP JUMPDEST JUMPDEST PUSH2 0x3698 DUP5 DUP3 DUP6 PUSH2 0x364F JUMP JUMPDEST POP SWAP4 SWAP3 POP POP POP JUMP JUMPDEST PUSH1 0x0 DUP3 PUSH1 0x1F DUP4 ADD SLT PUSH2 0x36B5 JUMPI PUSH2 0x36B4 PUSH2 0x3599 JUMP JUMPDEST JUMPDEST DUP2 CALLDATALOAD PUSH2 0x36C5 DUP5 DUP3 PUSH1 0x20 DUP7 ADD PUSH2 0x365E JUMP JUMPDEST SWAP2 POP POP SWAP3 SWAP2 POP POP JUMP JUMPDEST PUSH1 0x0 PUSH8 0xFFFFFFFFFFFFFFFF DUP3 GT ISZERO PUSH2 0x36E9 JUMPI PUSH2 0x36E8 PUSH2 0x35A3 JUMP JUMPDEST JUMPDEST PUSH1 0x20 DUP3 MUL SWAP1 POP PUSH1 0x20 DUP2 ADD SWAP1 POP SWAP2 SWAP1 POP JUMP JUMPDEST PUSH1 0x0 DUP1 REVERT JUMPDEST PUSH1 0x0 PUSH2 0x3712 PUSH2 0x370D DUP5 PUSH2 0x36CE JUMP JUMPDEST PUSH2 0x3603 JUMP JUMPDEST SWAP1 POP DUP1 DUP4 DUP3 MSTORE PUSH1 0x20 DUP3 ADD SWAP1 POP PUSH1 0x20 DUP5 MUL DUP4 ADD DUP6 DUP2 GT ISZERO PUSH2 0x3735 JUMPI PUSH2 0x3734 PUSH2 0x36FA JUMP JUMPDEST JUMPDEST DUP4 JUMPDEST DUP2 DUP2 LT ISZERO PUSH2 0x377C JUMPI DUP1 CALLDATALOAD PUSH8 0xFFFFFFFFFFFFFFFF DUP2 GT ISZERO PUSH2 0x375A JUMPI PUSH2 0x3759 PUSH2 0x3599 JUMP JUMPDEST JUMPDEST DUP1 DUP7 ADD PUSH2 0x3767 DUP10 DUP3 PUSH2 0x36A0 JUMP JUMPDEST DUP6 MSTORE PUSH1 0x20 DUP6 ADD SWAP5 POP POP POP PUSH1 0x20 DUP2 ADD SWAP1 POP PUSH2 0x3737 JUMP JUMPDEST POP POP POP SWAP4 SWAP3 POP POP POP JUMP JUMPDEST PUSH1 0x0 DUP3 PUSH1 0x1F DUP4 ADD SLT PUSH2 0x379B JUMPI PUSH2 0x379A PUSH2 0x3599 JUMP JUMPDEST JUMPDEST DUP2 CALLDATALOAD PUSH2 0x37AB DUP5 DUP3 PUSH1 0x20 DUP7 ADD PUSH2 0x36FF JUMP JUMPDEST SWAP2 POP POP SWAP3 SWAP2 POP POP JUMP JUMPDEST PUSH1 0x0 DUP1 PUSH1 0x0 DUP1 PUSH1 0x80 DUP6 DUP8 SUB SLT ISZERO PUSH2 0x37CE JUMPI PUSH2 0x37CD PUSH2 0x3385 JUMP JUMPDEST JUMPDEST PUSH1 0x0 DUP6 ADD CALLDATALOAD PUSH8 0xFFFFFFFFFFFFFFFF DUP2 GT ISZERO PUSH2 0x37EC JUMPI PUSH2 0x37EB PUSH2 0x338A JUMP JUMPDEST JUMPDEST PUSH2 0x37F8 DUP8 DUP3 DUP9 ADD PUSH2 0x36A0 JUMP JUMPDEST SWAP5 POP POP PUSH1 0x20 PUSH2 0x3809 DUP8 DUP3 DUP9 ADD PUSH2 0x33B0 JUMP JUMPDEST SWAP4 POP POP PUSH1 0x40 DUP6 ADD CALLDATALOAD PUSH8 0xFFFFFFFFFFFFFFFF DUP2 GT ISZERO PUSH2 0x382A JUMPI PUSH2 0x3829 PUSH2 0x338A JUMP JUMPDEST JUMPDEST PUSH2 0x3836 DUP8 DUP3 DUP9 ADD PUSH2 0x3786 JUMP JUMPDEST SWAP3 POP POP PUSH1 0x60 DUP6 ADD CALLDATALOAD PUSH8 0xFFFFFFFFFFFFFFFF DUP2 GT ISZERO PUSH2 0x3857 JUMPI PUSH2 0x3856 PUSH2 0x338A JUMP JUMPDEST JUMPDEST PUSH2 0x3863 DUP8 DUP3 DUP9 ADD PUSH2 0x36A0 JUMP JUMPDEST SWAP2 POP POP SWAP3 SWAP6 SWAP2 SWAP5 POP SWAP3 POP JUMP JUMPDEST PUSH1 0x0 DUP3 DUP3 MSTORE PUSH1 0x20 DUP3 ADD SWAP1 POP SWAP3 SWAP2 POP POP JUMP JUMPDEST PUSH1 0x0 PUSH2 0x388B DUP3 PUSH2 0x341E JUMP JUMPDEST PUSH2 0x3895 DUP2 DUP6 PUSH2 0x386F JUMP JUMPDEST SWAP4 POP PUSH2 0x38A5 DUP2 DUP6 PUSH1 0x20 DUP7 ADD PUSH2 0x343A JUMP JUMPDEST PUSH2 0x38AE DUP2 PUSH2 0x346D JUMP JUMPDEST DUP5 ADD SWAP2 POP POP SWAP3 SWAP2 POP POP JUMP JUMPDEST PUSH1 0x0 PUSH1 0x60 DUP3 ADD SWAP1 POP PUSH2 0x38CE PUSH1 0x0 DUP4 ADD DUP7 PUSH2 0x356F JUMP JUMPDEST PUSH2 0x38DB PUSH1 0x20 DUP4 ADD DUP6 PUSH2 0x356F JUMP JUMPDEST DUP2 DUP2 SUB PUSH1 0x40 DUP4 ADD MSTORE PUSH2 0x38ED DUP2 DUP5 PUSH2 0x3880 JUMP JUMPDEST SWAP1 POP SWAP5 SWAP4 POP POP POP POP JUMP JUMPDEST PUSH1 0x0 PUSH1 0x20 DUP3 DUP5 SUB SLT ISZERO PUSH2 0x390D JUMPI PUSH2 0x390C PUSH2 0x3385 JUMP JUMPDEST JUMPDEST PUSH1 0x0 DUP3 ADD CALLDATALOAD PUSH8 0xFFFFFFFFFFFFFFFF DUP2 GT ISZERO PUSH2 0x392B JUMPI PUSH2 0x392A PUSH2 0x338A JUMP JUMPDEST JUMPDEST PUSH2 0x3937 DUP5 DUP3 DUP6 ADD PUSH2 0x36A0 JUMP JUMPDEST SWAP2 POP POP SWAP3 SWAP2 POP POP JUMP JUMPDEST PUSH1 0x0 PUSH1 0x60 DUP3 ADD SWAP1 POP DUP2 DUP2 SUB PUSH1 0x0 DUP4 ADD MSTORE PUSH2 0x395A DUP2 DUP7 PUSH2 0x3880 JUMP JUMPDEST SWAP1 POP DUP2 DUP2 SUB PUSH1 0x20 DUP4 ADD MSTORE PUSH2 0x396E DUP2 DUP6 PUSH2 0x3880 JUMP JUMPDEST SWAP1 POP DUP2 DUP2 SUB PUSH1 0x40 DUP4 ADD MSTORE PUSH2 0x3982 DUP2 DUP5 PUSH2 0x3880 JUMP JUMPDEST SWAP1 POP SWAP5 SWAP4 POP POP POP POP JUMP JUMPDEST PUSH1 0x0 PUSH1 0x40 DUP3 ADD SWAP1 POP PUSH2 0x39A1 PUSH1 0x0 DUP4 ADD DUP6 PUSH2 0x356F JUMP JUMPDEST DUP2 DUP2 SUB PUSH1 0x20 DUP4 ADD MSTORE PUSH2 0x39B3 DUP2 DUP5 PUSH2 0x3880 JUMP JUMPDEST SWAP1 POP SWAP4 SWAP3 POP POP POP JUMP JUMPDEST PUSH1 0x0 DUP1 PUSH1 0x0 PUSH1 0x60 DUP5 DUP7 SUB SLT ISZERO PUSH2 0x39D5 JUMPI PUSH2 0x39D4 PUSH2 0x3385 JUMP JUMPDEST JUMPDEST PUSH1 0x0 PUSH2 0x39E3 DUP7 DUP3 DUP8 ADD PUSH2 0x33B0 JUMP JUMPDEST SWAP4 POP POP PUSH1 0x20 DUP5 ADD CALLDATALOAD PUSH8 0xFFFFFFFFFFFFFFFF DUP2 GT ISZERO PUSH2 0x3A04 JUMPI PUSH2 0x3A03 PUSH2 0x338A JUMP JUMPDEST JUMPDEST PUSH2 0x3A10 DUP7 DUP3 DUP8 ADD PUSH2 0x36A0 JUMP JUMPDEST SWAP3 POP POP PUSH1 0x40 DUP5 ADD CALLDATALOAD PUSH8 0xFFFFFFFFFFFFFFFF DUP2 GT ISZERO PUSH2 0x3A31 JUMPI PUSH2 0x3A30 PUSH2 0x338A JUMP JUMPDEST JUMPDEST PUSH2 0x3A3D DUP7 DUP3 DUP8 ADD PUSH2 0x36A0 JUMP JUMPDEST SWAP2 POP POP SWAP3 POP SWAP3 POP SWAP3 JUMP JUMPDEST PUSH1 0x0 PUSH1 0x80 DUP3 ADD SWAP1 POP PUSH2 0x3A5C PUSH1 0x0 DUP4 ADD DUP8 PUSH2 0x356F JUMP JUMPDEST PUSH2 0x3A69 PUSH1 0x20 DUP4 ADD DUP7 PUSH2 0x356F JUMP JUMPDEST PUSH2 0x3A76 PUSH1 0x40 DUP4 ADD DUP6 PUSH2 0x356F JUMP JUMPDEST DUP2 DUP2 SUB PUSH1 0x60 DUP4 ADD MSTORE PUSH2 0x3A88 DUP2 DUP5 PUSH2 0x3880 JUMP JUMPDEST SWAP1 POP SWAP6 SWAP5 POP POP POP POP POP JUMP JUMPDEST PUSH1 0x0 PUSH1 0x60 DUP3 ADD SWAP1 POP PUSH2 0x3AA8 PUSH1 0x0 DUP4 ADD DUP7 PUSH2 0x356F JUMP JUMPDEST DUP2 DUP2 SUB PUSH1 0x20 DUP4 ADD MSTORE PUSH2 0x3ABA DUP2 DUP6 PUSH2 0x3880 JUMP JUMPDEST SWAP1 POP PUSH2 0x3AC9 PUSH1 0x40 DUP4 ADD DUP5 PUSH2 0x356F JUMP JUMPDEST SWAP5 SWAP4 POP POP POP POP JUMP JUMPDEST PUSH1 0x0 DUP1 PUSH1 0x0 DUP1 PUSH1 0x80 DUP6 DUP8 SUB SLT ISZERO PUSH2 0x3AEB JUMPI PUSH2 0x3AEA PUSH2 0x3385 JUMP JUMPDEST JUMPDEST PUSH1 0x0 PUSH2 0x3AF9 DUP8 DUP3 DUP9 ADD PUSH2 0x33B0 JUMP JUMPDEST SWAP5 POP POP PUSH1 0x20 DUP6 ADD CALLDATALOAD PUSH8 0xFFFFFFFFFFFFFFFF DUP2 GT ISZERO PUSH2 0x3B1A JUMPI PUSH2 0x3B19 PUSH2 0x338A JUMP JUMPDEST JUMPDEST PUSH2 0x3B26 DUP8 DUP3 DUP9 ADD PUSH2 0x36A0 JUMP JUMPDEST SWAP4 POP POP PUSH1 0x40 PUSH2 0x3B37 DUP8 DUP3 DUP9 ADD PUSH2 0x33B0 JUMP JUMPDEST SWAP3 POP POP PUSH1 0x60 DUP6 ADD CALLDATALOAD PUSH8 0xFFFFFFFFFFFFFFFF DUP2 GT ISZERO PUSH2 0x3B58 JUMPI PUSH2 0x3B57 PUSH2 0x338A JUMP JUMPDEST JUMPDEST PUSH2 0x3B64 DUP8 DUP3 DUP9 ADD PUSH2 0x36A0 JUMP JUMPDEST SWAP2 POP POP SWAP3 SWAP6 SWAP2 SWAP5 POP SWAP3 POP JUMP JUMPDEST PUSH1 0x0 DUP1 PUSH1 0x40 DUP4 DUP6 SUB SLT ISZERO PUSH2 0x3B87 JUMPI PUSH2 0x3B86 PUSH2 0x3385 JUMP JUMPDEST JUMPDEST PUSH1 0x0 PUSH2 0x3B95 DUP6 DUP3 DUP7 ADD PUSH2 0x33B0 JUMP JUMPDEST SWAP3 POP POP PUSH1 0x20 PUSH2 0x3BA6 DUP6 DUP3 DUP7 ADD PUSH2 0x33B0 JUMP JUMPDEST SWAP2 POP POP SWAP3 POP SWAP3 SWAP1 POP JUMP JUMPDEST PUSH1 0x0 DUP1 PUSH1 0x40 DUP4 DUP6 SUB SLT ISZERO PUSH2 0x3BC7 JUMPI PUSH2 0x3BC6 PUSH2 0x3385 JUMP JUMPDEST JUMPDEST PUSH1 0x0 PUSH2 0x3BD5 DUP6 DUP3 DUP7 ADD PUSH2 0x33B0 JUMP JUMPDEST SWAP3 POP POP PUSH1 0x20 DUP4 ADD CALLDATALOAD PUSH8 0xFFFFFFFFFFFFFFFF DUP2 GT ISZERO PUSH2 0x3BF6 JUMPI PUSH2 0x3BF5 PUSH2 0x338A JUMP JUMPDEST JUMPDEST PUSH2 0x3C02 DUP6 DUP3 DUP7 ADD PUSH2 0x36A0 JUMP JUMPDEST SWAP2 POP POP SWAP3 POP SWAP3 SWAP1 POP JUMP JUMPDEST PUSH1 0x0 PUSH1 0x20 DUP3 ADD SWAP1 POP DUP2 DUP2 SUB PUSH1 0x0 DUP4 ADD MSTORE PUSH2 0x3C26 DUP2 DUP5 PUSH2 0x3880 JUMP JUMPDEST SWAP1 POP SWAP3 SWAP2 POP POP JUMP JUMPDEST PUSH1 0x0 DUP1 PUSH1 0x0 PUSH1 0x60 DUP5 DUP7 SUB SLT ISZERO PUSH2 0x3C47 JUMPI PUSH2 0x3C46 PUSH2 0x3385 JUMP JUMPDEST JUMPDEST PUSH1 0x0 DUP5 ADD CALLDATALOAD PUSH8 0xFFFFFFFFFFFFFFFF DUP2 GT ISZERO PUSH2 0x3C65 JUMPI PUSH2 0x3C64 PUSH2 0x338A JUMP JUMPDEST JUMPDEST PUSH2 0x3C71 DUP7 DUP3 DUP8 ADD PUSH2 0x36A0 JUMP JUMPDEST SWAP4 POP POP PUSH1 0x20 PUSH2 0x3C82 DUP7 DUP3 DUP8 ADD PUSH2 0x33B0 JUMP JUMPDEST SWAP3 POP POP PUSH1 0x40 DUP5 ADD CALLDATALOAD PUSH8 0xFFFFFFFFFFFFFFFF DUP2 GT ISZERO PUSH2 0x3CA3 JUMPI PUSH2 0x3CA2 PUSH2 0x338A JUMP JUMPDEST JUMPDEST PUSH2 0x3CAF DUP7 DUP3 DUP8 ADD PUSH2 0x36A0 JUMP JUMPDEST SWAP2 POP POP SWAP3 POP SWAP3 POP SWAP3 JUMP JUMPDEST PUSH1 0x0 DUP2 MLOAD SWAP1 POP SWAP2 SWAP1 POP JUMP JUMPDEST PUSH1 0x0 DUP3 DUP3 MSTORE PUSH1 0x20 DUP3 ADD SWAP1 POP SWAP3 SWAP2 POP POP JUMP JUMPDEST PUSH1 0x0 DUP2 SWAP1 POP PUSH1 0x20 DUP3 ADD SWAP1 POP SWAP2 SWAP1 POP JUMP JUMPDEST PUSH2 0x3CEE DUP2 PUSH2 0x338F JUMP JUMPDEST DUP3 MSTORE POP POP JUMP JUMPDEST PUSH1 0x0 PUSH2 0x3D00 DUP4 DUP4 PUSH2 0x3CE5 JUMP JUMPDEST PUSH1 0x20 DUP4 ADD SWAP1 POP SWAP3 SWAP2 POP POP JUMP JUMPDEST PUSH1 0x0 PUSH1 0x20 DUP3 ADD SWAP1 POP SWAP2 SWAP1 POP JUMP JUMPDEST PUSH1 0x0 PUSH2 0x3D24 DUP3 PUSH2 0x3CB9 JUMP JUMPDEST PUSH2 0x3D2E DUP2 DUP6 PUSH2 0x3CC4 JUMP JUMPDEST SWAP4 POP PUSH2 0x3D39 DUP4 PUSH2 0x3CD5 JUMP JUMPDEST DUP1 PUSH1 0x0 JUMPDEST DUP4 DUP2 LT ISZERO PUSH2 0x3D6A JUMPI DUP2 MLOAD PUSH2 0x3D51 DUP9 DUP3 PUSH2 0x3CF4 JUMP JUMPDEST SWAP8 POP PUSH2 0x3D5C DUP4 PUSH2 0x3D0C JUMP JUMPDEST SWAP3 POP POP PUSH1 0x1 DUP2 ADD SWAP1 POP PUSH2 0x3D3D JUMP JUMPDEST POP DUP6 SWAP4 POP POP POP POP SWAP3 SWAP2 POP POP JUMP JUMPDEST PUSH1 0x0 PUSH1 0x20 DUP3 ADD SWAP1 POP DUP2 DUP2 SUB PUSH1 0x0 DUP4 ADD MSTORE PUSH2 0x3D91 DUP2 DUP5 PUSH2 0x3D19 JUMP JUMPDEST SWAP1 POP SWAP3 SWAP2 POP POP JUMP JUMPDEST PUSH1 0x0 DUP1 PUSH1 0x0 PUSH1 0x60 DUP5 DUP7 SUB SLT ISZERO PUSH2 0x3DB2 JUMPI PUSH2 0x3DB1 PUSH2 0x3385 JUMP JUMPDEST JUMPDEST PUSH1 0x0 PUSH2 0x3DC0 DUP7 DUP3 DUP8 ADD PUSH2 0x33B0 JUMP JUMPDEST SWAP4 POP POP PUSH1 0x20 PUSH2 0x3DD1 DUP7 DUP3 DUP8 ADD PUSH2 0x33B0 JUMP JUMPDEST SWAP3 POP POP PUSH1 0x40 DUP5 ADD CALLDATALOAD PUSH8 0xFFFFFFFFFFFFFFFF DUP2 GT ISZERO PUSH2 0x3DF2 JUMPI PUSH2 0x3DF1 PUSH2 0x338A JUMP JUMPDEST JUMPDEST PUSH2 0x3DFE DUP7 DUP3 DUP8 ADD PUSH2 0x36A0 JUMP JUMPDEST SWAP2 POP POP SWAP3 POP SWAP3 POP SWAP3 JUMP JUMPDEST PUSH1 0x0 DUP1 PUSH1 0x0 DUP1 PUSH1 0x80 DUP6 DUP8 SUB SLT ISZERO PUSH2 0x3E22 JUMPI PUSH2 0x3E21 PUSH2 0x3385 JUMP JUMPDEST JUMPDEST PUSH1 0x0 PUSH2 0x3E30 DUP8 DUP3 DUP9 ADD PUSH2 0x33B0 JUMP JUMPDEST SWAP5 POP POP PUSH1 0x20 PUSH2 0x3E41 DUP8 DUP3 DUP9 ADD PUSH2 0x33B0 JUMP JUMPDEST SWAP4 POP POP PUSH1 0x40 DUP6 ADD CALLDATALOAD PUSH8 0xFFFFFFFFFFFFFFFF DUP2 GT ISZERO PUSH2 0x3E62 JUMPI PUSH2 0x3E61 PUSH2 0x338A JUMP JUMPDEST JUMPDEST PUSH2 0x3E6E DUP8 DUP3 DUP9 ADD PUSH2 0x36A0 JUMP JUMPDEST SWAP3 POP POP PUSH1 0x60 DUP6 ADD CALLDATALOAD PUSH8 0xFFFFFFFFFFFFFFFF DUP2 GT ISZERO PUSH2 0x3E8F JUMPI PUSH2 0x3E8E PUSH2 0x338A JUMP JUMPDEST JUMPDEST PUSH2 0x3E9B DUP8 DUP3 DUP9 ADD PUSH2 0x36A0 JUMP JUMPDEST SWAP2 POP POP SWAP3 SWAP6 SWAP2 SWAP5 POP SWAP3 POP JUMP JUMPDEST PUSH1 0x0 DUP2 ISZERO ISZERO SWAP1 POP SWAP2 SWAP1 POP JUMP JUMPDEST PUSH2 0x3EBC DUP2 PUSH2 0x3EA7 JUMP JUMPDEST DUP3 MSTORE POP POP JUMP JUMPDEST PUSH1 0x0 PUSH2 0x120 DUP3 ADD SWAP1 POP DUP2 DUP2 SUB PUSH1 0x0 DUP4 ADD MSTORE PUSH2 0x3EDD DUP2 DUP13 PUSH2 0x3880 JUMP JUMPDEST SWAP1 POP PUSH2 0x3EEC PUSH1 0x20 DUP4 ADD DUP12 PUSH2 0x3EB3 JUMP JUMPDEST PUSH2 0x3EF9 PUSH1 0x40 DUP4 ADD DUP11 PUSH2 0x3EB3 JUMP JUMPDEST PUSH2 0x3F06 PUSH1 0x60 DUP4 ADD DUP10 PUSH2 0x3EB3 JUMP JUMPDEST PUSH2 0x3F13 PUSH1 0x80 DUP4 ADD DUP9 PUSH2 0x3EB3 JUMP JUMPDEST PUSH2 0x3F20 PUSH1 0xA0 DUP4 ADD DUP8 PUSH2 0x3EB3 JUMP JUMPDEST PUSH2 0x3F2D PUSH1 0xC0 DUP4 ADD DUP7 PUSH2 0x3EB3 JUMP JUMPDEST PUSH2 0x3F3A PUSH1 0xE0 DUP4 ADD DUP6 PUSH2 0x3EB3 JUMP JUMPDEST PUSH2 0x3F48 PUSH2 0x100 DUP4 ADD DUP5 PUSH2 0x3EB3 JUMP JUMPDEST SWAP11 SWAP10 POP POP POP POP POP POP POP POP POP POP JUMP JUMPDEST PUSH1 0x0 PUSH1 0x80 DUP3 ADD SWAP1 POP PUSH2 0x3F6B PUSH1 0x0 DUP4 ADD DUP8 PUSH2 0x356F JUMP JUMPDEST PUSH2 0x3F78 PUSH1 0x20 DUP4 ADD DUP7 PUSH2 0x356F JUMP JUMPDEST DUP2 DUP2 SUB PUSH1 0x40 DUP4 ADD MSTORE PUSH2 0x3F8A DUP2 DUP6 PUSH2 0x3880 JUMP JUMPDEST SWAP1 POP DUP2 DUP2 SUB PUSH1 0x60 DUP4 ADD MSTORE PUSH2 0x3F9E DUP2 DUP5 PUSH2 0x3880 JUMP JUMPDEST SWAP1 POP SWAP6 SWAP5 POP POP POP POP POP JUMP JUMPDEST PUSH1 0x0 PUSH1 0x20 DUP3 ADD SWAP1 POP PUSH2 0x3FBE PUSH1 0x0 DUP4 ADD DUP5 PUSH2 0x3EB3 JUMP JUMPDEST SWAP3 SWAP2 POP POP JUMP JUMPDEST PUSH1 0x0 DUP1 PUSH1 0x0 PUSH1 0x60 DUP5 DUP7 SUB SLT ISZERO PUSH2 0x3FDD JUMPI PUSH2 0x3FDC PUSH2 0x3385 JUMP JUMPDEST JUMPDEST PUSH1 0x0 DUP5 ADD CALLDATALOAD PUSH8 0xFFFFFFFFFFFFFFFF DUP2 GT ISZERO PUSH2 0x3FFB JUMPI PUSH2 0x3FFA PUSH2 0x338A JUMP JUMPDEST JUMPDEST PUSH2 0x4007 DUP7 DUP3 DUP8 ADD PUSH2 0x36A0 JUMP JUMPDEST SWAP4 POP POP PUSH1 0x20 DUP5 ADD CALLDATALOAD PUSH8 0xFFFFFFFFFFFFFFFF DUP2 GT ISZERO PUSH2 0x4028 JUMPI PUSH2 0x4027 PUSH2 0x338A JUMP JUMPDEST JUMPDEST PUSH2 0x4034 DUP7 DUP3 DUP8 ADD PUSH2 0x36A0 JUMP JUMPDEST SWAP3 POP POP PUSH1 0x40 DUP5 ADD CALLDATALOAD PUSH8 0xFFFFFFFFFFFFFFFF DUP2 GT ISZERO PUSH2 0x4055 JUMPI PUSH2 0x4054 PUSH2 0x338A JUMP JUMPDEST JUMPDEST PUSH2 0x4061 DUP7 DUP3 DUP8 ADD PUSH2 0x36A0 JUMP JUMPDEST SWAP2 POP POP SWAP3 POP SWAP3 POP SWAP3 JUMP JUMPDEST PUSH32 0x4E487B7100000000000000000000000000000000000000000000000000000000 PUSH1 0x0 MSTORE PUSH1 0x22 PUSH1 0x4 MSTORE PUSH1 0x24 PUSH1 0x0 REVERT JUMPDEST PUSH1 0x0 PUSH1 0x2 DUP3 DIV SWAP1 POP PUSH1 0x1 DUP3 AND DUP1 PUSH2 0x40B2 JUMPI PUSH1 0x7F DUP3 AND SWAP2 POP JUMPDEST PUSH1 0x20 DUP3 LT DUP2 EQ ISZERO PUSH2 0x40C6 JUMPI PUSH2 0x40C5 PUSH2 0x406B JUMP JUMPDEST JUMPDEST POP SWAP2 SWAP1 POP JUMP JUMPDEST PUSH32 0x4E487B7100000000000000000000000000000000000000000000000000000000 PUSH1 0x0 MSTORE PUSH1 0x32 PUSH1 0x4 MSTORE PUSH1 0x24 PUSH1 0x0 REVERT JUMPDEST PUSH32 0x4E487B7100000000000000000000000000000000000000000000000000000000 PUSH1 0x0 MSTORE PUSH1 0x11 PUSH1 0x4 MSTORE PUSH1 0x24 PUSH1 0x0 REVERT JUMPDEST PUSH1 0x0 PUSH2 0x4135 DUP3 PUSH2 0x338F JUMP JUMPDEST SWAP2 POP PUSH32 0xFFFFFFFFFFFFFFFFFFFFFFFFFFFFFFFFFFFFFFFFFFFFFFFFFFFFFFFFFFFFFFFF DUP3 EQ ISZERO PUSH2 0x4168 JUMPI PUSH2 0x4167 PUSH2 0x40FB JUMP JUMPDEST JUMPDEST PUSH1 0x1 DUP3 ADD SWAP1 POP SWAP2 SWAP1 POP JUMP JUMPDEST PUSH1 0x0 DUP2 SWAP1 POP SWAP3 SWAP2 POP POP JUMP JUMPDEST PUSH1 0x0 PUSH2 0x4189 DUP3 PUSH2 0x341E JUMP JUMPDEST PUSH2 0x4193 DUP2 DUP6 PUSH2 0x4173 JUMP JUMPDEST SWAP4 POP PUSH2 0x41A3 DUP2 DUP6 PUSH1 0x20 DUP7 ADD PUSH2 0x343A JUMP JUMPDEST DUP1 DUP5 ADD SWAP2 POP POP SWAP3 SWAP2 POP POP JUMP JUMPDEST PUSH1 0x0 PUSH2 0x41BB DUP3 DUP5 PUSH2 0x417E JUMP JUMPDEST SWAP2 POP DUP2 SWAP1 POP SWAP3 SWAP2 POP POP JUMP JUMPDEST PUSH1 0x0 DUP2 SWAP1 POP SWAP3 SWAP2 POP POP JUMP JUMPDEST PUSH1 0x0 DUP2 SWAP1 POP DUP2 PUSH1 0x0 MSTORE PUSH1 0x20 PUSH1 0x0 KECCAK256 SWAP1 POP SWAP2 SWAP1 POP JUMP JUMPDEST PUSH1 0x0 DUP2 SLOAD PUSH2 0x41F3 DUP2 PUSH2 0x409A JUMP JUMPDEST PUSH2 0x41FD DUP2 DUP7 PUSH2 0x41C6 JUMP JUMPDEST SWAP5 POP PUSH1 0x1 DUP3 AND PUSH1 0x0 DUP2 EQ PUSH2 0x4218 JUMPI PUSH1 0x1 DUP2 EQ PUSH2 0x4229 JUMPI PUSH2 0x425C JUMP JUMPDEST PUSH1 0xFF NOT DUP4 AND DUP7 MSTORE DUP2 DUP7 ADD SWAP4 POP PUSH2 0x425C JUMP JUMPDEST PUSH2 0x4232 DUP6 PUSH2 0x41D1 JUMP JUMPDEST PUSH1 0x0 JUMPDEST DUP4 DUP2 LT ISZERO PUSH2 0x4254 JUMPI DUP2 SLOAD DUP2 DUP10 ADD MSTORE PUSH1 0x1 DUP3 ADD SWAP2 POP PUSH1 0x20 DUP2 ADD SWAP1 POP PUSH2 0x4235 JUMP JUMPDEST DUP4 DUP9 ADD SWAP6 POP POP POP JUMPDEST POP POP POP SWAP3 SWAP2 POP POP JUMP JUMPDEST PUSH1 0x0 PUSH2 0x4271 DUP3 DUP5 PUSH2 0x41E6 JUMP JUMPDEST SWAP2 POP DUP2 SWAP1 POP SWAP3 SWAP2 POP POP JUMP JUMPDEST PUSH1 0x0 PUSH2 0x4287 DUP3 PUSH2 0x338F JUMP JUMPDEST SWAP2 POP PUSH2 0x4292 DUP4 PUSH2 0x338F JUMP JUMPDEST SWAP3 POP DUP3 PUSH32 0xFFFFFFFFFFFFFFFFFFFFFFFFFFFFFFFFFFFFFFFFFFFFFFFFFFFFFFFFFFFFFFFF SUB DUP3 GT ISZERO PUSH2 0x42C7 JUMPI PUSH2 0x42C6 PUSH2 0x40FB JUMP JUMPDEST JUMPDEST DUP3 DUP3 ADD SWAP1 POP SWAP3 SWAP2 POP POP JUMP INVALID ADDRESS PUSH25 0x38366262366436653138633565656163613165383363316536 BALANCE CALLDATASIZE ORIGIN PUSH4 0x63343333 PUSH5 0x6363373061 CALLVALUE PUSH28 0x227469746C65223A224173736574204D65746164617461222C227479 PUSH17 0x65223A226F626A656374222C2270726F70 PUSH6 0x727469657322 GASPRICE PUSH28 0x225469746C65223A7B2274797065223A22737472696E67222C226465 PUSH20 0x6372697074696F6E223A22536F6C61722070616E PUSH6 0x6C73206F6E20 PUSH21 0x686520436F6E73657175656E636573204E6F6E6120 PUSH4 0x6F6D6D75 PUSH15 0x6974792063656E74657220227D2C22 DIFFICULTY PUSH6 0x736372697074 PUSH10 0x6F6E223A7B2274797065 0x22 GASPRICE 0x22 PUSH20 0x7472696E67222C226465736372697074696F6E22 GASPRICE 0x22 JUMPI PUSH6 0x2063616E2069 PUSH15 0x735C6E227D2C225374727563747572 PUSH6 0x4C656674223A PUSH28 0x2274797065223A22737472696E67222C226465736372697074696F6E 0x22 GASPRICE JUMPDEST 0x22 MSTORE PUSH6 0x70726573656E PUSH21 0x617469766573204265726C696E222C22436F6D6D75 PUSH15 0x697479222C224368696C6472656E22 0x5D PUSH30 0x2C225374727563747572655269676874223A7B2274797065223A22737472 PUSH10 0x6E67222C226465736372 PUSH10 0x7074696F6E223A5B2232 ADDRESS 0x25 0x22 0x2C 0x22 CALLDATACOPY ADDRESS 0x25 0x22 0x2C 0x22 BALANCE ADDRESS 0x25 0x22 0x5D PUSH30 0x2C22516F75746174696F6E223A7B226C696E6B223A2268747470733A2F2F PUSH22 0x706C6F61646966792E6E65742F353237336433353064 PUSH7 0x6430303164312F PUSH18 0x756F746174696F6E5F436F6E73657175656E PUSH4 0x65735F4E PUSH16 0x6E615F636F6D6D756E6974795F63656E PUSH21 0x65722E706466222C227072697A65223A222434382C ADDRESS CALLDATACOPY BALANCE 0x2E CALLDATALOAD CALLDATALOAD 0x22 PUSH30 0x2C2277616C6C6574223A7B2274797065223A22737472696E67222C226465 PUSH20 0x6372697074696F6E223A22307844363062433062 ADDRESS ADDRESS PUSH4 0x31443861 CALLDATACOPY BALANCE CODESIZE CHAINID TIMESTAMP CALLDATASIZE PUSH7 0x44654463343436 CALLDATASIZE PUSH4 0x37413131 CODESIZE ADDRESS CODESIZE CALLDATASIZE CODESIZE PUSH4 0x227D2C22 PUSH13 0x6F676F223A7B2274797065223A 0x22 PUSH20 0x7472696E67222C226465736372697074696F6E22 GASPRICE PUSH28 0x2275726C223A2268747470733A2F2F626166796265696634666B3674 PUSH24 0x696B6B63796F70676C687070646F376464336C3334626D36 PUSH18 0x65646A65336D786674656335653762346865 CALLDATALOAD CALLVALUE 0x2E PUSH10 0x7066732E6E667473746F PUSH19 0x6167652E6C696E6B222C2274797065223A2269 PUSH14 0x6167652F706E67227D7D2C22616C PUSH13 0x46696C6573223A5B7B2275726C 0x22 GASPRICE 0x22 PUSH9 0x747470733A2F2F6261 PUSH7 0x79626569663466 PUSH12 0x367477696B6B63796F70676C PUSH9 0x7070646F376464336C CALLER CALLVALUE PUSH3 0x6D3671 PUSH6 0x646A65336D78 PUSH7 0x74656335653762 CALLVALUE PUSH9 0x6535342E697066732E PUSH15 0x667473746F726167652E6C696E6B22 0x2C 0x22 PUSH21 0x797065223A22696D6167652F706E67227D5D7D7D7B 0x22 PUSH21 0x69746C65223A224173736574204D65746164617461 0x22 0x2C 0x22 PUSH21 0x797065223A226F626A656374222C2270726F706572 PUSH21 0x696573223A7B225469746C65223A7B227479706522 GASPRICE 0x22 PUSH20 0x7472696E67222C226465736372697074696F6E22 GASPRICE 0x22 0x4C PUSH2 0x6B65 KECCAK256 0x4E PUSH16 0x6E612C204F726C616E646F205553227D 0x2C 0x22 DIFFICULTY PUSH6 0x736372697074 PUSH10 0x6F6E223A7B2274797065 0x22 GASPRICE 0x22 PUSH20 0x7472696E67222C226465736372697074696F6E22 GASPRICE 0x22 0x22 PUSH30 0x2C2253746172745F44617465223A7B2274797065223A22737472696E6722 0x2C 0x22 PUSH5 0x6573637269 PUSH17 0x74696F6E223A22323032332D30382D3136 SLOAD BALANCE BALANCE GASPRICE BALANCE CALLVALUE 0x22 PUSH30 0x2C226C6F676F223A7B2274797065223A22737472696E67222C2264657363 PUSH19 0x697074696F6E223A7B2275726C223A22687474 PUSH17 0x733A2F2F62616679626569636235797933 CALLDATASIZE PUSH16 0x63733479756C7068367A707837676773 PUSH26 0x6567696E736A776E6674376D6C3763786F6A79777062736A7571 CALLVALUE 0x2E PUSH10 0x7066732E6E667473746F PUSH19 0x6167652E6C696E6B222C2274797065223A2269 PUSH14 0x6167652F706E67227D7D2C227761 PUSH13 0x6C6574223A7B2274797065223A 0x22 PUSH20 0x7472696E67222C226465736372697074696F6E22 GASPRICE 0x22 ADDRESS PUSH25 0x38366262366436653138633565656163613165383363316536 BALANCE CALLDATASIZE ORIGIN PUSH4 0x63343333 PUSH5 0x6363373061 CALLVALUE 0x22 PUSH30 0x2C22537562735072696365223A7B2274797065223A226E756D626572222C 0x22 PUSH5 0x6573637269 PUSH17 0x74696F6E223A22302E3035227D2C227479 PUSH17 0x65696D67223A7B2274797065223A227374 PUSH19 0x696E67222C226465736372697074696F6E223A 0x22 DIFFICULTY PUSH2 0x6F22 PUSH30 0x2C22616C6C46696C6573223A5B7B2275726C223A2268747470733A2F2F62 PUSH2 0x6679 PUSH3 0x656963 PUSH3 0x357979 CALLER CALLDATASIZE PUSH16 0x63733479756C7068367A707837676773 PUSH26 0x6567696E736A776E6674376D6C3763786F6A79777062736A7571 CALLVALUE 0x2E PUSH10 0x7066732E6E667473746F PUSH19 0x6167652E6C696E6B222C2274797065223A2269 PUSH14 0x6167652F706E67227D5D7D7D3C62 PUSH16 0x64793E3C6469762069643D2264616F2D PUSH4 0x6F6E7461 PUSH10 0x6E6572223E3C64697620 PUSH4 0x6C617373 RETURNDATASIZE 0x22 PUSH5 0x616F2D636F PUSH15 0x7461696E657220666C657820697465 PUSH14 0x732D63656E74657220666C65782D PUSH4 0x6F6C2067 PUSH2 0x702D CODESIZE KECCAK256 PUSH19 0x656C6174697665223E3C64697620636C617373 RETURNDATASIZE 0x22 PUSH5 0x616F2D7469 PUSH21 0x6C65206761702D3820666C657820666C65782D636F PUSH13 0x2072656C6174697665223E3C64 PUSH10 0x763E3C68312069643D22 PUSH5 0x616F2D7469 PUSH21 0x6C652220636C6173733D22746578742D6D6F6F6E2D CALLER ORIGIN KECCAK256 PUSH7 0x6F6E742D626F6C PUSH5 0x223E4C616B PUSH6 0x204E6F6E612C KECCAK256 0x4F PUSH19 0x6C616E646F2055533C2F68313E3C2F6469763E EXTCODECOPY PUSH5 0x697620636C PUSH2 0x7373 RETURNDATASIZE 0x22 PUSH7 0x6C657820676170 0x2D CALLVALUE KECCAK256 PUSH11 0x7573746966792D62657477 PUSH6 0x656E20746162 PUSH20 0x223E3C64697620636C6173733D22666C6578223E EXTCODECOPY PUSH2 0x2068 PUSH19 0x65663D222F3F713D416C6C2220636C6173733D 0x22 DIFFICULTY PUSH16 0x6E6174696F6E4261724C696E6B207461 PUSH3 0x20626C PUSH16 0x636B2070782D332070792D3220616374 PUSH10 0x7665223E416C6C3C2F61 RETURNDATACOPY EXTCODECOPY PUSH2 0x2068 PUSH19 0x65663D222F3F713D546F6461792220636C6173 PUSH20 0x3D22446F6E6174696F6E4261724C696E6B207461 PUSH3 0x20626C PUSH16 0x636B2070782D332070792D32223E546F PUSH5 0x61793C2F61 RETURNDATACOPY EXTCODECOPY PUSH2 0x2068 PUSH19 0x65663D222F3F713D546869732532304D6F6E74 PUSH9 0x2220636C6173733D22 DIFFICULTY PUSH16 0x6E6174696F6E4261724C696E6B207461 PUSH3 0x20626C PUSH16 0x636B2070782D332070792D32223E5468 PUSH10 0x73204D6F6E74683C2F61 RETURNDATACOPY EXTCODECOPY 0x2F PUSH5 0x69763E3C62 PUSH22 0x74746F6E20747970653D22627574746F6E222076616C PUSH22 0x653D2243726561746520476F616C2220636C6173733D 0x22 PUSH17 0x792D322070782D34206761702D32207465 PUSH25 0x742D6D6F6F6E2D313420726F756E6465642D6D6F6F6E2D692D PUSH20 0x6D207A2D3020666C6578206A7573746966792D63 PUSH6 0x6E7465722069 PUSH21 0x656D732D63656E74657220666F6E742D6D65646975 PUSH14 0x206E6F2D756E6465726C696E6520 PUSH16 0x766572666C6F772D68696464656E2073 PUSH6 0x6C6563742D6E PUSH16 0x6E65206F75746C696E652D6E6F6E6520 PUSH21 0x72616E736974696F6E206475726174696F6E2D3230 ADDRESS KECCAK256 PUSH2 0x6374 PUSH10 0x76653A7363616C652D39 ADDRESS KECCAK256 PUSH7 0x6F6375732D7669 PUSH20 0x69626C653A736861646F772D666F637573206274 PUSH15 0x2D7072696D61727920637265617465 0x2D PUSH8 0x6F616C2D626C6F63 PUSH12 0x223E3C64697620636C617373 RETURNDATASIZE 0x22 PUSH8 0x61702D3222206964 RETURNDATASIZE 0x22 PUSH10 0x716F6B6A223E0A202020 KECCAK256 KECCAK256 KECCAK256 KECCAK256 EXP KECCAK256 KECCAK256 KECCAK256 KECCAK256 KECCAK256 KECCAK256 EXTCODECOPY 0x2F PUSH5 0x69763E3C2F PUSH3 0x757474 PUSH16 0x6E3E3C2F6469763E3C2F6469763E3C64 PUSH10 0x7620636C6173733D2264 PUSH2 0x6F2D PUSH5 0x6976696465 PUSH19 0x223E0A20203C2F6469763E3C64697620636C61 PUSH20 0x733D22666C657820666C65782D636F6C20676170 0x2D CODESIZE 0x22 RETURNDATACOPY EXTCODECOPY PUSH10 0x6D672069643D2264616F 0x2D PUSH10 0x6D61676522207372633D 0x22 PUSH9 0x747470733A2F2F6261 PUSH7 0x79626569636235 PUSH26 0x7933366F63733479756C7068367A707837676773796567696E73 PUSH11 0x776E6674376D6C3763786F PUSH11 0x79777062736A7571342E69 PUSH17 0x66732E6E667473746F726167652E6C696E PUSH12 0x222F3E3C2F6469763E3C6469 PUSH23 0x2069643D22676F616C2D636F6E7461696E65722220636C PUSH2 0x7373 RETURNDATASIZE 0x22 PUSH7 0x6C657820666C65 PUSH25 0x2D636F6C206761702D38223E0A0A20203C2F6469763E3C2F64 PUSH10 0x763E3C2F6469763E3C2F PUSH3 0x6F6479 RETURNDATACOPY EXTCODECOPY PUSH20 0x74796C653E2A207B20626F782D73697A696E673A KECCAK256 PUSH3 0x6F7264 PUSH6 0x722D626F783B KECCAK256 PUSH30 0x20626F6479207B6D617267696E3A20303B7D2364616F2D7469746C657B77 PUSH10 0x6474683A3738253B7D23 PUSH10 0x716F6B6A7B666C65782D PUSH5 0x6972656374 PUSH10 0x6F6E3A726F772D726576 PUSH6 0x7273653B6469 PUSH20 0x706C61793A666C65783B7D2E70792D322E70782D CALLVALUE 0x2E PUSH8 0x61702D322E746578 PUSH21 0x2D6D6F6F6E2D31342E726F756E6465642D6D6F6F6E 0x2D PUSH10 0x2D736D2E72656C617469 PUSH23 0x652E7A2D302E666C65782E6A7573746966792D63656E74 PUSH6 0x722E6974656D PUSH20 0x2D63656E7465722E666F6E742D6D656469756D2E PUSH15 0x6F2D756E6465726C696E652E6F7665 PUSH19 0x666C6F772D68696464656E2E73656C6563742D PUSH15 0x6F6E652E6F75746C696E652D6E6F6E PUSH6 0x2E7472616E73 PUSH10 0x74696F6E2E6475726174 PUSH10 0x6F6E2D3230302E616374 PUSH10 0x76655C3A7363616C652D CODECOPY ADDRESS 0x2E PUSH7 0x6F6375732D7669 PUSH20 0x69626C655C3A736861646F772D666F6375732E62 PUSH21 0x6E2D7072696D6172792E6372656174652D676F616C 0x2D PUSH3 0x6C6F63 PUSH12 0x2E7B706F736974696F6E3A72 PUSH6 0x6C6174697665 EXTCODESIZE PUSH19 0x696768743A3070783B7D2E70792D322E70782D CALLVALUE 0x2E PUSH8 0x61702D322E746578 PUSH21 0x2D6D6F6F6E2D31342E726F756E6465642D6D6F6F6E 0x2D PUSH10 0x2D736D2E7A2D302E666C PUSH6 0x782E6A757374 PUSH10 0x66792D63656E7465722E PUSH10 0x74656D732D63656E7465 PUSH19 0x2E666F6E742D6D656469756D2E6E6F2D756E64 PUSH6 0x726C696E652E PUSH16 0x766572666C6F772D68696464656E2E73 PUSH6 0x6C6563742D6E PUSH16 0x6E652E6F75746C696E652D6E6F6E652E PUSH21 0x72616E736974696F6E2E6475726174696F6E2D3230 ADDRESS 0x2E PUSH2 0x6374 PUSH10 0x76655C3A7363616C652D CODECOPY ADDRESS 0x2E PUSH7 0x6F6375732D7669 PUSH20 0x69626C655C3A736861646F772D666F6375732E62 PUSH21 0x6E2D7072696D6172792E6372656174652D676F616C 0x2D PUSH3 0x6C6F63 PUSH12 0x2E7B72696768743A31307078 EXTCODESIZE PUSH17 0x6F736974696F6E3A6162736F6C7574653B PUSH30 0x3C2F7374796C653E7B227469746C65223A224173736574204D6574616461 PUSH21 0x61222C2274797065223A226F626A656374222C2270 PUSH19 0x6F70657274696573223A7B225469746C65223A PUSH28 0x2274797065223A22737472696E67222C226465736372697074696F6E 0x22 GASPRICE 0x22 MSTORE PUSH6 0x6E657761626C PUSH6 0x20656E657267 PUSH26 0x227D2C224465736372697074696F6E223A7B2274797065223A22 PUSH20 0x7472696E67222C226465736372697074696F6E22 GASPRICE 0x22 0x4F PUSH22 0x722044414F206973207374617274696E672069742773 KECCAK256 PUSH16 0x776E2072656E657761626C6520656E65 PUSH19 0x677920636F6D70616E7920746861742064656C PUSH10 0x7665727320656E657267 PUSH26 0x20666F72207468652077686F6C6520636F6D6D756E697479227D 0x2C 0x22 TIMESTAMP PUSH22 0x64676574223A7B2274797065223A22737472696E6722 0x2C 0x22 PUSH5 0x6573637269 PUSH17 0x74696F6E223A2224312C3030302C303030 0x22 PUSH30 0x2C22456E645F44617465223A7B2274797065223A22737472696E67222C22 PUSH5 0x6573637269 PUSH17 0x74696F6E223A22323032332D30382D3331 SLOAD ORIGIN ORIGIN GASPRICE CALLVALUE ADDRESS 0x22 PUSH30 0x2C2277616C6C6574223A7B2274797065223A22737472696E67222C226465 PUSH20 0x6372697074696F6E223A22307838366262366436 PUSH6 0x313863356565 PUSH2 0x6361 BALANCE PUSH6 0x383363316536 BALANCE CALLDATASIZE ORIGIN PUSH4 0x63343333 PUSH5 0x6363373061 CALLVALUE 0x22 PUSH30 0x2C226C6F676F223A7B2274797065223A22737472696E67222C2264657363 PUSH19 0x697074696F6E223A7B2275726C223A22687474 PUSH17 0x733A2F2F62616679626569633567347876 PUSH11 0x376D7972676B6236326C65 PUSH15 0x6C64376F72706C32687273706D7A6C PUSH27 0x6364627A70796F746333337471796770652E697066732E6E667473 PUSH21 0x6F726167652E6C696E6B222C2274797065223A2269 PUSH14 0x6167652F6A706567227D7D2C2261 PUSH13 0x6C46696C6573223A5B7B227572 PUSH13 0x223A2268747470733A2F2F6261 PUSH7 0x79626569633567 CALLVALUE PUSH25 0x766A376D7972676B6236326C656E6C64376F72706C32687273 PUSH17 0x6D7A6C7A6364627A70796F746333337471 PUSH26 0x6770652E697066732E6E667473746F726167652E6C696E6B222C 0x22 PUSH21 0x797065223A22696D6167652F6A706567227D5D7D7D LOG2 PUSH5 0x6970667358 0x22 SLT KECCAK256 0xEE PUSH26 0xFBFA4C4F1BB79A1695E65A7B100DDDBB2DA942C9DC01D9E0187F 0xD8 PUSH30 0xA9CD64736F6C634300080900330000000000000000000000000000000000 "},"gasEstimates":{"creation":{"codeDepositCost":"4287200","executionCost":"4947","totalCost":"4292147"},"external":{"_dao_ids()":"2496","_dao_uris(uint256)":"infinite","_donated(string)":"infinite","_donations(uint256)":"infinite","_donations_ids()":"2495","_goal_ids()":"2564","_goal_uris(uint256)":"infinite","_ideas_ids()":"2496","_ideas_uris(uint256)":"infinite","_ideas_vote_ids()":"2497","_join_ids()":"2520","_joined_person(uint256)":"infinite","_message_ids()":"2497","_message_read_ids()":"2518","_reply_ids()":"2518","_smart_contract_ids()":"2498","_smart_contracts_uris(uint256)":"infinite","_template_uris(uint256)":"infinite","_user_badges(string)":"infinite","addTempData()":"infinite","add_donation(uint256,uint256,string)":"infinite","all_goal_ideas_votes(uint256)":"infinite","all_messages(uint256)":"infinite","all_read_messages(uint256)":"infinite","all_replies(uint256)":"infinite","create_dao(string,string,string)":"infinite","create_goal(string,uint256,string)":"infinite","create_goal_ideas_vote(uint256,uint256,string)":"infinite","create_ideas(string,uint256,string[],string)":"infinite","dao_uri(uint256)":"infinite","getMsgIDs(uint256)":"infinite","getReadMsg(uint256,string)":"infinite","getReplyIDs(uint256)":"infinite","get_all_daos()":"infinite","get_all_goals()":"infinite","get_all_goals_by_dao_id(uint256)":"infinite","get_all_ideas()":"infinite","get_all_ideas_by_goal_id(uint256)":"infinite","get_goal_id_by_goal_uri(string)":"infinite","get_goal_id_from_ideas_uri(string)":"infinite","get_ideas_id_by_ideas_uri(string)":"infinite","get_ideas_votes_from_goal(uint256,uint256)":"infinite","goal_uri(uint256)":"infinite","ideas_uri(uint256)":"infinite","is_person_joined(string)":"infinite","join_community(uint256,string)":"infinite","reset_all()":"infinite","sendMsg(uint256,string,string)":"infinite","sendReadMsg(uint256,uint256,string,string)":"infinite","sendReply(uint256,string,uint256,string)":"infinite","set_dao(uint256,string,string)":"infinite","set_goal(uint256,string)":"infinite","set_ideas(uint256,string)":"infinite","update_template(uint256,string)":"infinite"},"internal":{"create_ideas_smart_contract(uint256,uint256,string memory)":"infinite"}},"methodIdentifiers":{"_dao_ids()":"7bbd582d","_dao_uris(uint256)":"27a568b9","_donated(string)":"77935be7","_donations(uint256)":"7fc543ec","_donations_ids()":"ec245802","_goal_ids()":"13bf4cea","_goal_uris(uint256)":"7f2035d4","_ideas_ids()":"d3791b20","_ideas_uris(uint256)":"468d0c80","_ideas_vote_ids()":"4a797bd7","_join_ids()":"1171b621","_joined_person(uint256)":"330b8f26","_message_ids()":"9077007d","_message_read_ids()":"ca013f17","_reply_ids()":"aa2bf5d3","_smart_contract_ids()":"1b592aeb","_smart_contracts_uris(uint256)":"ff4a37ef","_template_uris(uint256)":"6ecda4ee","_user_badges(string)":"9f9ff54b","addTempData()":"0c90f09d","add_donation(uint256,uint256,string)":"e3863cef","all_goal_ideas_votes(uint256)":"1ba44c4c","all_messages(uint256)":"b527d45e","all_read_messages(uint256)":"cace8d46","all_replies(uint256)":"3f87a2f4","create_dao(string,string,string)":"ec399255","create_goal(string,uint256,string)":"77b2ec23","create_goal_ideas_vote(uint256,uint256,string)":"82fcc732","create_ideas(string,uint256,string[],string)":"18426b46","dao_uri(uint256)":"5d907da1","getMsgIDs(uint256)":"803f5b9f","getReadMsg(uint256,string)":"cd230809","getReplyIDs(uint256)":"812fae1f","get_all_daos()":"c04fe978","get_all_goals()":"29b56f60","get_all_goals_by_dao_id(uint256)":"109ac970","get_all_ideas()":"97ee7606","get_all_ideas_by_goal_id(uint256)":"131d44f2","get_goal_id_by_goal_uri(string)":"1e9ac9f5","get_goal_id_from_ideas_uri(string)":"aa4cdf2a","get_ideas_id_by_ideas_uri(string)":"a1ca9178","get_ideas_votes_from_goal(uint256,uint256)":"4be7adb5","goal_uri(uint256)":"e32acc1a","ideas_uri(uint256)":"8d3d2595","is_person_joined(string)":"eca7f5fe","join_community(uint256,string)":"5132f0c7","reset_all()":"b16060a6","sendMsg(uint256,string,string)":"3f50602f","sendReadMsg(uint256,uint256,string,string)":"8c59143d","sendReply(uint256,string,uint256,string)":"494ce295","set_dao(uint256,string,string)":"881de858","set_goal(uint256,string)":"c29595c5","set_ideas(uint256,string)":"c04e7430","update_template(uint256,string)":"87633eb2"}},"storageLayout":{"storage":[{"astId":100,"contract":"contracts/GreenDAO.sol:GreenDAO","label":"_dao_ids","offset":0,"slot":"0","type":"t_uint256"},{"astId":102,"contract":"contracts/GreenDAO.sol:GreenDAO","label":"_donations_ids","offset":0,"slot":"1","type":"t_uint256"},{"astId":104,"contract":"contracts/GreenDAO.sol:GreenDAO","label":"_goal_ids","offset":0,"slot":"2","type":"t_uint256"},{"astId":106,"contract":"contracts/GreenDAO.sol:GreenDAO","label":"_ideas_ids","offset":0,"slot":"3","type":"t_uint256"},{"astId":108,"contract":"contracts/GreenDAO.sol:GreenDAO","label":"_join_ids","offset":0,"slot":"4","type":"t_uint256"},{"astId":110,"contract":"contracts/GreenDAO.sol:GreenDAO","label":"_smart_contract_ids","offset":0,"slot":"5","type":"t_uint256"},{"astId":112,"contract":"contracts/GreenDAO.sol:GreenDAO","label":"_ideas_vote_ids","offset":0,"slot":"6","type":"t_uint256"},{"astId":114,"contract":"contracts/GreenDAO.sol:GreenDAO","label":"_message_ids","offset":0,"slot":"7","type":"t_uint256"},{"astId":116,"contract":"contracts/GreenDAO.sol:GreenDAO","label":"_message_read_ids","offset":0,"slot":"8","type":"t_uint256"},{"astId":118,"contract":"contracts/GreenDAO.sol:GreenDAO","label":"_reply_ids","offset":0,"slot":"9","type":"t_uint256"},{"astId":123,"contract":"contracts/GreenDAO.sol:GreenDAO","label":"_dao_uris","offset":0,"slot":"10","type":"t_mapping(t_uint256,t_struct(dao_uri_struct)9_storage)"},{"astId":127,"contract":"contracts/GreenDAO.sol:GreenDAO","label":"_template_uris","offset":0,"slot":"11","type":"t_mapping(t_uint256,t_string_storage)"},{"astId":132,"contract":"contracts/GreenDAO.sol:GreenDAO","label":"_joined_person","offset":0,"slot":"12","type":"t_mapping(t_uint256,t_struct(join_struct)79_storage)"},{"astId":137,"contract":"contracts/GreenDAO.sol:GreenDAO","label":"_goal_uris","offset":0,"slot":"13","type":"t_mapping(t_uint256,t_struct(goal_uri_struct)14_storage)"},{"astId":142,"contract":"contracts/GreenDAO.sol:GreenDAO","label":"_ideas_uris","offset":0,"slot":"14","type":"t_mapping(t_uint256,t_struct(ideas_uri_struct)21_storage)"},{"astId":146,"contract":"contracts/GreenDAO.sol:GreenDAO","label":"_donated","offset":0,"slot":"15","type":"t_mapping(t_string_memory_ptr,t_uint256)"},{"astId":151,"contract":"contracts/GreenDAO.sol:GreenDAO","label":"_donations","offset":0,"slot":"16","type":"t_mapping(t_uint256,t_struct(donation_struct)28_storage)"},{"astId":156,"contract":"contracts/GreenDAO.sol:GreenDAO","label":"_smart_contracts_uris","offset":0,"slot":"17","type":"t_mapping(t_uint256,t_struct(smart_contract_uri_struct)35_storage)"},{"astId":161,"contract":"contracts/GreenDAO.sol:GreenDAO","label":"all_goal_ideas_votes","offset":0,"slot":"18","type":"t_mapping(t_uint256,t_struct(goal_ideas_votes_struct)42_storage)"},{"astId":166,"contract":"contracts/GreenDAO.sol:GreenDAO","label":"all_messages","offset":0,"slot":"19","type":"t_mapping(t_uint256,t_struct(message_struct)51_storage)"},{"astId":171,"contract":"contracts/GreenDAO.sol:GreenDAO","label":"all_read_messages","offset":0,"slot":"20","type":"t_mapping(t_uint256,t_struct(message_read_struct)60_storage)"},{"astId":176,"contract":"contracts/GreenDAO.sol:GreenDAO","label":"all_replies","offset":0,"slot":"21","type":"t_mapping(t_uint256,t_struct(reply_struct)69_storage)"},{"astId":181,"contract":"contracts/GreenDAO.sol:GreenDAO","label":"_user_badges","offset":0,"slot":"22","type":"t_mapping(t_string_memory_ptr,t_struct(user_badge_struct)98_storage)"}],"types":{"t_bool":{"encoding":"inplace","label":"bool","numberOfBytes":"1"},"t_mapping(t_string_memory_ptr,t_struct(user_badge_struct)98_storage)":{"encoding":"mapping","key":"t_string_memory_ptr","label":"mapping(string => struct GreenDAO.user_badge_struct)","numberOfBytes":"32","value":"t_struct(user_badge_struct)98_storage"},"t_mapping(t_string_memory_ptr,t_uint256)":{"encoding":"mapping","key":"t_string_memory_ptr","label":"mapping(string => uint256)","numberOfBytes":"32","value":"t_uint256"},"t_mapping(t_uint256,t_string_storage)":{"encoding":"mapping","key":"t_uint256","label":"mapping(uint256 => string)","numberOfBytes":"32","value":"t_string_storage"},"t_mapping(t_uint256,t_struct(dao_uri_struct)9_storage)":{"encoding":"mapping","key":"t_uint256","label":"mapping(uint256 => struct GreenDAO.dao_uri_struct)","numberOfBytes":"32","value":"t_struct(dao_uri_struct)9_storage"},"t_mapping(t_uint256,t_struct(donation_struct)28_storage)":{"encoding":"mapping","key":"t_uint256","label":"mapping(uint256 => struct GreenDAO.donation_struct)","numberOfBytes":"32","value":"t_struct(donation_struct)28_storage"},"t_mapping(t_uint256,t_struct(goal_ideas_votes_struct)42_storage)":{"encoding":"mapping","key":"t_uint256","label":"mapping(uint256 => struct GreenDAO.goal_ideas_votes_struct)","numberOfBytes":"32","value":"t_struct(goal_ideas_votes_struct)42_storage"},"t_mapping(t_uint256,t_struct(goal_uri_struct)14_storage)":{"encoding":"mapping","key":"t_uint256","label":"mapping(uint256 => struct GreenDAO.goal_uri_struct)","numberOfBytes":"32","value":"t_struct(goal_uri_struct)14_storage"},"t_mapping(t_uint256,t_struct(ideas_uri_struct)21_storage)":{"encoding":"mapping","key":"t_uint256","label":"mapping(uint256 => struct GreenDAO.ideas_uri_struct)","numberOfBytes":"32","value":"t_struct(ideas_uri_struct)21_storage"},"t_mapping(t_uint256,t_struct(join_struct)79_storage)":{"encoding":"mapping","key":"t_uint256","label":"mapping(uint256 => struct GreenDAO.join_struct)","numberOfBytes":"32","value":"t_struct(join_struct)79_storage"},"t_mapping(t_uint256,t_struct(message_read_struct)60_storage)":{"encoding":"mapping","key":"t_uint256","label":"mapping(uint256 => struct GreenDAO.message_read_struct)","numberOfBytes":"32","value":"t_struct(message_read_struct)60_storage"},"t_mapping(t_uint256,t_struct(message_struct)51_storage)":{"encoding":"mapping","key":"t_uint256","label":"mapping(uint256 => struct GreenDAO.message_struct)","numberOfBytes":"32","value":"t_struct(message_struct)51_storage"},"t_mapping(t_uint256,t_struct(reply_struct)69_storage)":{"encoding":"mapping","key":"t_uint256","label":"mapping(uint256 => struct GreenDAO.reply_struct)","numberOfBytes":"32","value":"t_struct(reply_struct)69_storage"},"t_mapping(t_uint256,t_struct(smart_contract_uri_struct)35_storage)":{"encoding":"mapping","key":"t_uint256","label":"mapping(uint256 => struct GreenDAO.smart_contract_uri_struct)","numberOfBytes":"32","value":"t_struct(smart_contract_uri_struct)35_storage"},"t_string_memory_ptr":{"encoding":"bytes","label":"string","numberOfBytes":"32"},"t_string_storage":{"encoding":"bytes","label":"string","numberOfBytes":"32"},"t_struct(dao_uri_struct)9_storage":{"encoding":"inplace","label":"struct GreenDAO.dao_uri_struct","members":[{"astId":4,"contract":"contracts/GreenDAO.sol:GreenDAO","label":"dao_wallet","offset":0,"slot":"0","type":"t_string_storage"},{"astId":6,"contract":"contracts/GreenDAO.sol:GreenDAO","label":"dao_uri","offset":0,"slot":"1","type":"t_string_storage"},{"astId":8,"contract":"contracts/GreenDAO.sol:GreenDAO","label":"finished","offset":0,"slot":"2","type":"t_string_storage"}],"numberOfBytes":"96"},"t_struct(donation_struct)28_storage":{"encoding":"inplace","label":"struct GreenDAO.donation_struct","members":[{"astId":23,"contract":"contracts/GreenDAO.sol:GreenDAO","label":"ideas_id","offset":0,"slot":"0","type":"t_uint256"},{"astId":25,"contract":"contracts/GreenDAO.sol:GreenDAO","label":"wallet","offset":0,"slot":"1","type":"t_string_storage"},{"astId":27,"contract":"contracts/GreenDAO.sol:GreenDAO","label":"donation","offset":0,"slot":"2","type":"t_uint256"}],"numberOfBytes":"96"},"t_struct(goal_ideas_votes_struct)42_storage":{"encoding":"inplace","label":"struct GreenDAO.goal_ideas_votes_struct","members":[{"astId":37,"contract":"contracts/GreenDAO.sol:GreenDAO","label":"goal_id","offset":0,"slot":"0","type":"t_uint256"},{"astId":39,"contract":"contracts/GreenDAO.sol:GreenDAO","label":"ideas_id","offset":0,"slot":"1","type":"t_uint256"},{"astId":41,"contract":"contracts/GreenDAO.sol:GreenDAO","label":"wallet","offset":0,"slot":"2","type":"t_string_storage"}],"numberOfBytes":"96"},"t_struct(goal_uri_struct)14_storage":{"encoding":"inplace","label":"struct GreenDAO.goal_uri_struct","members":[{"astId":11,"contract":"contracts/GreenDAO.sol:GreenDAO","label":"dao_id","offset":0,"slot":"0","type":"t_uint256"},{"astId":13,"contract":"contracts/GreenDAO.sol:GreenDAO","label":"goal_uri","offset":0,"slot":"1","type":"t_string_storage"}],"numberOfBytes":"64"},"t_struct(ideas_uri_struct)21_storage":{"encoding":"inplace","label":"struct GreenDAO.ideas_uri_struct","members":[{"astId":16,"contract":"contracts/GreenDAO.sol:GreenDAO","label":"goal_id","offset":0,"slot":"0","type":"t_uint256"},{"astId":18,"contract":"contracts/GreenDAO.sol:GreenDAO","label":"ideas_uri","offset":0,"slot":"1","type":"t_string_storage"},{"astId":20,"contract":"contracts/GreenDAO.sol:GreenDAO","label":"donation","offset":0,"slot":"2","type":"t_uint256"}],"numberOfBytes":"96"},"t_struct(join_struct)79_storage":{"encoding":"inplace","label":"struct GreenDAO.join_struct","members":[{"astId":76,"contract":"contracts/GreenDAO.sol:GreenDAO","label":"daoid","offset":0,"slot":"0","type":"t_uint256"},{"astId":78,"contract":"contracts/GreenDAO.sol:GreenDAO","label":"wallet","offset":0,"slot":"1","type":"t_string_storage"}],"numberOfBytes":"64"},"t_struct(message_read_struct)60_storage":{"encoding":"inplace","label":"struct GreenDAO.message_read_struct","members":[{"astId":53,"contract":"contracts/GreenDAO.sol:GreenDAO","label":"message_id","offset":0,"slot":"0","type":"t_uint256"},{"astId":55,"contract":"contracts/GreenDAO.sol:GreenDAO","label":"ideas_id","offset":0,"slot":"1","type":"t_uint256"},{"astId":57,"contract":"contracts/GreenDAO.sol:GreenDAO","label":"wallet","offset":0,"slot":"2","type":"t_string_storage"},{"astId":59,"contract":"contracts/GreenDAO.sol:GreenDAO","label":"msg_type","offset":0,"slot":"3","type":"t_string_storage"}],"numberOfBytes":"128"},"t_struct(message_struct)51_storage":{"encoding":"inplace","label":"struct GreenDAO.message_struct","members":[{"astId":44,"contract":"contracts/GreenDAO.sol:GreenDAO","label":"message_id","offset":0,"slot":"0","type":"t_uint256"},{"astId":46,"contract":"contracts/GreenDAO.sol:GreenDAO","label":"ideas_id","offset":0,"slot":"1","type":"t_uint256"},{"astId":48,"contract":"contracts/GreenDAO.sol:GreenDAO","label":"message","offset":0,"slot":"2","type":"t_string_storage"},{"astId":50,"contract":"contracts/GreenDAO.sol:GreenDAO","label":"sender","offset":0,"slot":"3","type":"t_string_storage"}],"numberOfBytes":"128"},"t_struct(reply_struct)69_storage":{"encoding":"inplace","label":"struct GreenDAO.reply_struct","members":[{"astId":62,"contract":"contracts/GreenDAO.sol:GreenDAO","label":"reply_id","offset":0,"slot":"0","type":"t_uint256"},{"astId":64,"contract":"contracts/GreenDAO.sol:GreenDAO","label":"message_id","offset":0,"slot":"1","type":"t_uint256"},{"astId":66,"contract":"contracts/GreenDAO.sol:GreenDAO","label":"ideas_id","offset":0,"slot":"2","type":"t_uint256"},{"astId":68,"contract":"contracts/GreenDAO.sol:GreenDAO","label":"message","offset":0,"slot":"3","type":"t_string_storage"}],"numberOfBytes":"128"},"t_struct(smart_contract_uri_struct)35_storage":{"encoding":"inplace","label":"struct GreenDAO.smart_contract_uri_struct","members":[{"astId":30,"contract":"contracts/GreenDAO.sol:GreenDAO","label":"smart_contract_id","offset":0,"slot":"0","type":"t_uint256"},{"astId":32,"contract":"contracts/GreenDAO.sol:GreenDAO","label":"ideas_id","offset":0,"slot":"1","type":"t_uint256"},{"astId":34,"contract":"contracts/GreenDAO.sol:GreenDAO","label":"smart_contract_uri","offset":0,"slot":"2","type":"t_string_storage"}],"numberOfBytes":"96"},"t_struct(user_badge_struct)98_storage":{"encoding":"inplace","label":"struct GreenDAO.user_badge_struct","members":[{"astId":81,"contract":"contracts/GreenDAO.sol:GreenDAO","label":"wallet","offset":0,"slot":"0","type":"t_string_storage"},{"astId":83,"contract":"contracts/GreenDAO.sol:GreenDAO","label":"dao","offset":0,"slot":"1","type":"t_bool"},{"astId":85,"contract":"contracts/GreenDAO.sol:GreenDAO","label":"joined","offset":1,"slot":"1","type":"t_bool"},{"astId":87,"contract":"contracts/GreenDAO.sol:GreenDAO","label":"goal","offset":2,"slot":"1","type":"t_bool"},{"astId":89,"contract":"contracts/GreenDAO.sol:GreenDAO","label":"ideas","offset":3,"slot":"1","type":"t_bool"},{"astId":91,"contract":"contracts/GreenDAO.sol:GreenDAO","label":"vote","offset":4,"slot":"1","type":"t_bool"},{"astId":93,"contract":"contracts/GreenDAO.sol:GreenDAO","label":"donation","offset":5,"slot":"1","type":"t_bool"},{"astId":95,"contract":"contracts/GreenDAO.sol:GreenDAO","label":"comment","offset":6,"slot":"1","type":"t_bool"},{"astId":97,"contract":"contracts/GreenDAO.sol:GreenDAO","label":"reply","offset":7,"slot":"1","type":"t_bool"}],"numberOfBytes":"64"},"t_uint256":{"encoding":"inplace","label":"uint256","numberOfBytes":"32"}}},"userdoc":{"kind":"user","methods":{},"version":1}}}}