{
  "address": "0xfAB2Cd17079A68bF3638C3bF7E0ae894289CE2C6",
  "abi": [
    {
      "inputs": [],
      "name": "_dao_ids",
      "outputs": [
        {
          "internalType": "uint256",
          "name": "",
          "type": "uint256"
        }
      ],
      "stateMutability": "view",
      "type": "function"
    },
    {
      "inputs": [
        {
          "internalType": "uint256",
          "name": "",
          "type": "uint256"
        }
      ],
      "name": "_dao_uris",
      "outputs": [
        {
          "internalType": "string",
          "name": "dao_wallet",
          "type": "string"
        },
        {
          "internalType": "string",
          "name": "dao_uri",
          "type": "string"
        },
        {
          "internalType": "string",
          "name": "finished",
          "type": "string"
        }
      ],
      "stateMutability": "view",
      "type": "function"
    },
    {
      "inputs": [
        {
          "internalType": "string",
          "name": "",
          "type": "string"
        }
      ],
      "name": "_donated",
      "outputs": [
        {
          "internalType": "uint256",
          "name": "",
          "type": "uint256"
        }
      ],
      "stateMutability": "view",
      "type": "function"
    },
    {
      "inputs": [
        {
          "internalType": "uint256",
          "name": "",
          "type": "uint256"
        }
      ],
      "name": "_donations",
      "outputs": [
        {
          "internalType": "uint256",
          "name": "ideas_id",
          "type": "uint256"
        },
        {
          "internalType": "string",
          "name": "wallet",
          "type": "string"
        },
        {
          "internalType": "uint256",
          "name": "donation",
          "type": "uint256"
        }
      ],
      "stateMutability": "view",
      "type": "function"
    },
    {
      "inputs": [],
      "name": "_donations_ids",
      "outputs": [
        {
          "internalType": "uint256",
          "name": "",
          "type": "uint256"
        }
      ],
      "stateMutability": "view",
      "type": "function"
    },
    {
      "inputs": [],
      "name": "_goal_ids",
      "outputs": [
        {
          "internalType": "uint256",
          "name": "",
          "type": "uint256"
        }
      ],
      "stateMutability": "view",
      "type": "function"
    },
    {
      "inputs": [
        {
          "internalType": "uint256",
          "name": "",
          "type": "uint256"
        }
      ],
      "name": "_goal_uris",
      "outputs": [
        {
          "internalType": "uint256",
          "name": "dao_id",
          "type": "uint256"
        },
        {
          "internalType": "string",
          "name": "goal_uri",
          "type": "string"
        }
      ],
      "stateMutability": "view",
      "type": "function"
    },
    {
      "inputs": [],
      "name": "_ideas_ids",
      "outputs": [
        {
          "internalType": "uint256",
          "name": "",
          "type": "uint256"
        }
      ],
      "stateMutability": "view",
      "type": "function"
    },
    {
      "inputs": [
        {
          "internalType": "uint256",
          "name": "",
          "type": "uint256"
        }
      ],
      "name": "_ideas_uris",
      "outputs": [
        {
          "internalType": "uint256",
          "name": "goal_id",
          "type": "uint256"
        },
        {
          "internalType": "string",
          "name": "ideas_uri",
          "type": "string"
        },
        {
          "internalType": "uint256",
          "name": "donation",
          "type": "uint256"
        }
      ],
      "stateMutability": "view",
      "type": "function"
    },
    {
      "inputs": [],
      "name": "_ideas_vote_ids",
      "outputs": [
        {
          "internalType": "uint256",
          "name": "",
          "type": "uint256"
        }
      ],
      "stateMutability": "view",
      "type": "function"
    },
    {
      "inputs": [],
      "name": "_join_ids",
      "outputs": [
        {
          "internalType": "uint256",
          "name": "",
          "type": "uint256"
        }
      ],
      "stateMutability": "view",
      "type": "function"
    },
    {
      "inputs": [
        {
          "internalType": "uint256",
          "name": "",
          "type": "uint256"
        }
      ],
      "name": "_joined_person",
      "outputs": [
        {
          "internalType": "uint256",
          "name": "daoid",
          "type": "uint256"
        },
        {
          "internalType": "string",
          "name": "wallet",
          "type": "string"
        }
      ],
      "stateMutability": "view",
      "type": "function"
    },
    {
      "inputs": [],
      "name": "_message_ids",
      "outputs": [
        {
          "internalType": "uint256",
          "name": "",
          "type": "uint256"
        }
      ],
      "stateMutability": "view",
      "type": "function"
    },
    {
      "inputs": [],
      "name": "_message_read_ids",
      "outputs": [
        {
          "internalType": "uint256",
          "name": "",
          "type": "uint256"
        }
      ],
      "stateMutability": "view",
      "type": "function"
    },
    {
      "inputs": [],
      "name": "_reply_ids",
      "outputs": [
        {
          "internalType": "uint256",
          "name": "",
          "type": "uint256"
        }
      ],
      "stateMutability": "view",
      "type": "function"
    },
    {
      "inputs": [],
      "name": "_smart_contract_ids",
      "outputs": [
        {
          "internalType": "uint256",
          "name": "",
          "type": "uint256"
        }
      ],
      "stateMutability": "view",
      "type": "function"
    },
    {
      "inputs": [
        {
          "internalType": "uint256",
          "name": "",
          "type": "uint256"
        }
      ],
      "name": "_smart_contracts_uris",
      "outputs": [
        {
          "internalType": "uint256",
          "name": "smart_contract_id",
          "type": "uint256"
        },
        {
          "internalType": "uint256",
          "name": "ideas_id",
          "type": "uint256"
        },
        {
          "internalType": "string",
          "name": "smart_contract_uri",
          "type": "string"
        }
      ],
      "stateMutability": "view",
      "type": "function"
    },
    {
      "inputs": [
        {
          "internalType": "uint256",
          "name": "",
          "type": "uint256"
        }
      ],
      "name": "_template_uris",
      "outputs": [
        {
          "internalType": "string",
          "name": "",
          "type": "string"
        }
      ],
      "stateMutability": "view",
      "type": "function"
    },
    {
      "inputs": [
        {
          "internalType": "string",
          "name": "",
          "type": "string"
        }
      ],
      "name": "_user_badges",
      "outputs": [
        {
          "internalType": "string",
          "name": "wallet",
          "type": "string"
        },
        {
          "internalType": "bool",
          "name": "dao",
          "type": "bool"
        },
        {
          "internalType": "bool",
          "name": "joined",
          "type": "bool"
        },
        {
          "internalType": "bool",
          "name": "goal",
          "type": "bool"
        },
        {
          "internalType": "bool",
          "name": "ideas",
          "type": "bool"
        },
        {
          "internalType": "bool",
          "name": "vote",
          "type": "bool"
        },
        {
          "internalType": "bool",
          "name": "donation",
          "type": "bool"
        },
        {
          "internalType": "bool",
          "name": "comment",
          "type": "bool"
        },
        {
          "internalType": "bool",
          "name": "reply",
          "type": "bool"
        }
      ],
      "stateMutability": "view",
      "type": "function"
    },
    {
      "inputs": [],
      "name": "addTempData",
      "outputs": [],
      "stateMutability": "nonpayable",
      "type": "function"
    },
    {
      "inputs": [
        {
          "internalType": "uint256",
          "name": "_ideas_id",
          "type": "uint256"
        },
        {
          "internalType": "uint256",
          "name": "_doantion",
          "type": "uint256"
        },
        {
          "internalType": "string",
          "name": "_donator",
          "type": "string"
        }
      ],
      "name": "add_donation",
      "outputs": [],
      "stateMutability": "nonpayable",
      "type": "function"
    },
    {
      "inputs": [
        {
          "internalType": "uint256",
          "name": "",
          "type": "uint256"
        }
      ],
      "name": "all_goal_ideas_votes",
      "outputs": [
        {
          "internalType": "uint256",
          "name": "goal_id",
          "type": "uint256"
        },
        {
          "internalType": "uint256",
          "name": "ideas_id",
          "type": "uint256"
        },
        {
          "internalType": "string",
          "name": "wallet",
          "type": "string"
        }
      ],
      "stateMutability": "view",
      "type": "function"
    },
    {
      "inputs": [
        {
          "internalType": "uint256",
          "name": "",
          "type": "uint256"
        }
      ],
      "name": "all_messages",
      "outputs": [
        {
          "internalType": "uint256",
          "name": "message_id",
          "type": "uint256"
        },
        {
          "internalType": "uint256",
          "name": "ideas_id",
          "type": "uint256"
        },
        {
          "internalType": "string",
          "name": "message",
          "type": "string"
        },
        {
          "internalType": "string",
          "name": "sender",
          "type": "string"
        }
      ],
      "stateMutability": "view",
      "type": "function"
    },
    {
      "inputs": [
        {
          "internalType": "uint256",
          "name": "",
          "type": "uint256"
        }
      ],
      "name": "all_read_messages",
      "outputs": [
        {
          "internalType": "uint256",
          "name": "message_id",
          "type": "uint256"
        },
        {
          "internalType": "uint256",
          "name": "ideas_id",
          "type": "uint256"
        },
        {
          "internalType": "string",
          "name": "wallet",
          "type": "string"
        },
        {
          "internalType": "string",
          "name": "msg_type",
          "type": "string"
        }
      ],
      "stateMutability": "view",
      "type": "function"
    },
    {
      "inputs": [
        {
          "internalType": "uint256",
          "name": "",
          "type": "uint256"
        }
      ],
      "name": "all_replies",
      "outputs": [
        {
          "internalType": "uint256",
          "name": "reply_id",
          "type": "uint256"
        },
        {
          "internalType": "uint256",
          "name": "message_id",
          "type": "uint256"
        },
        {
          "internalType": "uint256",
          "name": "ideas_id",
          "type": "uint256"
        },
        {
          "internalType": "string",
          "name": "message",
          "type": "string"
        }
      ],
      "stateMutability": "view",
      "type": "function"
    },
    {
      "inputs": [
        {
          "internalType": "string",
          "name": "_dao_wallet",
          "type": "string"
        },
        {
          "internalType": "string",
          "name": "_dao_uri",
          "type": "string"
        },
        {
          "internalType": "string",
          "name": "_template",
          "type": "string"
        }
      ],
      "name": "create_dao",
      "outputs": [
        {
          "internalType": "uint256",
          "name": "",
          "type": "uint256"
        }
      ],
      "stateMutability": "nonpayable",
      "type": "function"
    },
    {
      "inputs": [
        {
          "internalType": "string",
          "name": "_goal_uri",
          "type": "string"
        },
        {
          "internalType": "uint256",
          "name": "_dao_id",
          "type": "uint256"
        },
        {
          "internalType": "string",
          "name": "_wallet",
          "type": "string"
        }
      ],
      "name": "create_goal",
      "outputs": [
        {
          "internalType": "uint256",
          "name": "",
          "type": "uint256"
        }
      ],
      "stateMutability": "nonpayable",
      "type": "function"
    },
    {
      "inputs": [
        {
          "internalType": "uint256",
          "name": "_goal_id",
          "type": "uint256"
        },
        {
          "internalType": "uint256",
          "name": "_ideas_id",
          "type": "uint256"
        },
        {
          "internalType": "string",
          "name": "_wallet",
          "type": "string"
        }
      ],
      "name": "create_goal_ideas_vote",
      "outputs": [
        {
          "internalType": "uint256",
          "name": "",
          "type": "uint256"
        }
      ],
      "stateMutability": "nonpayable",
      "type": "function"
    },
    {
      "inputs": [
        {
          "internalType": "string",
          "name": "_ideas_uri",
          "type": "string"
        },
        {
          "internalType": "uint256",
          "name": "_goal_id",
          "type": "uint256"
        },
        {
          "internalType": "string[]",
          "name": "_smart_contracts",
          "type": "string[]"
        },
        {
          "internalType": "string",
          "name": "_wallet",
          "type": "string"
        }
      ],
      "name": "create_ideas",
      "outputs": [
        {
          "internalType": "uint256",
          "name": "",
          "type": "uint256"
        }
      ],
      "stateMutability": "nonpayable",
      "type": "function"
    },
    {
      "inputs": [
        {
          "internalType": "uint256",
          "name": "_dao_id",
          "type": "uint256"
        }
      ],
      "name": "dao_uri",
      "outputs": [
        {
          "internalType": "string",
          "name": "",
          "type": "string"
        }
      ],
      "stateMutability": "view",
      "type": "function"
    },
    {
      "inputs": [
        {
          "internalType": "uint256",
          "name": "ideas_id",
          "type": "uint256"
        }
      ],
      "name": "getMsgIDs",
      "outputs": [
        {
          "internalType": "uint256[]",
          "name": "",
          "type": "uint256[]"
        }
      ],
      "stateMutability": "view",
      "type": "function"
    },
    {
      "inputs": [
        {
          "internalType": "uint256",
          "name": "_message_id",
          "type": "uint256"
        },
        {
          "internalType": "string",
          "name": "msg_type",
          "type": "string"
        }
      ],
      "name": "getReadMsg",
      "outputs": [
        {
          "internalType": "bool",
          "name": "",
          "type": "bool"
        }
      ],
      "stateMutability": "view",
      "type": "function"
    },
    {
      "inputs": [
        {
          "internalType": "uint256",
          "name": "message_id",
          "type": "uint256"
        }
      ],
      "name": "getReplyIDs",
      "outputs": [
        {
          "internalType": "uint256[]",
          "name": "",
          "type": "uint256[]"
        }
      ],
      "stateMutability": "view",
      "type": "function"
    },
    {
      "inputs": [],
      "name": "get_all_daos",
      "outputs": [
        {
          "internalType": "string[]",
          "name": "",
          "type": "string[]"
        }
      ],
      "stateMutability": "view",
      "type": "function"
    },
    {
      "inputs": [],
      "name": "get_all_goals",
      "outputs": [
        {
          "internalType": "string[]",
          "name": "",
          "type": "string[]"
        }
      ],
      "stateMutability": "view",
      "type": "function"
    },
    {
      "inputs": [
        {
          "internalType": "uint256",
          "name": "_dao_id",
          "type": "uint256"
        }
      ],
      "name": "get_all_goals_by_dao_id",
      "outputs": [
        {
          "internalType": "string[]",
          "name": "",
          "type": "string[]"
        }
      ],
      "stateMutability": "view",
      "type": "function"
    },
    {
      "inputs": [],
      "name": "get_all_ideas",
      "outputs": [
        {
          "internalType": "string[]",
          "name": "",
          "type": "string[]"
        }
      ],
      "stateMutability": "view",
      "type": "function"
    },
    {
      "inputs": [
        {
          "internalType": "uint256",
          "name": "_goal_id",
          "type": "uint256"
        }
      ],
      "name": "get_all_ideas_by_goal_id",
      "outputs": [
        {
          "internalType": "string[]",
          "name": "",
          "type": "string[]"
        }
      ],
      "stateMutability": "view",
      "type": "function"
    },
    {
      "inputs": [
        {
          "internalType": "string",
          "name": "_goal_uri",
          "type": "string"
        }
      ],
      "name": "get_goal_id_by_goal_uri",
      "outputs": [
        {
          "internalType": "uint256",
          "name": "",
          "type": "uint256"
        }
      ],
      "stateMutability": "view",
      "type": "function"
    },
    {
      "inputs": [
        {
          "internalType": "string",
          "name": "_ideas_uri",
          "type": "string"
        }
      ],
      "name": "get_goal_id_from_ideas_uri",
      "outputs": [
        {
          "internalType": "uint256",
          "name": "",
          "type": "uint256"
        }
      ],
      "stateMutability": "view",
      "type": "function"
    },
    {
      "inputs": [
        {
          "internalType": "string",
          "name": "_ideas_uri",
          "type": "string"
        }
      ],
      "name": "get_ideas_id_by_ideas_uri",
      "outputs": [
        {
          "internalType": "uint256",
          "name": "",
          "type": "uint256"
        }
      ],
      "stateMutability": "view",
      "type": "function"
    },
    {
      "inputs": [
        {
          "internalType": "uint256",
          "name": "_goal_id",
          "type": "uint256"
        },
        {
          "internalType": "uint256",
          "name": "_ideas_id",
          "type": "uint256"
        }
      ],
      "name": "get_ideas_votes_from_goal",
      "outputs": [
        {
          "internalType": "string[]",
          "name": "",
          "type": "string[]"
        }
      ],
      "stateMutability": "view",
      "type": "function"
    },
    {
      "inputs": [
        {
          "internalType": "uint256",
          "name": "_goal_id",
          "type": "uint256"
        }
      ],
      "name": "goal_uri",
      "outputs": [
        {
          "internalType": "string",
          "name": "",
          "type": "string"
        }
      ],
      "stateMutability": "view",
      "type": "function"
    },
    {
      "inputs": [
        {
          "internalType": "uint256",
          "name": "_ideas_id",
          "type": "uint256"
        }
      ],
      "name": "ideas_uri",
      "outputs": [
        {
          "internalType": "string",
          "name": "",
          "type": "string"
        }
      ],
      "stateMutability": "view",
      "type": "function"
    },
    {
      "inputs": [
        {
          "internalType": "string",
          "name": "wallet",
          "type": "string"
        }
      ],
      "name": "is_person_joined",
      "outputs": [
        {
          "internalType": "bool",
          "name": "",
          "type": "bool"
        }
      ],
      "stateMutability": "view",
      "type": "function"
    },
    {
      "inputs": [
        {
          "internalType": "uint256",
          "name": "dao_id",
          "type": "uint256"
        },
        {
          "internalType": "string",
          "name": "person",
          "type": "string"
        }
      ],
      "name": "join_community",
      "outputs": [],
      "stateMutability": "nonpayable",
      "type": "function"
    },
    {
      "inputs": [],
      "name": "reset_all",
      "outputs": [],
      "stateMutability": "nonpayable",
      "type": "function"
    },
    {
      "inputs": [
        {
          "internalType": "uint256",
          "name": "_ideas_id",
          "type": "uint256"
        },
        {
          "internalType": "string",
          "name": "_message",
          "type": "string"
        },
        {
          "internalType": "string",
          "name": "_sender",
          "type": "string"
        }
      ],
      "name": "sendMsg",
      "outputs": [
        {
          "internalType": "uint256",
          "name": "",
          "type": "uint256"
        }
      ],
      "stateMutability": "nonpayable",
      "type": "function"
    },
    {
      "inputs": [
        {
          "internalType": "uint256",
          "name": "_message_id",
          "type": "uint256"
        },
        {
          "internalType": "uint256",
          "name": "_ideas_id",
          "type": "uint256"
        },
        {
          "internalType": "string",
          "name": "_wallet",
          "type": "string"
        },
        {
          "internalType": "string",
          "name": "msg_type",
          "type": "string"
        }
      ],
      "name": "sendReadMsg",
      "outputs": [
        {
          "internalType": "uint256",
          "name": "",
          "type": "uint256"
        }
      ],
      "stateMutability": "nonpayable",
      "type": "function"
    },
    {
      "inputs": [
        {
          "internalType": "uint256",
          "name": "_message_id",
          "type": "uint256"
        },
        {
          "internalType": "string",
          "name": "_reply",
          "type": "string"
        },
        {
          "internalType": "uint256",
          "name": "ideas_id",
          "type": "uint256"
        },
        {
          "internalType": "string",
          "name": "_wallet",
          "type": "string"
        }
      ],
      "name": "sendReply",
      "outputs": [
        {
          "internalType": "uint256",
          "name": "",
          "type": "uint256"
        }
      ],
      "stateMutability": "nonpayable",
      "type": "function"
    },
    {
      "inputs": [
        {
          "internalType": "uint256",
          "name": "_dao_id",
          "type": "uint256"
        },
        {
          "internalType": "string",
          "name": "_dao_wallet",
          "type": "string"
        },
        {
          "internalType": "string",
          "name": "_dao_uri",
          "type": "string"
        }
      ],
      "name": "set_dao",
      "outputs": [],
      "stateMutability": "nonpayable",
      "type": "function"
    },
    {
      "inputs": [
        {
          "internalType": "uint256",
          "name": "_goal_id",
          "type": "uint256"
        },
        {
          "internalType": "string",
          "name": "_goal_uri",
          "type": "string"
        }
      ],
      "name": "set_goal",
      "outputs": [],
      "stateMutability": "nonpayable",
      "type": "function"
    },
    {
      "inputs": [
        {
          "internalType": "uint256",
          "name": "_ideas_id",
          "type": "uint256"
        },
        {
          "internalType": "string",
          "name": "_ideas_uri",
          "type": "string"
        }
      ],
      "name": "set_ideas",
      "outputs": [],
      "stateMutability": "nonpayable",
      "type": "function"
    },
    {
      "inputs": [
        {
          "internalType": "uint256",
          "name": "_dao_id",
          "type": "uint256"
        },
        {
          "internalType": "string",
          "name": "_template",
          "type": "string"
        }
      ],
      "name": "update_template",
      "outputs": [],
      "stateMutability": "nonpayable",
      "type": "function"
    }
  ],
  "transactionHash": "0xdbaf033ac21fcda720cf4ef70a6d5a5e1e90805017f8c9e143392d09f1e137f2",
  "args": [],
  "numDeployments": 1,
  "solcInputHash": "1c9a27965bdf9b5e651e589ad807d630",
  "bytecode": "0x608060405234801561001057600080fd5b506153bc806100206000396000f3fe608060405234801561001057600080fd5b50600436106103425760003560e01c8063812fae1f116101b8578063b527d45e11610104578063d3791b20116100a2578063ec2458021161007c578063ec24580214610b26578063ec39925514610b44578063eca7f5fe14610b74578063ff4a37ef14610ba457610342565b8063d3791b2014610abc578063e32acc1a14610ada578063e3863cef14610b0a57610342565b8063c29595c5116100de578063c29595c514610a1f578063ca013f1714610a3b578063cace8d4614610a59578063cd23080914610a8c57610342565b8063b527d45e146109b2578063c04e7430146109e5578063c04fe97814610a0157610342565b80639077007d11610171578063a1ca91781161014b578063a1ca91781461092a578063aa2bf5d31461095a578063aa4cdf2a14610978578063b16060a6146109a857610342565b80639077007d146108b657806397ee7606146108d45780639f9ff54b146108f257610342565b8063812fae1f146107be57806382fcc732146107ee57806387633eb21461081e578063881de8581461083a5780638c59143d146108565780638d3d25951461088657610342565b80633f87a2f4116102925780636ecda4ee116102305780637bbd582d1161020a5780637bbd582d1461070d5780637f2035d41461072b5780637fc543ec1461075c578063803f5b9f1461078e57610342565b80636ecda4ee1461067d57806377935be7146106ad57806377b2ec23146106dd57610342565b80634a797bd71161026c5780634a797bd7146105e35780634be7adb5146106015780635132f0c7146106315780635d907da11461064d57610342565b80633f87a2f41461054e578063468d0c8014610581578063494ce295146105b357610342565b80631b592aeb116102ff57806327a568b9116102d957806327a568b91461049d57806329b56f60146104cf578063330b8f26146104ed5780633f50602f1461051e57610342565b80631b592aeb1461041d5780631ba44c4c1461043b5780631e9ac9f51461046d57610342565b80630c90f09d14610347578063109ac970146103515780631171b62114610381578063131d44f21461039f57806313bf4cea146103cf57806318426b46146103ed575b600080fd5b61034f610bd6565b005b61036b600480360381019061036691906133c5565b610cb6565b604051610378919061354d565b60405180910390f35b610389610e26565b604051610396919061357e565b60405180910390f35b6103b960048036038101906103b491906133c5565b610e2c565b6040516103c6919061354d565b60405180910390f35b6103d7610f9c565b6040516103e4919061357e565b60405180910390f35b610407600480360381019061040291906137b4565b610fa2565b604051610414919061357e565b60405180910390f35b6104256110c9565b604051610432919061357e565b60405180910390f35b610455600480360381019061045091906133c5565b6110cf565b604051610464939291906138b9565b60405180910390f35b610487600480360381019061048291906138f7565b611181565b604051610494919061357e565b60405180910390f35b6104b760048036038101906104b291906133c5565b6111f3565b6040516104c693929190613940565b60405180910390f35b6104d76113b5565b6040516104e4919061354d565b60405180910390f35b610507600480360381019061050291906133c5565b6114f0565b60405161051592919061398c565b60405180910390f35b610538600480360381019061053391906139bc565b61159c565b604051610545919061357e565b60405180910390f35b610568600480360381019061056391906133c5565b611685565b6040516105789493929190613a47565b60405180910390f35b61059b600480360381019061059691906133c5565b61173d565b6040516105aa93929190613a93565b60405180910390f35b6105cd60048036038101906105c89190613ad1565b6117ef565b6040516105da919061357e565b60405180910390f35b6105eb6118c6565b6040516105f8919061357e565b60405180910390f35b61061b60048036038101906106169190613b70565b6118cc565b604051610628919061354d565b60405180910390f35b61064b60048036038101906106469190613bb0565b611a5e565b005b610667600480360381019061066291906133c5565b611b08565b6040516106749190613c0c565b60405180910390f35b610697600480360381019061069291906133c5565b611bb0565b6040516106a49190613c0c565b60405180910390f35b6106c760048036038101906106c291906138f7565b611c50565b6040516106d4919061357e565b60405180910390f35b6106f760048036038101906106f29190613c2e565b611c7e565b604051610704919061357e565b60405180910390f35b610715611d32565b604051610722919061357e565b60405180910390f35b610745600480360381019061074091906133c5565b611d38565b60405161075392919061398c565b60405180910390f35b610776600480360381019061077191906133c5565b611de4565b60405161078593929190613a93565b60405180910390f35b6107a860048036038101906107a391906133c5565b611e96565b6040516107b59190613d77565b60405180910390f35b6107d860048036038101906107d391906133c5565b611f7a565b6040516107e59190613d77565b60405180910390f35b61080860048036038101906108039190613d99565b61205e565b604051610815919061357e565b60405180910390f35b61083860048036038101906108339190613bb0565b612122565b005b610854600480360381019061084f91906139bc565b61214e565b005b610870600480360381019061086b9190613e08565b6121a9565b60405161087d919061357e565b60405180910390f35b6108a0600480360381019061089b91906133c5565b612257565b6040516108ad9190613c0c565b60405180910390f35b6108be6122ff565b6040516108cb919061357e565b60405180910390f35b6108dc612305565b6040516108e9919061354d565b60405180910390f35b61090c600480360381019061090791906138f7565b612440565b60405161092199989796959493929190613ec2565b60405180910390f35b610944600480360381019061093f91906138f7565b612594565b604051610951919061357e565b60405180910390f35b610962612606565b60405161096f919061357e565b60405180910390f35b610992600480360381019061098d91906138f7565b61260c565b60405161099f919061357e565b60405180910390f35b6109b0612694565b005b6109cc60048036038101906109c791906133c5565b612946565b6040516109dc9493929190613f56565b60405180910390f35b6109ff60048036038101906109fa9190613bb0565b612a86565b005b610a09612ab5565b604051610a16919061354d565b60405180910390f35b610a396004803603810190610a349190613bb0565b612bef565b005b610a43612c1e565b604051610a50919061357e565b60405180910390f35b610a736004803603810190610a6e91906133c5565b612c24565b604051610a839493929190613f56565b60405180910390f35b610aa66004803603810190610aa19190613bb0565b612d64565b604051610ab39190613fa9565b60405180910390f35b610ac4612df5565b604051610ad1919061357e565b60405180910390f35b610af46004803603810190610aef91906133c5565b612dfb565b604051610b019190613c0c565b60405180910390f35b610b246004803603810190610b1f9190613d99565b612ea3565b005b610b2e612fc0565b604051610b3b919061357e565b60405180910390f35b610b5e6004803603810190610b599190613fc4565b612fc6565b604051610b6b919061357e565b60405180910390f35b610b8e6004803603810190610b8991906138f7565b61310c565b604051610b9b9190613fa9565b60405180910390f35b610bbe6004803603810190610bb991906133c5565b61317f565b604051610bcd939291906138b9565b60405180910390f35b610c2f6040518060600160405280602a81526020016142d3602a91396040518061030001604052806102c381526020016146766102c3913960405180610780016040528061075b815260200161493961075b9139612fc6565b50610c6f6040518061032001604052806102f381526020016150946102f3913960006040518060600160405280602a81526020016142d3602a9139611c7e565b506060610cb2604051806103a0016040528061037981526020016142fd61037991396000836040518060600160405280602a81526020016142d3602a9139610fa2565b5050565b6060600060025467ffffffffffffffff811115610cd657610cd56135a3565b5b604051908082528060200260200182016040528015610d0957816020015b6060815260200190600190039081610cf45790505b509050600080600090505b600254811015610e1b5784600d6000838152602001908152602001600020600001541415610e0857600d60008281526020019081526020016000206001018054610d5d9061409a565b80601f0160208091040260200160405190810160405280929190818152602001828054610d899061409a565b8015610dd65780601f10610dab57610100808354040283529160200191610dd6565b820191906000526020600020905b815481529060010190602001808311610db957829003601f168201915b5050505050838381518110610dee57610ded6140cc565b5b60200260200101819052508180610e049061412a565b9250505b8080610e139061412a565b915050610d14565b508192505050919050565b60045481565b6060600060035467ffffffffffffffff811115610e4c57610e4b6135a3565b5b604051908082528060200260200182016040528015610e7f57816020015b6060815260200190600190039081610e6a5790505b509050600080600090505b600354811015610f915784600e6000838152602001908152602001600020600001541415610f7057600e60008281526020019081526020016000206001018054610ed39061409a565b80601f0160208091040260200160405190810160405280929190818152602001828054610eff9061409a565b8015610f4c5780601f10610f2157610100808354040283529160200191610f4c565b820191906000526020600020905b815481529060010190602001808311610f2f57829003601f168201915b5050505050838381518110610f6457610f636140cc565b5b60200260200101819052505b8180610f7b9061412a565b9250508080610f899061412a565b915050610e8a565b508192505050919050565b60025481565b600060405180606001604052808581526020018681526020016000815250600e60006003548152602001908152602001600020600082015181600001556020820151816001019080519060200190610ffb929190613298565b5060408201518160020155905050600160168360405161101b91906141af565b908152602001604051809103902060010160036101000a81548160ff021916908315150217905550600360008154809291906110569061412a565b919050555060005b83518110156110bb57611090600354600554868481518110611083576110826140cc565b5b6020026020010151613231565b600560008154809291906110a39061412a565b919050555080806110b39061412a565b91505061105e565b506003549050949350505050565b60055481565b60126020528060005260406000206000915090508060000154908060010154908060020180546110fe9061409a565b80601f016020809104026020016040519081016040528092919081815260200182805461112a9061409a565b80156111775780601f1061114c57610100808354040283529160200191611177565b820191906000526020600020905b81548152906001019060200180831161115a57829003601f168201915b5050505050905083565b600080600090505b6002548110156111e8578280519060200120600d60008381526020019081526020016000206001016040516111be9190614265565b604051809103902014156111d557809150506111ee565b80806111e09061412a565b915050611189565b50600090505b919050565b600a6020528060005260406000206000915090508060000180546112169061409a565b80601f01602080910402602001604051908101604052809291908181526020018280546112429061409a565b801561128f5780601f106112645761010080835404028352916020019161128f565b820191906000526020600020905b81548152906001019060200180831161127257829003601f168201915b5050505050908060010180546112a49061409a565b80601f01602080910402602001604051908101604052809291908181526020018280546112d09061409a565b801561131d5780601f106112f25761010080835404028352916020019161131d565b820191906000526020600020905b81548152906001019060200180831161130057829003601f168201915b5050505050908060020180546113329061409a565b80601f016020809104026020016040519081016040528092919081815260200182805461135e9061409a565b80156113ab5780601f10611380576101008083540402835291602001916113ab565b820191906000526020600020905b81548152906001019060200180831161138e57829003601f168201915b5050505050905083565b6060600060025467ffffffffffffffff8111156113d5576113d46135a3565b5b60405190808252806020026020018201604052801561140857816020015b60608152602001906001900390816113f35790505b50905060005b6002548110156114e857600d600082815260200190815260200160002060010180546114399061409a565b80601f01602080910402602001604051908101604052809291908181526020018280546114659061409a565b80156114b25780601f10611487576101008083540402835291602001916114b2565b820191906000526020600020905b81548152906001019060200180831161149557829003601f168201915b50505050508282815181106114ca576114c96140cc565b5b602002602001018190525080806114e09061412a565b91505061140e565b508091505090565b600c6020528060005260406000206000915090508060000154908060010180546115199061409a565b80601f01602080910402602001604051908101604052809291908181526020018280546115459061409a565b80156115925780601f1061156757610100808354040283529160200191611592565b820191906000526020600020905b81548152906001019060200180831161157557829003601f168201915b5050505050905082565b600060016016836040516115b091906141af565b908152602001604051809103902060010160066101000a81548160ff021916908315150217905550604051806080016040528060075481526020018581526020018481526020018381525060136000600754815260200190815260200160002060008201518160000155602082015181600101556040820151816002019080519060200190611640929190613298565b50606082015181600301908051906020019061165d929190613298565b50905050600760008154809291906116749061412a565b919050555060075490509392505050565b60156020528060005260406000206000915090508060000154908060010154908060020154908060030180546116ba9061409a565b80601f01602080910402602001604051908101604052809291908181526020018280546116e69061409a565b80156117335780601f1061170857610100808354040283529160200191611733565b820191906000526020600020905b81548152906001019060200180831161171657829003601f168201915b5050505050905084565b600e6020528060005260406000206000915090508060000154908060010180546117669061409a565b80601f01602080910402602001604051908101604052809291908181526020018280546117929061409a565b80156117df5780601f106117b4576101008083540402835291602001916117df565b820191906000526020600020905b8154815290600101906020018083116117c257829003601f168201915b5050505050908060020154905083565b6000600160168360405161180391906141af565b908152602001604051809103902060010160076101000a81548160ff0219169083151502179055506040518060800160405280600954815260200186815260200184815260200185815250601560006009548152602001908152602001600020600082015181600001556020820151816001015560408201518160020155606082015181600301908051906020019061189d929190613298565b50905050600960008154809291906118b49061412a565b91905055506009549050949350505050565b60065481565b6060600060065467ffffffffffffffff8111156118ec576118eb6135a3565b5b60405190808252806020026020018201604052801561191f57816020015b606081526020019060019003908161190a5790505b509050600080600090505b600654811015611a525785601260008381526020019081526020016000206000015414801561196e5750846012600083815260200190815260200160002060010154145b15611a31576012600082815260200190815260200160002060020180546119949061409a565b80601f01602080910402602001604051908101604052809291908181526020018280546119c09061409a565b8015611a0d5780601f106119e257610100808354040283529160200191611a0d565b820191906000526020600020905b8154815290600101906020018083116119f057829003601f168201915b5050505050838381518110611a2557611a246140cc565b5b60200260200101819052505b8180611a3c9061412a565b9250508080611a4a9061412a565b91505061192a565b50819250505092915050565b6001601682604051611a7091906141af565b908152602001604051809103902060010160016101000a81548160ff021916908315150217905550604051806040016040528083815260200182815250600c60006004548152602001908152602001600020600082015181600001556020820151816001019080519060200190611ae8929190613298565b5090505060046000815480929190611aff9061412a565b91905055505050565b6060600a60008381526020019081526020016000206001018054611b2b9061409a565b80601f0160208091040260200160405190810160405280929190818152602001828054611b579061409a565b8015611ba45780601f10611b7957610100808354040283529160200191611ba4565b820191906000526020600020905b815481529060010190602001808311611b8757829003601f168201915b50505050509050919050565b600b6020528060005260406000206000915090508054611bcf9061409a565b80601f0160208091040260200160405190810160405280929190818152602001828054611bfb9061409a565b8015611c485780601f10611c1d57610100808354040283529160200191611c48565b820191906000526020600020905b815481529060010190602001808311611c2b57829003601f168201915b505050505081565b600f818051602081018201805184825260208301602085012081835280955050505050506000915090505481565b6000604051806040016040528084815260200185815250600d60006002548152602001908152602001600020600082015181600001556020820151816001019080519060200190611cd0929190613298565b509050506001601683604051611ce691906141af565b908152602001604051809103902060010160026101000a81548160ff02191690831515021790555060026000815480929190611d219061412a565b919050555060025490509392505050565b60005481565b600d602052806000526040600020600091509050806000015490806001018054611d619061409a565b80601f0160208091040260200160405190810160405280929190818152602001828054611d8d9061409a565b8015611dda5780601f10611daf57610100808354040283529160200191611dda565b820191906000526020600020905b815481529060010190602001808311611dbd57829003601f168201915b5050505050905082565b6010602052806000526040600020600091509050806000015490806001018054611e0d9061409a565b80601f0160208091040260200160405190810160405280929190818152602001828054611e399061409a565b8015611e865780601f10611e5b57610100808354040283529160200191611e86565b820191906000526020600020905b815481529060010190602001808311611e6957829003601f168201915b5050505050908060020154905083565b6060600060075467ffffffffffffffff811115611eb657611eb56135a3565b5b604051908082528060200260200182016040528015611ee45781602001602082028036833780820191505090505b509050600080600090505b600754811015611f6f578460136000838152602001908152602001600020600101541415611f5c576013600082815260200190815260200160002060000154838381518110611f4157611f406140cc565b5b6020026020010181815250508180611f589061412a565b9250505b8080611f679061412a565b915050611eef565b508192505050919050565b6060600060095467ffffffffffffffff811115611f9a57611f996135a3565b5b604051908082528060200260200182016040528015611fc85781602001602082028036833780820191505090505b509050600080600090505b600954811015612053578460156000838152602001908152602001600020600101541415612040576015600082815260200190815260200160002060000154838381518110612025576120246140cc565b5b602002602001018181525050818061203c9061412a565b9250505b808061204b9061412a565b915050611fd3565b508192505050919050565b6000600160168360405161207291906141af565b908152602001604051809103902060010160046101000a81548160ff021916908315150217905550604051806060016040528085815260200184815260200183815250601260006006548152602001908152602001600020600082015181600001556020820151816001015560408201518160020190805190602001906120fa929190613298565b50905050600660008154809291906121119061412a565b919050555060065490509392505050565b80600b60008481526020019081526020016000209080519060200190612149929190613298565b505050565b81600a60008581526020019081526020016000206000019080519060200190612178929190613298565b5080600a600085815260200190815260200160002060010190805190602001906121a3929190613298565b50505050565b600060405180608001604052808681526020018581526020018481526020018381525060146000600854815260200190815260200160002060008201518160000155602082015181600101556040820151816002019080519060200190612211929190613298565b50606082015181600301908051906020019061222e929190613298565b50905050600860008154809291906122459061412a565b91905055506008549050949350505050565b6060600e6000838152602001908152602001600020600101805461227a9061409a565b80601f01602080910402602001604051908101604052809291908181526020018280546122a69061409a565b80156122f35780601f106122c8576101008083540402835291602001916122f3565b820191906000526020600020905b8154815290600101906020018083116122d657829003601f168201915b50505050509050919050565b60075481565b6060600060035467ffffffffffffffff811115612325576123246135a3565b5b60405190808252806020026020018201604052801561235857816020015b60608152602001906001900390816123435790505b50905060005b60035481101561243857600e600082815260200190815260200160002060010180546123899061409a565b80601f01602080910402602001604051908101604052809291908181526020018280546123b59061409a565b80156124025780601f106123d757610100808354040283529160200191612402565b820191906000526020600020905b8154815290600101906020018083116123e557829003601f168201915b505050505082828151811061241a576124196140cc565b5b602002602001018190525080806124309061412a565b91505061235e565b508091505090565b6016818051602081018201805184825260208301602085012081835280955050505050506000915090508060000180546124799061409a565b80601f01602080910402602001604051908101604052809291908181526020018280546124a59061409a565b80156124f25780601f106124c7576101008083540402835291602001916124f2565b820191906000526020600020905b8154815290600101906020018083116124d557829003601f168201915b5050505050908060010160009054906101000a900460ff16908060010160019054906101000a900460ff16908060010160029054906101000a900460ff16908060010160039054906101000a900460ff16908060010160049054906101000a900460ff16908060010160059054906101000a900460ff16908060010160069054906101000a900460ff16908060010160079054906101000a900460ff16905089565b600080600090505b6003548110156125fb578280519060200120600e60008381526020019081526020016000206001016040516125d19190614265565b604051809103902014156125e85780915050612601565b80806125f39061412a565b91505061259c565b50600090505b919050565b60095481565b600080600090505b600354811015612689578280519060200120600e60008381526020019081526020016000206001016040516126499190614265565b6040518091039020141561267657600e60008281526020019081526020016000206000015491505061268f565b80806126819061412a565b915050612614565b50600090505b919050565b60005b6000548110156126fa57600a6000828152602001908152602001600020600080820160006126c5919061331e565b6001820160006126d5919061331e565b6002820160006126e5919061331e565b505080806126f29061412a565b915050612697565b5060005b60025481101561274957600d6000828152602001908152602001600020600080820160009055600182016000612734919061331e565b505080806127419061412a565b9150506126fe565b5060005b6003548110156127a057600e6000828152602001908152602001600020600080820160009055600182016000612783919061331e565b6002820160009055505080806127989061412a565b91505061274d565b5060005b6002548110156127f7576011600082815260200190815260200160002060008082016000905560018201600090556002820160006127e2919061331e565b505080806127ef9061412a565b9150506127a4565b5060005b60075481101561285e57601360008281526020019081526020016000206000808201600090556001820160009055600282016000612839919061331e565b600382016000612849919061331e565b505080806128569061412a565b9150506127fb565b5060005b6009548110156128bd5760156000828152602001908152602001600020600080820160009055600182016000905560028201600090556003820160006128a8919061331e565b505080806128b59061412a565b915050612862565b5060005b600654811015612914576012600082815260200190815260200160002060008082016000905560018201600090556002820160006128ff919061331e565b5050808061290c9061412a565b9150506128c1565b506000808190555060006002819055506000600381905550600060078190555060006009819055506000600681905550565b60136020528060005260406000206000915090508060000154908060010154908060020180546129759061409a565b80601f01602080910402602001604051908101604052809291908181526020018280546129a19061409a565b80156129ee5780601f106129c3576101008083540402835291602001916129ee565b820191906000526020600020905b8154815290600101906020018083116129d157829003601f168201915b505050505090806003018054612a039061409a565b80601f0160208091040260200160405190810160405280929190818152602001828054612a2f9061409a565b8015612a7c5780601f10612a5157610100808354040283529160200191612a7c565b820191906000526020600020905b815481529060010190602001808311612a5f57829003601f168201915b5050505050905084565b80600e60008481526020019081526020016000206001019080519060200190612ab0929190613298565b505050565b60606000805467ffffffffffffffff811115612ad457612ad36135a3565b5b604051908082528060200260200182016040528015612b0757816020015b6060815260200190600190039081612af25790505b50905060005b600054811015612be757600a60008281526020019081526020016000206001018054612b389061409a565b80601f0160208091040260200160405190810160405280929190818152602001828054612b649061409a565b8015612bb15780601f10612b8657610100808354040283529160200191612bb1565b820191906000526020600020905b815481529060010190602001808311612b9457829003601f168201915b5050505050828281518110612bc957612bc86140cc565b5b60200260200101819052508080612bdf9061412a565b915050612b0d565b508091505090565b80600d60008481526020019081526020016000206001019080519060200190612c19929190613298565b505050565b60085481565b6014602052806000526040600020600091509050806000015490806001015490806002018054612c539061409a565b80601f0160208091040260200160405190810160405280929190818152602001828054612c7f9061409a565b8015612ccc5780601f10612ca157610100808354040283529160200191612ccc565b820191906000526020600020905b815481529060010190602001808311612caf57829003601f168201915b505050505090806003018054612ce19061409a565b80601f0160208091040260200160405190810160405280929190818152602001828054612d0d9061409a565b8015612d5a5780601f10612d2f57610100808354040283529160200191612d5a565b820191906000526020600020905b815481529060010190602001808311612d3d57829003601f168201915b5050505050905084565b6000806000905060005b600854811015612dea57846014600083815260200190815260200160002060000154148015612dcd575060146000828152602001908152602001600020600301604051612dbb9190614265565b60405180910390208480519060200120145b15612dd757600191505b8080612de29061412a565b915050612d6e565b508091505092915050565b60035481565b6060600d60008381526020019081526020016000206001018054612e1e9061409a565b80601f0160208091040260200160405190810160405280929190818152602001828054612e4a9061409a565b8015612e975780601f10612e6c57610100808354040283529160200191612e97565b820191906000526020600020905b815481529060010190602001808311612e7a57829003601f168201915b50505050509050919050565b6001601682604051612eb591906141af565b908152602001604051809103902060010160056101000a81548160ff02191690831515021790555081600e60008581526020019081526020016000206002016000828254612f03919061427c565b9250508190555081600f82604051612f1b91906141af565b90815260200160405180910390206000828254612f38919061427c565b92505081905550604051806060016040528084815260200182815260200183815250601060006001548152602001908152602001600020600082015181600001556020820151816001019080519060200190612f95929190613298565b506040820151816002015590505060016000815480929190612fb69061412a565b9190505550505050565b60015481565b600060405180606001604052808581526020018481526020016040518060400160405280600581526020017f46616c7365000000000000000000000000000000000000000000000000000000815250815250600a6000805481526020019081526020016000206000820151816000019080519060200190613048929190613298565b506020820151816001019080519060200190613065929190613298565b506040820151816002019080519060200190613082929190613298565b5090505081600b60008054815260200190815260200160002090805190602001906130ae929190613298565b5060016016856040516130c191906141af565b908152602001604051809103902060010160006101000a81548160ff0219169083151502179055506000808154809291906130fb9061412a565b919050555060005490509392505050565b600080600090505b600454811015613174578280519060200120600c60008381526020019081526020016000206001016040516131499190614265565b6040518091039020141561316157600191505061317a565b808061316c9061412a565b915050613114565b50600090505b919050565b60116020528060005260406000206000915090508060000154908060010154908060020180546131ae9061409a565b80601f01602080910402602001604051908101604052809291908181526020018280546131da9061409a565b80156132275780601f106131fc57610100808354040283529160200191613227565b820191906000526020600020905b81548152906001019060200180831161320a57829003601f168201915b5050505050905083565b604051806060016040528084815260200183815260200182815250601160008481526020019081526020016000206000820151816000015560208201518160010155604082015181600201908051906020019061328f929190613298565b50905050505050565b8280546132a49061409a565b90600052602060002090601f0160209004810192826132c6576000855561330d565b82601f106132df57805160ff191683800117855561330d565b8280016001018555821561330d579182015b8281111561330c5782518255916020019190600101906132f1565b5b50905061331a919061335e565b5090565b50805461332a9061409a565b6000825580601f1061333c575061335b565b601f01602090049060005260206000209081019061335a919061335e565b5b50565b5b8082111561337757600081600090555060010161335f565b5090565b6000604051905090565b600080fd5b600080fd5b6000819050919050565b6133a28161338f565b81146133ad57600080fd5b50565b6000813590506133bf81613399565b92915050565b6000602082840312156133db576133da613385565b5b60006133e9848285016133b0565b91505092915050565b600081519050919050565b600082825260208201905092915050565b6000819050602082019050919050565b600081519050919050565b600082825260208201905092915050565b60005b8381101561345857808201518184015260208101905061343d565b83811115613467576000848401525b50505050565b6000601f19601f8301169050919050565b60006134898261341e565b6134938185613429565b93506134a381856020860161343a565b6134ac8161346d565b840191505092915050565b60006134c3838361347e565b905092915050565b6000602082019050919050565b60006134e3826133f2565b6134ed81856133fd565b9350836020820285016134ff8561340e565b8060005b8581101561353b578484038952815161351c85826134b7565b9450613527836134cb565b925060208a01995050600181019050613503565b50829750879550505050505092915050565b6000602082019050818103600083015261356781846134d8565b905092915050565b6135788161338f565b82525050565b6000602082019050613593600083018461356f565b92915050565b600080fd5b600080fd5b7f4e487b7100000000000000000000000000000000000000000000000000000000600052604160045260246000fd5b6135db8261346d565b810181811067ffffffffffffffff821117156135fa576135f96135a3565b5b80604052505050565b600061360d61337b565b905061361982826135d2565b919050565b600067ffffffffffffffff821115613639576136386135a3565b5b6136428261346d565b9050602081019050919050565b82818337600083830152505050565b600061367161366c8461361e565b613603565b90508281526020810184848401111561368d5761368c61359e565b5b61369884828561364f565b509392505050565b600082601f8301126136b5576136b4613599565b5b81356136c584826020860161365e565b91505092915050565b600067ffffffffffffffff8211156136e9576136e86135a3565b5b602082029050602081019050919050565b600080fd5b600061371261370d846136ce565b613603565b90508083825260208201905060208402830185811115613735576137346136fa565b5b835b8181101561377c57803567ffffffffffffffff81111561375a57613759613599565b5b80860161376789826136a0565b85526020850194505050602081019050613737565b5050509392505050565b600082601f83011261379b5761379a613599565b5b81356137ab8482602086016136ff565b91505092915050565b600080600080608085870312156137ce576137cd613385565b5b600085013567ffffffffffffffff8111156137ec576137eb61338a565b5b6137f8878288016136a0565b9450506020613809878288016133b0565b935050604085013567ffffffffffffffff81111561382a5761382961338a565b5b61383687828801613786565b925050606085013567ffffffffffffffff8111156138575761385661338a565b5b613863878288016136a0565b91505092959194509250565b600082825260208201905092915050565b600061388b8261341e565b613895818561386f565b93506138a581856020860161343a565b6138ae8161346d565b840191505092915050565b60006060820190506138ce600083018661356f565b6138db602083018561356f565b81810360408301526138ed8184613880565b9050949350505050565b60006020828403121561390d5761390c613385565b5b600082013567ffffffffffffffff81111561392b5761392a61338a565b5b613937848285016136a0565b91505092915050565b6000606082019050818103600083015261395a8186613880565b9050818103602083015261396e8185613880565b905081810360408301526139828184613880565b9050949350505050565b60006040820190506139a1600083018561356f565b81810360208301526139b38184613880565b90509392505050565b6000806000606084860312156139d5576139d4613385565b5b60006139e3868287016133b0565b935050602084013567ffffffffffffffff811115613a0457613a0361338a565b5b613a10868287016136a0565b925050604084013567ffffffffffffffff811115613a3157613a3061338a565b5b613a3d868287016136a0565b9150509250925092565b6000608082019050613a5c600083018761356f565b613a69602083018661356f565b613a76604083018561356f565b8181036060830152613a888184613880565b905095945050505050565b6000606082019050613aa8600083018661356f565b8181036020830152613aba8185613880565b9050613ac9604083018461356f565b949350505050565b60008060008060808587031215613aeb57613aea613385565b5b6000613af9878288016133b0565b945050602085013567ffffffffffffffff811115613b1a57613b1961338a565b5b613b26878288016136a0565b9350506040613b37878288016133b0565b925050606085013567ffffffffffffffff811115613b5857613b5761338a565b5b613b64878288016136a0565b91505092959194509250565b60008060408385031215613b8757613b86613385565b5b6000613b95858286016133b0565b9250506020613ba6858286016133b0565b9150509250929050565b60008060408385031215613bc757613bc6613385565b5b6000613bd5858286016133b0565b925050602083013567ffffffffffffffff811115613bf657613bf561338a565b5b613c02858286016136a0565b9150509250929050565b60006020820190508181036000830152613c268184613880565b905092915050565b600080600060608486031215613c4757613c46613385565b5b600084013567ffffffffffffffff811115613c6557613c6461338a565b5b613c71868287016136a0565b9350506020613c82868287016133b0565b925050604084013567ffffffffffffffff811115613ca357613ca261338a565b5b613caf868287016136a0565b9150509250925092565b600081519050919050565b600082825260208201905092915050565b6000819050602082019050919050565b613cee8161338f565b82525050565b6000613d008383613ce5565b60208301905092915050565b6000602082019050919050565b6000613d2482613cb9565b613d2e8185613cc4565b9350613d3983613cd5565b8060005b83811015613d6a578151613d518882613cf4565b9750613d5c83613d0c565b925050600181019050613d3d565b5085935050505092915050565b60006020820190508181036000830152613d918184613d19565b905092915050565b600080600060608486031215613db257613db1613385565b5b6000613dc0868287016133b0565b9350506020613dd1868287016133b0565b925050604084013567ffffffffffffffff811115613df257613df161338a565b5b613dfe868287016136a0565b9150509250925092565b60008060008060808587031215613e2257613e21613385565b5b6000613e30878288016133b0565b9450506020613e41878288016133b0565b935050604085013567ffffffffffffffff811115613e6257613e6161338a565b5b613e6e878288016136a0565b925050606085013567ffffffffffffffff811115613e8f57613e8e61338a565b5b613e9b878288016136a0565b91505092959194509250565b60008115159050919050565b613ebc81613ea7565b82525050565b6000610120820190508181036000830152613edd818c613880565b9050613eec602083018b613eb3565b613ef9604083018a613eb3565b613f066060830189613eb3565b613f136080830188613eb3565b613f2060a0830187613eb3565b613f2d60c0830186613eb3565b613f3a60e0830185613eb3565b613f48610100830184613eb3565b9a9950505050505050505050565b6000608082019050613f6b600083018761356f565b613f78602083018661356f565b8181036040830152613f8a8185613880565b90508181036060830152613f9e8184613880565b905095945050505050565b6000602082019050613fbe6000830184613eb3565b92915050565b600080600060608486031215613fdd57613fdc613385565b5b600084013567ffffffffffffffff811115613ffb57613ffa61338a565b5b614007868287016136a0565b935050602084013567ffffffffffffffff8111156140285761402761338a565b5b614034868287016136a0565b925050604084013567ffffffffffffffff8111156140555761405461338a565b5b614061868287016136a0565b9150509250925092565b7f4e487b7100000000000000000000000000000000000000000000000000000000600052602260045260246000fd5b600060028204905060018216806140b257607f821691505b602082108114156140c6576140c561406b565b5b50919050565b7f4e487b7100000000000000000000000000000000000000000000000000000000600052603260045260246000fd5b7f4e487b7100000000000000000000000000000000000000000000000000000000600052601160045260246000fd5b60006141358261338f565b91507fffffffffffffffffffffffffffffffffffffffffffffffffffffffffffffffff821415614168576141676140fb565b5b600182019050919050565b600081905092915050565b60006141898261341e565b6141938185614173565b93506141a381856020860161343a565b80840191505092915050565b60006141bb828461417e565b915081905092915050565b600081905092915050565b60008190508160005260206000209050919050565b600081546141f38161409a565b6141fd81866141c6565b9450600182166000811461421857600181146142295761425c565b60ff1983168652818601935061425c565b614232856141d1565b60005b8381101561425457815481890152600182019150602081019050614235565b838801955050505b50505092915050565b600061427182846141e6565b915081905092915050565b60006142878261338f565b91506142928361338f565b9250827fffffffffffffffffffffffffffffffffffffffffffffffffffffffffffffffff038211156142c7576142c66140fb565b5b82820190509291505056fe3078383662623664366531386335656561636131653833633165363136326363343333646363373061347b227469746c65223a224173736574204d65746164617461222c2274797065223a226f626a656374222c2270726f70657274696573223a7b225469746c65223a7b2274797065223a22737472696e67222c226465736372697074696f6e223a22536f6c61722070616e656c73206f6e2074686520436f6e73657175656e636573204e6f6e6120636f6d6d756e6974792063656e74657220227d2c224465736372697074696f6e223a7b2274797065223a22737472696e67222c226465736372697074696f6e223a2257652063616e20696e735c6e227d2c225374727563747572654c656674223a7b2274797065223a22737472696e67222c226465736372697074696f6e223a5b22526570726573656e74617469766573204265726c696e222c22436f6d6d756e697479222c224368696c6472656e225d7d2c225374727563747572655269676874223a7b2274797065223a22737472696e67222c226465736372697074696f6e223a5b22323025222c22373025222c22313025225d7d2c22516f75746174696f6e223a7b226c696e6b223a2268747470733a2f2f75706c6f61646966792e6e65742f353237336433353064666430303164312f71756f746174696f6e5f436f6e73657175656e6365735f4e6f6e615f636f6d6d756e6974795f63656e7465722e706466222c227072697a65223a222434382c3037312e3535227d2c2277616c6c6574223a7b2274797065223a22737472696e67222c226465736372697074696f6e223a22307844363062433062303063314438613731384642366644654463343436366337413131383038363863227d2c226c6f676f223a7b2274797065223a22737472696e67222c226465736372697074696f6e223a7b2275726c223a2268747470733a2f2f626166796265696634666b367477696b6b63796f70676c687070646f376464336c3334626d367165646a65336d78667465633565376234686535342e697066732e6e667473746f726167652e6c696e6b222c2274797065223a22696d6167652f706e67227d7d2c22616c6c46696c6573223a5b7b2275726c223a2268747470733a2f2f626166796265696634666b367477696b6b63796f70676c687070646f376464336c3334626d367165646a65336d78667465633565376234686535342e697066732e6e667473746f726167652e6c696e6b222c2274797065223a22696d6167652f706e67227d5d7d7d7b227469746c65223a224173736574204d65746164617461222c2274797065223a226f626a656374222c2270726f70657274696573223a7b225469746c65223a7b2274797065223a22737472696e67222c226465736372697074696f6e223a224c616b65204e6f6e612c204f726c616e646f205553227d2c224465736372697074696f6e223a7b2274797065223a22737472696e67222c226465736372697074696f6e223a22227d2c2253746172745f44617465223a7b2274797065223a22737472696e67222c226465736372697074696f6e223a22323032332d30382d31365431313a3134227d2c226c6f676f223a7b2274797065223a22737472696e67222c226465736372697074696f6e223a7b2275726c223a2268747470733a2f2f62616679626569636235797933366f63733479756c7068367a707837676773796567696e736a776e6674376d6c3763786f6a79777062736a7571342e697066732e6e667473746f726167652e6c696e6b222c2274797065223a22696d6167652f706e67227d7d2c2277616c6c6574223a7b2274797065223a22737472696e67222c226465736372697074696f6e223a22307838366262366436653138633565656163613165383363316536313632636334333364636337306134227d2c22537562735072696365223a7b2274797065223a226e756d626572222c226465736372697074696f6e223a22302e3035227d2c2274797065696d67223a7b2274797065223a22737472696e67222c226465736372697074696f6e223a2244616f227d2c22616c6c46696c6573223a5b7b2275726c223a2268747470733a2f2f62616679626569636235797933366f63733479756c7068367a707837676773796567696e736a776e6674376d6c3763786f6a79777062736a7571342e697066732e6e667473746f726167652e6c696e6b222c2274797065223a22696d6167652f706e67227d5d7d7d3c626f64793e3c6469762069643d2264616f2d636f6e7461696e6572223e3c64697620636c6173733d2264616f2d636f6e7461696e657220666c6578206974656d732d63656e74657220666c65782d636f6c206761702d382072656c6174697665223e3c64697620636c6173733d2264616f2d7469746c65206761702d3820666c657820666c65782d636f6c2072656c6174697665223e3c6469763e3c68312069643d2264616f2d7469746c652220636c6173733d22746578742d6d6f6f6e2d333220666f6e742d626f6c64223e4c616b65204e6f6e612c204f726c616e646f2055533c2f68313e3c2f6469763e3c64697620636c6173733d22666c6578206761702d34206a7573746966792d6265747765656e2074616273223e3c64697620636c6173733d22666c6578223e3c6120687265663d222f3f713d416c6c2220636c6173733d22446f6e6174696f6e4261724c696e6b2074616220626c6f636b2070782d332070792d3220616374697665223e416c6c3c2f613e3c6120687265663d222f3f713d546f6461792220636c6173733d22446f6e6174696f6e4261724c696e6b2074616220626c6f636b2070782d332070792d32223e546f6461793c2f613e3c6120687265663d222f3f713d546869732532304d6f6e74682220636c6173733d22446f6e6174696f6e4261724c696e6b2074616220626c6f636b2070782d332070792d32223e54686973204d6f6e74683c2f613e3c2f6469763e3c627574746f6e20747970653d22627574746f6e222076616c75653d2243726561746520476f616c2220636c6173733d2270792d322070782d34206761702d3220746578742d6d6f6f6e2d313420726f756e6465642d6d6f6f6e2d692d736d207a2d3020666c6578206a7573746966792d63656e746572206974656d732d63656e74657220666f6e742d6d656469756d206e6f2d756e6465726c696e65206f766572666c6f772d68696464656e2073656c6563742d6e6f6e65206f75746c696e652d6e6f6e65207472616e736974696f6e206475726174696f6e2d323030206163746976653a7363616c652d393020666f6375732d76697369626c653a736861646f772d666f6375732062746e2d7072696d617279206372656174652d676f616c2d626c6f636b223e3c64697620636c6173733d226761702d32222069643d2269716f6b6a223e0a202020202020200a2020202020203c2f6469763e3c2f627574746f6e3e3c2f6469763e3c2f6469763e3c64697620636c6173733d2264616f2d64697669646572223e0a20203c2f6469763e3c64697620636c6173733d22666c657820666c65782d636f6c206761702d38223e3c696d672069643d2264616f2d696d61676522207372633d2268747470733a2f2f62616679626569636235797933366f63733479756c7068367a707837676773796567696e736a776e6674376d6c3763786f6a79777062736a7571342e697066732e6e667473746f726167652e6c696e6b222f3e3c2f6469763e3c6469762069643d22676f616c2d636f6e7461696e65722220636c6173733d22666c657820666c65782d636f6c206761702d38223e0a0a20203c2f6469763e3c2f6469763e3c2f6469763e3c2f626f64793e3c7374796c653e2a207b20626f782d73697a696e673a20626f726465722d626f783b207d20626f6479207b6d617267696e3a20303b7d2364616f2d7469746c657b77696474683a3738253b7d2369716f6b6a7b666c65782d646972656374696f6e3a726f772d726576657273653b646973706c61793a666c65783b7d2e70792d322e70782d342e6761702d322e746578742d6d6f6f6e2d31342e726f756e6465642d6d6f6f6e2d692d736d2e72656c61746976652e7a2d302e666c65782e6a7573746966792d63656e7465722e6974656d732d63656e7465722e666f6e742d6d656469756d2e6e6f2d756e6465726c696e652e6f766572666c6f772d68696464656e2e73656c6563742d6e6f6e652e6f75746c696e652d6e6f6e652e7472616e736974696f6e2e6475726174696f6e2d3230302e6163746976655c3a7363616c652d39302e666f6375732d76697369626c655c3a736861646f772d666f6375732e62746e2d7072696d6172792e6372656174652d676f616c2d626c6f636b2e7b706f736974696f6e3a72656c61746976653b72696768743a3070783b7d2e70792d322e70782d342e6761702d322e746578742d6d6f6f6e2d31342e726f756e6465642d6d6f6f6e2d692d736d2e7a2d302e666c65782e6a7573746966792d63656e7465722e6974656d732d63656e7465722e666f6e742d6d656469756d2e6e6f2d756e6465726c696e652e6f766572666c6f772d68696464656e2e73656c6563742d6e6f6e652e6f75746c696e652d6e6f6e652e7472616e736974696f6e2e6475726174696f6e2d3230302e6163746976655c3a7363616c652d39302e666f6375732d76697369626c655c3a736861646f772d666f6375732e62746e2d7072696d6172792e6372656174652d676f616c2d626c6f636b2e7b72696768743a313070783b706f736974696f6e3a6162736f6c7574653b7d3c2f7374796c653e7b227469746c65223a224173736574204d65746164617461222c2274797065223a226f626a656374222c2270726f70657274696573223a7b225469746c65223a7b2274797065223a22737472696e67222c226465736372697074696f6e223a2252656e657761626c6520656e65726779227d2c224465736372697074696f6e223a7b2274797065223a22737472696e67222c226465736372697074696f6e223a224f75722044414f206973207374617274696e672069742773206f776e2072656e657761626c6520656e6572677920636f6d70616e7920746861742064656c697665727320656e6572677920666f72207468652077686f6c6520636f6d6d756e697479227d2c22427564676574223a7b2274797065223a22737472696e67222c226465736372697074696f6e223a2224312c3030302c303030227d2c22456e645f44617465223a7b2274797065223a22737472696e67222c226465736372697074696f6e223a22323032332d30382d33315432323a3430227d2c2277616c6c6574223a7b2274797065223a22737472696e67222c226465736372697074696f6e223a22307838366262366436653138633565656163613165383363316536313632636334333364636337306134227d2c226c6f676f223a7b2274797065223a22737472696e67222c226465736372697074696f6e223a7b2275726c223a2268747470733a2f2f626166796265696335673478766a376d7972676b6236326c656e6c64376f72706c32687273706d7a6c7a6364627a70796f746333337471796770652e697066732e6e667473746f726167652e6c696e6b222c2274797065223a22696d6167652f6a706567227d7d2c22616c6c46696c6573223a5b7b2275726c223a2268747470733a2f2f626166796265696335673478766a376d7972676b6236326c656e6c64376f72706c32687273706d7a6c7a6364627a70796f746333337471796770652e697066732e6e667473746f726167652e6c696e6b222c2274797065223a22696d6167652f6a706567227d5d7d7da2646970667358221220ee79fbfa4c4f1bb79a1695e65a7b100dddbb2da942c9dc01d9e0187fd87da9cd64736f6c63430008090033",
  "devdoc": {
    "kind": "dev",
    "methods": {},
    "version": 1
  },
  "userdoc": {
    "kind": "user",
    "methods": {},
    "version": 1
  },
  "storageLayout": {
    "storage": [
      {
        "astId": 100,
        "contract": "contracts/GreenDAO.sol:GreenDAO",
        "label": "_dao_ids",
        "offset": 0,
        "slot": "0",
        "type": "t_uint256"
      },
      {
        "astId": 102,
        "contract": "contracts/GreenDAO.sol:GreenDAO",
        "label": "_donations_ids",
        "offset": 0,
        "slot": "1",
        "type": "t_uint256"
      },
      {
        "astId": 104,
        "contract": "contracts/GreenDAO.sol:GreenDAO",
        "label": "_goal_ids",
        "offset": 0,
        "slot": "2",
        "type": "t_uint256"
      },
      {
        "astId": 106,
        "contract": "contracts/GreenDAO.sol:GreenDAO",
        "label": "_ideas_ids",
        "offset": 0,
        "slot": "3",
        "type": "t_uint256"
      },
      {
        "astId": 108,
        "contract": "contracts/GreenDAO.sol:GreenDAO",
        "label": "_join_ids",
        "offset": 0,
        "slot": "4",
        "type": "t_uint256"
      },
      {
        "astId": 110,
        "contract": "contracts/GreenDAO.sol:GreenDAO",
        "label": "_smart_contract_ids",
        "offset": 0,
        "slot": "5",
        "type": "t_uint256"
      },
      {
        "astId": 112,
        "contract": "contracts/GreenDAO.sol:GreenDAO",
        "label": "_ideas_vote_ids",
        "offset": 0,
        "slot": "6",
        "type": "t_uint256"
      },
      {
        "astId": 114,
        "contract": "contracts/GreenDAO.sol:GreenDAO",
        "label": "_message_ids",
        "offset": 0,
        "slot": "7",
        "type": "t_uint256"
      },
      {
        "astId": 116,
        "contract": "contracts/GreenDAO.sol:GreenDAO",
        "label": "_message_read_ids",
        "offset": 0,
        "slot": "8",
        "type": "t_uint256"
      },
      {
        "astId": 118,
        "contract": "contracts/GreenDAO.sol:GreenDAO",
        "label": "_reply_ids",
        "offset": 0,
        "slot": "9",
        "type": "t_uint256"
      },
      {
        "astId": 123,
        "contract": "contracts/GreenDAO.sol:GreenDAO",
        "label": "_dao_uris",
        "offset": 0,
        "slot": "10",
        "type": "t_mapping(t_uint256,t_struct(dao_uri_struct)9_storage)"
      },
      {
        "astId": 127,
        "contract": "contracts/GreenDAO.sol:GreenDAO",
        "label": "_template_uris",
        "offset": 0,
        "slot": "11",
        "type": "t_mapping(t_uint256,t_string_storage)"
      },
      {
        "astId": 132,
        "contract": "contracts/GreenDAO.sol:GreenDAO",
        "label": "_joined_person",
        "offset": 0,
        "slot": "12",
        "type": "t_mapping(t_uint256,t_struct(join_struct)79_storage)"
      },
      {
        "astId": 137,
        "contract": "contracts/GreenDAO.sol:GreenDAO",
        "label": "_goal_uris",
        "offset": 0,
        "slot": "13",
        "type": "t_mapping(t_uint256,t_struct(goal_uri_struct)14_storage)"
      },
      {
        "astId": 142,
        "contract": "contracts/GreenDAO.sol:GreenDAO",
        "label": "_ideas_uris",
        "offset": 0,
        "slot": "14",
        "type": "t_mapping(t_uint256,t_struct(ideas_uri_struct)21_storage)"
      },
      {
        "astId": 146,
        "contract": "contracts/GreenDAO.sol:GreenDAO",
        "label": "_donated",
        "offset": 0,
        "slot": "15",
        "type": "t_mapping(t_string_memory_ptr,t_uint256)"
      },
      {
        "astId": 151,
        "contract": "contracts/GreenDAO.sol:GreenDAO",
        "label": "_donations",
        "offset": 0,
        "slot": "16",
        "type": "t_mapping(t_uint256,t_struct(donation_struct)28_storage)"
      },
      {
        "astId": 156,
        "contract": "contracts/GreenDAO.sol:GreenDAO",
        "label": "_smart_contracts_uris",
        "offset": 0,
        "slot": "17",
        "type": "t_mapping(t_uint256,t_struct(smart_contract_uri_struct)35_storage)"
      },
      {
        "astId": 161,
        "contract": "contracts/GreenDAO.sol:GreenDAO",
        "label": "all_goal_ideas_votes",
        "offset": 0,
        "slot": "18",
        "type": "t_mapping(t_uint256,t_struct(goal_ideas_votes_struct)42_storage)"
      },
      {
        "astId": 166,
        "contract": "contracts/GreenDAO.sol:GreenDAO",
        "label": "all_messages",
        "offset": 0,
        "slot": "19",
        "type": "t_mapping(t_uint256,t_struct(message_struct)51_storage)"
      },
      {
        "astId": 171,
        "contract": "contracts/GreenDAO.sol:GreenDAO",
        "label": "all_read_messages",
        "offset": 0,
        "slot": "20",
        "type": "t_mapping(t_uint256,t_struct(message_read_struct)60_storage)"
      },
      {
        "astId": 176,
        "contract": "contracts/GreenDAO.sol:GreenDAO",
        "label": "all_replies",
        "offset": 0,
        "slot": "21",
        "type": "t_mapping(t_uint256,t_struct(reply_struct)69_storage)"
      },
      {
        "astId": 181,
        "contract": "contracts/GreenDAO.sol:GreenDAO",
        "label": "_user_badges",
        "offset": 0,
        "slot": "22",
        "type": "t_mapping(t_string_memory_ptr,t_struct(user_badge_struct)98_storage)"
      }
    ],
    "types": {
      "t_bool": {
        "encoding": "inplace",
        "label": "bool",
        "numberOfBytes": "1"
      },
      "t_mapping(t_string_memory_ptr,t_struct(user_badge_struct)98_storage)": {
        "encoding": "mapping",
        "key": "t_string_memory_ptr",
        "label": "mapping(string => struct GreenDAO.user_badge_struct)",
        "numberOfBytes": "32",
        "value": "t_struct(user_badge_struct)98_storage"
      },
      "t_mapping(t_string_memory_ptr,t_uint256)": {
        "encoding": "mapping",
        "key": "t_string_memory_ptr",
        "label": "mapping(string => uint256)",
        "numberOfBytes": "32",
        "value": "t_uint256"
      },
      "t_mapping(t_uint256,t_string_storage)": {
        "encoding": "mapping",
        "key": "t_uint256",
        "label": "mapping(uint256 => string)",
        "numberOfBytes": "32",
        "value": "t_string_storage"
      },
      "t_mapping(t_uint256,t_struct(dao_uri_struct)9_storage)": {
        "encoding": "mapping",
        "key": "t_uint256",
        "label": "mapping(uint256 => struct GreenDAO.dao_uri_struct)",
        "numberOfBytes": "32",
        "value": "t_struct(dao_uri_struct)9_storage"
      },
      "t_mapping(t_uint256,t_struct(donation_struct)28_storage)": {
        "encoding": "mapping",
        "key": "t_uint256",
        "label": "mapping(uint256 => struct GreenDAO.donation_struct)",
        "numberOfBytes": "32",
        "value": "t_struct(donation_struct)28_storage"
      },
      "t_mapping(t_uint256,t_struct(goal_ideas_votes_struct)42_storage)": {
        "encoding": "mapping",
        "key": "t_uint256",
        "label": "mapping(uint256 => struct GreenDAO.goal_ideas_votes_struct)",
        "numberOfBytes": "32",
        "value": "t_struct(goal_ideas_votes_struct)42_storage"
      },
      "t_mapping(t_uint256,t_struct(goal_uri_struct)14_storage)": {
        "encoding": "mapping",
        "key": "t_uint256",
        "label": "mapping(uint256 => struct GreenDAO.goal_uri_struct)",
        "numberOfBytes": "32",
        "value": "t_struct(goal_uri_struct)14_storage"
      },
      "t_mapping(t_uint256,t_struct(ideas_uri_struct)21_storage)": {
        "encoding": "mapping",
        "key": "t_uint256",
        "label": "mapping(uint256 => struct GreenDAO.ideas_uri_struct)",
        "numberOfBytes": "32",
        "value": "t_struct(ideas_uri_struct)21_storage"
      },
      "t_mapping(t_uint256,t_struct(join_struct)79_storage)": {
        "encoding": "mapping",
        "key": "t_uint256",
        "label": "mapping(uint256 => struct GreenDAO.join_struct)",
        "numberOfBytes": "32",
        "value": "t_struct(join_struct)79_storage"
      },
      "t_mapping(t_uint256,t_struct(message_read_struct)60_storage)": {
        "encoding": "mapping",
        "key": "t_uint256",
        "label": "mapping(uint256 => struct GreenDAO.message_read_struct)",
        "numberOfBytes": "32",
        "value": "t_struct(message_read_struct)60_storage"
      },
      "t_mapping(t_uint256,t_struct(message_struct)51_storage)": {
        "encoding": "mapping",
        "key": "t_uint256",
        "label": "mapping(uint256 => struct GreenDAO.message_struct)",
        "numberOfBytes": "32",
        "value": "t_struct(message_struct)51_storage"
      },
      "t_mapping(t_uint256,t_struct(reply_struct)69_storage)": {
        "encoding": "mapping",
        "key": "t_uint256",
        "label": "mapping(uint256 => struct GreenDAO.reply_struct)",
        "numberOfBytes": "32",
        "value": "t_struct(reply_struct)69_storage"
      },
      "t_mapping(t_uint256,t_struct(smart_contract_uri_struct)35_storage)": {
        "encoding": "mapping",
        "key": "t_uint256",
        "label": "mapping(uint256 => struct GreenDAO.smart_contract_uri_struct)",
        "numberOfBytes": "32",
        "value": "t_struct(smart_contract_uri_struct)35_storage"
      },
      "t_string_memory_ptr": {
        "encoding": "bytes",
        "label": "string",
        "numberOfBytes": "32"
      },
      "t_string_storage": {
        "encoding": "bytes",
        "label": "string",
        "numberOfBytes": "32"
      },
      "t_struct(dao_uri_struct)9_storage": {
        "encoding": "inplace",
        "label": "struct GreenDAO.dao_uri_struct",
        "members": [
          {
            "astId": 4,
            "contract": "contracts/GreenDAO.sol:GreenDAO",
            "label": "dao_wallet",
            "offset": 0,
            "slot": "0",
            "type": "t_string_storage"
          },
          {
            "astId": 6,
            "contract": "contracts/GreenDAO.sol:GreenDAO",
            "label": "dao_uri",
            "offset": 0,
            "slot": "1",
            "type": "t_string_storage"
          },
          {
            "astId": 8,
            "contract": "contracts/GreenDAO.sol:GreenDAO",
            "label": "finished",
            "offset": 0,
            "slot": "2",
            "type": "t_string_storage"
          }
        ],
        "numberOfBytes": "96"
      },
      "t_struct(donation_struct)28_storage": {
        "encoding": "inplace",
        "label": "struct GreenDAO.donation_struct",
        "members": [
          {
            "astId": 23,
            "contract": "contracts/GreenDAO.sol:GreenDAO",
            "label": "ideas_id",
            "offset": 0,
            "slot": "0",
            "type": "t_uint256"
          },
          {
            "astId": 25,
            "contract": "contracts/GreenDAO.sol:GreenDAO",
            "label": "wallet",
            "offset": 0,
            "slot": "1",
            "type": "t_string_storage"
          },
          {
            "astId": 27,
            "contract": "contracts/GreenDAO.sol:GreenDAO",
            "label": "donation",
            "offset": 0,
            "slot": "2",
            "type": "t_uint256"
          }
        ],
        "numberOfBytes": "96"
      },
      "t_struct(goal_ideas_votes_struct)42_storage": {
        "encoding": "inplace",
        "label": "struct GreenDAO.goal_ideas_votes_struct",
        "members": [
          {
            "astId": 37,
            "contract": "contracts/GreenDAO.sol:GreenDAO",
            "label": "goal_id",
            "offset": 0,
            "slot": "0",
            "type": "t_uint256"
          },
          {
            "astId": 39,
            "contract": "contracts/GreenDAO.sol:GreenDAO",
            "label": "ideas_id",
            "offset": 0,
            "slot": "1",
            "type": "t_uint256"
          },
          {
            "astId": 41,
            "contract": "contracts/GreenDAO.sol:GreenDAO",
            "label": "wallet",
            "offset": 0,
            "slot": "2",
            "type": "t_string_storage"
          }
        ],
        "numberOfBytes": "96"
      },
      "t_struct(goal_uri_struct)14_storage": {
        "encoding": "inplace",
        "label": "struct GreenDAO.goal_uri_struct",
        "members": [
          {
            "astId": 11,
            "contract": "contracts/GreenDAO.sol:GreenDAO",
            "label": "dao_id",
            "offset": 0,
            "slot": "0",
            "type": "t_uint256"
          },
          {
            "astId": 13,
            "contract": "contracts/GreenDAO.sol:GreenDAO",
            "label": "goal_uri",
            "offset": 0,
            "slot": "1",
            "type": "t_string_storage"
          }
        ],
        "numberOfBytes": "64"
      },
      "t_struct(ideas_uri_struct)21_storage": {
        "encoding": "inplace",
        "label": "struct GreenDAO.ideas_uri_struct",
        "members": [
          {
            "astId": 16,
            "contract": "contracts/GreenDAO.sol:GreenDAO",
            "label": "goal_id",
            "offset": 0,
            "slot": "0",
            "type": "t_uint256"
          },
          {
            "astId": 18,
            "contract": "contracts/GreenDAO.sol:GreenDAO",
            "label": "ideas_uri",
            "offset": 0,
            "slot": "1",
            "type": "t_string_storage"
          },
          {
            "astId": 20,
            "contract": "contracts/GreenDAO.sol:GreenDAO",
            "label": "donation",
            "offset": 0,
            "slot": "2",
            "type": "t_uint256"
          }
        ],
        "numberOfBytes": "96"
      },
      "t_struct(join_struct)79_storage": {
        "encoding": "inplace",
        "label": "struct GreenDAO.join_struct",
        "members": [
          {
            "astId": 76,
            "contract": "contracts/GreenDAO.sol:GreenDAO",
            "label": "daoid",
            "offset": 0,
            "slot": "0",
            "type": "t_uint256"
          },
          {
            "astId": 78,
            "contract": "contracts/GreenDAO.sol:GreenDAO",
            "label": "wallet",
            "offset": 0,
            "slot": "1",
            "type": "t_string_storage"
          }
        ],
        "numberOfBytes": "64"
      },
      "t_struct(message_read_struct)60_storage": {
        "encoding": "inplace",
        "label": "struct GreenDAO.message_read_struct",
        "members": [
          {
            "astId": 53,
            "contract": "contracts/GreenDAO.sol:GreenDAO",
            "label": "message_id",
            "offset": 0,
            "slot": "0",
            "type": "t_uint256"
          },
          {
            "astId": 55,
            "contract": "contracts/GreenDAO.sol:GreenDAO",
            "label": "ideas_id",
            "offset": 0,
            "slot": "1",
            "type": "t_uint256"
          },
          {
            "astId": 57,
            "contract": "contracts/GreenDAO.sol:GreenDAO",
            "label": "wallet",
            "offset": 0,
            "slot": "2",
            "type": "t_string_storage"
          },
          {
            "astId": 59,
            "contract": "contracts/GreenDAO.sol:GreenDAO",
            "label": "msg_type",
            "offset": 0,
            "slot": "3",
            "type": "t_string_storage"
          }
        ],
        "numberOfBytes": "128"
      },
      "t_struct(message_struct)51_storage": {
        "encoding": "inplace",
        "label": "struct GreenDAO.message_struct",
        "members": [
          {
            "astId": 44,
            "contract": "contracts/GreenDAO.sol:GreenDAO",
            "label": "message_id",
            "offset": 0,
            "slot": "0",
            "type": "t_uint256"
          },
          {
            "astId": 46,
            "contract": "contracts/GreenDAO.sol:GreenDAO",
            "label": "ideas_id",
            "offset": 0,
            "slot": "1",
            "type": "t_uint256"
          },
          {
            "astId": 48,
            "contract": "contracts/GreenDAO.sol:GreenDAO",
            "label": "message",
            "offset": 0,
            "slot": "2",
            "type": "t_string_storage"
          },
          {
            "astId": 50,
            "contract": "contracts/GreenDAO.sol:GreenDAO",
            "label": "sender",
            "offset": 0,
            "slot": "3",
            "type": "t_string_storage"
          }
        ],
        "numberOfBytes": "128"
      },
      "t_struct(reply_struct)69_storage": {
        "encoding": "inplace",
        "label": "struct GreenDAO.reply_struct",
        "members": [
          {
            "astId": 62,
            "contract": "contracts/GreenDAO.sol:GreenDAO",
            "label": "reply_id",
            "offset": 0,
            "slot": "0",
            "type": "t_uint256"
          },
          {
            "astId": 64,
            "contract": "contracts/GreenDAO.sol:GreenDAO",
            "label": "message_id",
            "offset": 0,
            "slot": "1",
            "type": "t_uint256"
          },
          {
            "astId": 66,
            "contract": "contracts/GreenDAO.sol:GreenDAO",
            "label": "ideas_id",
            "offset": 0,
            "slot": "2",
            "type": "t_uint256"
          },
          {
            "astId": 68,
            "contract": "contracts/GreenDAO.sol:GreenDAO",
            "label": "message",
            "offset": 0,
            "slot": "3",
            "type": "t_string_storage"
          }
        ],
        "numberOfBytes": "128"
      },
      "t_struct(smart_contract_uri_struct)35_storage": {
        "encoding": "inplace",
        "label": "struct GreenDAO.smart_contract_uri_struct",
        "members": [
          {
            "astId": 30,
            "contract": "contracts/GreenDAO.sol:GreenDAO",
            "label": "smart_contract_id",
            "offset": 0,
            "slot": "0",
            "type": "t_uint256"
          },
          {
            "astId": 32,
            "contract": "contracts/GreenDAO.sol:GreenDAO",
            "label": "ideas_id",
            "offset": 0,
            "slot": "1",
            "type": "t_uint256"
          },
          {
            "astId": 34,
            "contract": "contracts/GreenDAO.sol:GreenDAO",
            "label": "smart_contract_uri",
            "offset": 0,
            "slot": "2",
            "type": "t_string_storage"
          }
        ],
        "numberOfBytes": "96"
      },
      "t_struct(user_badge_struct)98_storage": {
        "encoding": "inplace",
        "label": "struct GreenDAO.user_badge_struct",
        "members": [
          {
            "astId": 81,
            "contract": "contracts/GreenDAO.sol:GreenDAO",
            "label": "wallet",
            "offset": 0,
            "slot": "0",
            "type": "t_string_storage"
          },
          {
            "astId": 83,
            "contract": "contracts/GreenDAO.sol:GreenDAO",
            "label": "dao",
            "offset": 0,
            "slot": "1",
            "type": "t_bool"
          },
          {
            "astId": 85,
            "contract": "contracts/GreenDAO.sol:GreenDAO",
            "label": "joined",
            "offset": 1,
            "slot": "1",
            "type": "t_bool"
          },
          {
            "astId": 87,
            "contract": "contracts/GreenDAO.sol:GreenDAO",
            "label": "goal",
            "offset": 2,
            "slot": "1",
            "type": "t_bool"
          },
          {
            "astId": 89,
            "contract": "contracts/GreenDAO.sol:GreenDAO",
            "label": "ideas",
            "offset": 3,
            "slot": "1",
            "type": "t_bool"
          },
          {
            "astId": 91,
            "contract": "contracts/GreenDAO.sol:GreenDAO",
            "label": "vote",
            "offset": 4,
            "slot": "1",
            "type": "t_bool"
          },
          {
            "astId": 93,
            "contract": "contracts/GreenDAO.sol:GreenDAO",
            "label": "donation",
            "offset": 5,
            "slot": "1",
            "type": "t_bool"
          },
          {
            "astId": 95,
            "contract": "contracts/GreenDAO.sol:GreenDAO",
            "label": "comment",
            "offset": 6,
            "slot": "1",
            "type": "t_bool"
          },
          {
            "astId": 97,
            "contract": "contracts/GreenDAO.sol:GreenDAO",
            "label": "reply",
            "offset": 7,
            "slot": "1",
            "type": "t_bool"
          }
        ],
        "numberOfBytes": "64"
      },
      "t_uint256": {
        "encoding": "inplace",
        "label": "uint256",
        "numberOfBytes": "32"
      }
    }
  }
}